{
  "contractName": "SneakerDrop",
  "abi": [
    {
      "inputs": [],
      "stateMutability": "nonpayable",
      "type": "constructor"
    },
    {
      "anonymous": false,
      "inputs": [
        {
          "indexed": false,
          "internalType": "address",
          "name": "seller",
          "type": "address"
        },
        {
          "indexed": false,
          "internalType": "uint256",
          "name": "id",
          "type": "uint256"
        }
      ],
      "name": "logRegisterSeller",
      "type": "event"
    },
    {
      "anonymous": false,
      "inputs": [
        {
          "indexed": false,
          "internalType": "address",
          "name": "sneaker",
          "type": "address"
        },
        {
          "indexed": false,
          "internalType": "address",
          "name": "creator",
          "type": "address"
        },
        {
          "indexed": false,
          "internalType": "uint256",
          "name": "sneakerid",
          "type": "uint256"
        }
      ],
      "name": "logSneakerCreated",
      "type": "event"
    },
    {
      "inputs": [],
      "name": "owner",
      "outputs": [
        {
          "internalType": "address",
          "name": "",
          "type": "address"
        }
      ],
      "stateMutability": "view",
      "type": "function"
    },
    {
      "inputs": [],
      "name": "totalSellers",
      "outputs": [
        {
          "internalType": "uint256",
          "name": "",
          "type": "uint256"
        }
      ],
      "stateMutability": "view",
      "type": "function"
    },
    {
      "inputs": [],
      "name": "totalSneakers",
      "outputs": [
        {
          "internalType": "uint256",
          "name": "",
          "type": "uint256"
        }
      ],
      "stateMutability": "view",
      "type": "function"
    },
    {
      "inputs": [
        {
          "internalType": "address",
          "name": "_seller",
          "type": "address"
        },
        {
          "internalType": "string",
          "name": "_username",
          "type": "string"
        },
        {
          "internalType": "string",
          "name": "_companyname",
          "type": "string"
        },
        {
          "internalType": "string",
          "name": "_imgHash",
          "type": "string"
        },
        {
          "internalType": "string",
          "name": "_coverHash",
          "type": "string"
        },
        {
          "internalType": "string",
          "name": "_bio",
          "type": "string"
        }
      ],
      "name": "registerSeller",
      "outputs": [],
      "stateMutability": "nonpayable",
      "type": "function"
    },
    {
      "inputs": [
        {
          "internalType": "string",
          "name": "_username",
          "type": "string"
        }
      ],
      "name": "changeUsername",
      "outputs": [],
      "stateMutability": "nonpayable",
      "type": "function"
    },
    {
      "inputs": [
        {
          "internalType": "string",
          "name": "_username",
          "type": "string"
        }
      ],
      "name": "usernameAvailable",
      "outputs": [
        {
          "internalType": "bool",
          "name": "status",
          "type": "bool"
        }
      ],
      "stateMutability": "view",
      "type": "function"
    },
    {
      "inputs": [
        {
          "internalType": "address",
          "name": "_seller",
          "type": "address"
        }
      ],
      "name": "sellerStatus",
      "outputs": [
        {
          "internalType": "bool",
          "name": "registered",
          "type": "bool"
        }
      ],
      "stateMutability": "view",
      "type": "function"
    },
    {
      "inputs": [
        {
          "internalType": "address",
          "name": "_seller",
          "type": "address"
        }
      ],
      "name": "getSeller",
      "outputs": [
        {
          "internalType": "uint256",
          "name": "id",
          "type": "uint256"
        },
        {
          "internalType": "string",
          "name": "username",
          "type": "string"
        },
        {
          "internalType": "string",
          "name": "company",
          "type": "string"
        },
        {
          "internalType": "string",
          "name": "imghash",
          "type": "string"
        },
        {
          "internalType": "string",
          "name": "coverhash",
          "type": "string"
        },
        {
          "internalType": "string",
          "name": "bio",
          "type": "string"
        }
      ],
      "stateMutability": "view",
      "type": "function"
    },
    {
      "inputs": [],
      "name": "getSeller",
      "outputs": [
        {
          "internalType": "uint256",
          "name": "id",
          "type": "uint256"
        },
        {
          "internalType": "string",
          "name": "username",
          "type": "string"
        },
        {
          "internalType": "string",
          "name": "company",
          "type": "string"
        },
        {
          "internalType": "string",
          "name": "imghash",
          "type": "string"
        },
        {
          "internalType": "string",
          "name": "coverhash",
          "type": "string"
        },
        {
          "internalType": "string",
          "name": "bio",
          "type": "string"
        }
      ],
      "stateMutability": "view",
      "type": "function"
    },
    {
      "inputs": [
        {
          "internalType": "address",
          "name": "_seller",
          "type": "address"
        }
      ],
      "name": "getUser",
      "outputs": [
        {
          "internalType": "uint256",
          "name": "id",
          "type": "uint256"
        },
        {
          "internalType": "string",
          "name": "username",
          "type": "string"
        },
        {
          "internalType": "string",
          "name": "company",
          "type": "string"
        },
        {
          "internalType": "string",
          "name": "imghash",
          "type": "string"
        },
        {
          "internalType": "string",
          "name": "coverhash",
          "type": "string"
        },
        {
          "internalType": "string",
          "name": "bio",
          "type": "string"
        }
      ],
      "stateMutability": "view",
      "type": "function"
    },
    {
      "inputs": [
        {
          "internalType": "address",
          "name": "_sneaker",
          "type": "address"
        },
        {
          "internalType": "address",
          "name": "_creator",
          "type": "address"
        }
      ],
      "name": "addSneaker",
      "outputs": [],
      "stateMutability": "nonpayable",
      "type": "function"
    },
    {
      "inputs": [
        {
          "internalType": "uint256",
          "name": "_id",
          "type": "uint256"
        }
      ],
      "name": "getSneaker",
      "outputs": [
        {
          "internalType": "address",
          "name": "sneaker",
          "type": "address"
        },
        {
          "internalType": "address",
          "name": "creator",
          "type": "address"
        }
      ],
      "stateMutability": "view",
      "type": "function"
    },
    {
      "inputs": [],
      "name": "getSellerSneakers",
      "outputs": [
        {
          "internalType": "uint256[]",
          "name": "sneakerList",
          "type": "uint256[]"
        }
      ],
      "stateMutability": "view",
      "type": "function"
    },
    {
      "inputs": [
        {
          "internalType": "address",
          "name": "_seller",
          "type": "address"
        }
      ],
      "name": "getSellerSneakers",
      "outputs": [
        {
          "internalType": "uint256[]",
          "name": "sneakerList",
          "type": "uint256[]"
        }
      ],
      "stateMutability": "view",
      "type": "function"
    }
  ],
  "bytecode": "0x6080604052600060015560006002553480156200001b57600080fd5b50336000806101000a81548173ffffffffffffffffffffffffffffffffffffffff021916908373ffffffffffffffffffffffffffffffffffffffff16021790555062000138336040518060400160405280600581526020017f6f776e65720000000000000000000000000000000000000000000000000000008152506040518060400160405280600581526020017f6f776e657200000000000000000000000000000000000000000000000000000081525060405180602001604052806000815250604051806020016040528060008152506040518060400160405280600581526020017f6f776e65720000000000000000000000000000000000000000000000000000008152506200013e640100000000026401000000009004565b62000a04565b60008054906101000a900473ffffffffffffffffffffffffffffffffffffffff1673ffffffffffffffffffffffffffffffffffffffff163373ffffffffffffffffffffffffffffffffffffffff1614620001cf576040517f08c379a0000000000000000000000000000000000000000000000000000000008152600401620001c690620006e4565b60405180910390fd5b8560001515600360008373ffffffffffffffffffffffffffffffffffffffff1673ffffffffffffffffffffffffffffffffffffffff16815260200190815260200160002060070160009054906101000a900460ff1615151462000269576040517f08c379a0000000000000000000000000000000000000000000000000000000008152600401620002609062000756565b60405180910390fd5b856005816040516200027c9190620007fb565b908152602001604051809103902060009054906101000a900460ff1615620002db576040517f08c379a0000000000000000000000000000000000000000000000000000000008152600401620002d29062000864565b60405180910390fd5b6001600588604051620002ef9190620007fb565b908152602001604051809103902060006101000a81548160ff0219169083151502179055506200033a6001600254620005956401000000000262001b34179091906401000000009004565b600281905550600060025490506000600190506040518061010001604052808381526020018b73ffffffffffffffffffffffffffffffffffffffff1681526020018a8152602001898152602001888152602001878152602001868152602001821515815250600360008c73ffffffffffffffffffffffffffffffffffffffff1673ffffffffffffffffffffffffffffffffffffffff1681526020019081526020016000206000820151816000015560208201518160010160006101000a81548173ffffffffffffffffffffffffffffffffffffffff021916908373ffffffffffffffffffffffffffffffffffffffff16021790555060408201518160020190805190602001906200044d929190620005ad565b5060608201518160030190805190602001906200046c929190620005ad565b5060808201518160040190805190602001906200048b929190620005ad565b5060a0820151816005019080519060200190620004aa929190620005ad565b5060c0820151816006019080519060200190620004c9929190620005ad565b5060e08201518160070160006101000a81548160ff0219169083151502179055509050508960048a604051620005009190620007fb565b908152602001604051809103902060006101000a81548173ffffffffffffffffffffffffffffffffffffffff021916908373ffffffffffffffffffffffffffffffffffffffff1602179055507fd7abea4e39151768719914bd6cdff5fa9334ffdee50968a674de1279902e55c68a60025460405162000581929190620008e6565b60405180910390a150505050505050505050565b60008183620005a5919062000942565b905092915050565b828054620005bb90620009ce565b90600052602060002090601f016020900481019282620005df57600085556200062b565b82601f10620005fa57805160ff19168380011785556200062b565b828001600101855582156200062b579182015b828111156200062a5782518255916020019190600101906200060d565b5b5090506200063a91906200063e565b5090565b5b80821115620006595760008160009055506001016200063f565b5090565b600082825260208201905092915050565b7f496e76616c696420557365723a2055736572206d75737420626520746865206f60008201527f776e65722e000000000000000000000000000000000000000000000000000000602082015250565b6000620006cc6025836200065d565b9150620006d9826200066e565b604082019050919050565b60006020820190508181036000830152620006ff81620006bd565b9050919050565b7f53656c6c657220616c7265616479207265676973746572656400000000000000600082015250565b60006200073e6019836200065d565b91506200074b8262000706565b602082019050919050565b6000602082019050818103600083015262000771816200072f565b9050919050565b600081519050919050565b600081905092915050565b60005b83811015620007ae57808201518184015260208101905062000791565b83811115620007be576000848401525b50505050565b6000620007d18262000778565b620007dd818562000783565b9350620007ef8185602086016200078e565b80840191505092915050565b6000620008098284620007c4565b915081905092915050565b7f557365726e616d6520616c72656164792074616b656e00000000000000000000600082015250565b60006200084c6016836200065d565b9150620008598262000814565b602082019050919050565b600060208201905081810360008301526200087f816200083d565b9050919050565b600073ffffffffffffffffffffffffffffffffffffffff82169050919050565b6000620008b38262000886565b9050919050565b620008c581620008a6565b82525050565b6000819050919050565b620008e081620008cb565b82525050565b6000604082019050620008fd6000830185620008ba565b6200090c6020830184620008d5565b9392505050565b7f4e487b7100000000000000000000000000000000000000000000000000000000600052601160045260246000fd5b60006200094f82620008cb565b91506200095c83620008cb565b9250827fffffffffffffffffffffffffffffffffffffffffffffffffffffffffffffffff0382111562000994576200099362000913565b5b828201905092915050565b7f4e487b7100000000000000000000000000000000000000000000000000000000600052602260045260246000fd5b60006002820490506001821680620009e757607f821691505b60208210811415620009fe57620009fd6200099f565b5b50919050565b6126878062000a146000396000f3fe608060405234801561001057600080fd5b5060043610610107576000357c010000000000000000000000000000000000000000000000000000000090048063a323d29e116100a9578063c8a05c3811610083578063c8a05c3814610298578063dbd0e1b6146102b6578063dd594779146102d9578063e6b3a14c1461030a57610107565b8063a323d29e14610217578063a4e31d041461024c578063be3656861461026857610107565b80636f77926b116100e55780636f77926b1461017857806374ebaadc146101ad57806377c846af146101dd5780638da5cb5b146101f957610107565b806343e72d6f1461010c57806345de84db1461012a5780636d3f4b7a1461015a575b600080fd5b610114610326565b6040516101219190611cb5565b60405180910390f35b610144600480360381019061013f9190611d49565b6103bb565b6040516101519190611d91565b60405180910390f35b610162610414565b60405161016f9190611dbb565b60405180910390f35b610192600480360381019061018d9190611d49565b61041a565b6040516101a496959493929190611e6f565b60405180910390f35b6101c760048036038101906101c29190612028565b610882565b6040516101d49190611d91565b60405180910390f35b6101f760048036038101906101f29190612028565b6108b8565b005b610201610a18565b60405161020e9190612080565b60405180910390f35b610231600480360381019061022c9190611d49565b610a3c565b60405161024396959493929190611e6f565b60405180910390f35b6102666004803603810190610261919061209b565b610ea4565b005b610282600480360381019061027d9190611d49565b61111e565b60405161028f9190611cb5565b60405180910390f35b6102a06111b5565b6040516102ad9190611dbb565b60405180910390f35b6102be6111bb565b6040516102d096959493929190611e6f565b60405180910390f35b6102f360048036038101906102ee9190612107565b611622565b604051610301929190612134565b60405180910390f35b610324600480360381019061031f919061215d565b611708565b005b6060600760003373ffffffffffffffffffffffffffffffffffffffff1673ffffffffffffffffffffffffffffffffffffffff1681526020019081526020016000208054806020026020016040519081016040528092919081815260200182805480156103b157602002820191906000526020600020905b81548152602001906001019080831161039d575b5050505050905090565b6000600360008373ffffffffffffffffffffffffffffffffffffffff1673ffffffffffffffffffffffffffffffffffffffff16815260200190815260200160002060070160009054906101000a900460ff169050919050565b60025481565b60006060806060806060600360008873ffffffffffffffffffffffffffffffffffffffff1673ffffffffffffffffffffffffffffffffffffffff16815260200190815260200160002060000154600360008973ffffffffffffffffffffffffffffffffffffffff1673ffffffffffffffffffffffffffffffffffffffff168152602001908152602001600020600201600360008a73ffffffffffffffffffffffffffffffffffffffff1673ffffffffffffffffffffffffffffffffffffffff168152602001908152602001600020600301600360008b73ffffffffffffffffffffffffffffffffffffffff1673ffffffffffffffffffffffffffffffffffffffff168152602001908152602001600020600401600360008c73ffffffffffffffffffffffffffffffffffffffff1673ffffffffffffffffffffffffffffffffffffffff168152602001908152602001600020600501600360008d73ffffffffffffffffffffffffffffffffffffffff1673ffffffffffffffffffffffffffffffffffffffff1681526020019081526020016000206006018480546105bd906122a5565b80601f01602080910402602001604051908101604052809291908181526020018280546105e9906122a5565b80156106365780601f1061060b57610100808354040283529160200191610636565b820191906000526020600020905b81548152906001019060200180831161061957829003601f168201915b50505050509450838054610649906122a5565b80601f0160208091040260200160405190810160405280929190818152602001828054610675906122a5565b80156106c25780601f10610697576101008083540402835291602001916106c2565b820191906000526020600020905b8154815290600101906020018083116106a557829003601f168201915b505050505093508280546106d5906122a5565b80601f0160208091040260200160405190810160405280929190818152602001828054610701906122a5565b801561074e5780601f106107235761010080835404028352916020019161074e565b820191906000526020600020905b81548152906001019060200180831161073157829003601f168201915b50505050509250818054610761906122a5565b80601f016020809104026020016040519081016040528092919081815260200182805461078d906122a5565b80156107da5780601f106107af576101008083540402835291602001916107da565b820191906000526020600020905b8154815290600101906020018083116107bd57829003601f168201915b505050505091508080546107ed906122a5565b80601f0160208091040260200160405190810160405280929190818152602001828054610819906122a5565b80156108665780601f1061083b57610100808354040283529160200191610866565b820191906000526020600020905b81548152906001019060200180831161084957829003601f168201915b5050505050905095509550955095509550955091939550919395565b60006005826040516108949190612313565b908152602001604051809103902060009054906101000a900460ff16159050919050565b3360011515600360008373ffffffffffffffffffffffffffffffffffffffff1673ffffffffffffffffffffffffffffffffffffffff16815260200190815260200160002060070160009054906101000a900460ff1615151461094f576040517f08c379a000000000000000000000000000000000000000000000000000000000815260040161094690612376565b60405180910390fd5b816005816040516109609190612313565b908152602001604051809103902060009054906101000a900460ff16156109bc576040517f08c379a00000000000000000000000000000000000000000000000000000000081526004016109b3906123e2565b60405180910390fd5b82600360003373ffffffffffffffffffffffffffffffffffffffff1673ffffffffffffffffffffffffffffffffffffffff1681526020019081526020016000206002019080519060200190610a12929190611b4a565b50505050565b60008054906101000a900473ffffffffffffffffffffffffffffffffffffffff1681565b60006060806060806060600360008873ffffffffffffffffffffffffffffffffffffffff1673ffffffffffffffffffffffffffffffffffffffff16815260200190815260200160002060000154600360008973ffffffffffffffffffffffffffffffffffffffff1673ffffffffffffffffffffffffffffffffffffffff168152602001908152602001600020600201600360008a73ffffffffffffffffffffffffffffffffffffffff1673ffffffffffffffffffffffffffffffffffffffff168152602001908152602001600020600301600360008b73ffffffffffffffffffffffffffffffffffffffff1673ffffffffffffffffffffffffffffffffffffffff168152602001908152602001600020600401600360008c73ffffffffffffffffffffffffffffffffffffffff1673ffffffffffffffffffffffffffffffffffffffff168152602001908152602001600020600501600360008d73ffffffffffffffffffffffffffffffffffffffff1673ffffffffffffffffffffffffffffffffffffffff168152602001908152602001600020600601848054610bdf906122a5565b80601f0160208091040260200160405190810160405280929190818152602001828054610c0b906122a5565b8015610c585780601f10610c2d57610100808354040283529160200191610c58565b820191906000526020600020905b815481529060010190602001808311610c3b57829003601f168201915b50505050509450838054610c6b906122a5565b80601f0160208091040260200160405190810160405280929190818152602001828054610c97906122a5565b8015610ce45780601f10610cb957610100808354040283529160200191610ce4565b820191906000526020600020905b815481529060010190602001808311610cc757829003601f168201915b50505050509350828054610cf7906122a5565b80601f0160208091040260200160405190810160405280929190818152602001828054610d23906122a5565b8015610d705780601f10610d4557610100808354040283529160200191610d70565b820191906000526020600020905b815481529060010190602001808311610d5357829003601f168201915b50505050509250818054610d83906122a5565b80601f0160208091040260200160405190810160405280929190818152602001828054610daf906122a5565b8015610dfc5780601f10610dd157610100808354040283529160200191610dfc565b820191906000526020600020905b815481529060010190602001808311610ddf57829003601f168201915b50505050509150808054610e0f906122a5565b80601f0160208091040260200160405190810160405280929190818152602001828054610e3b906122a5565b8015610e885780601f10610e5d57610100808354040283529160200191610e88565b820191906000526020600020905b815481529060010190602001808311610e6b57829003601f168201915b5050505050905095509550955095509550955091939550919395565b60008054906101000a900473ffffffffffffffffffffffffffffffffffffffff1673ffffffffffffffffffffffffffffffffffffffff163373ffffffffffffffffffffffffffffffffffffffff1614610f32576040517f08c379a0000000000000000000000000000000000000000000000000000000008152600401610f2990612474565b60405180910390fd5b610f4760018054611b3490919063ffffffff16565b60018190555060006001549050600060019050600760008473ffffffffffffffffffffffffffffffffffffffff1673ffffffffffffffffffffffffffffffffffffffff16815260200190815260200160002082908060018154018082558091505060019003906000526020600020016000909190919091505560405180608001604052808381526020018573ffffffffffffffffffffffffffffffffffffffff1681526020018473ffffffffffffffffffffffffffffffffffffffff168152602001821515815250600660008481526020019081526020016000206000820151816000015560208201518160010160006101000a81548173ffffffffffffffffffffffffffffffffffffffff021916908373ffffffffffffffffffffffffffffffffffffffff16021790555060408201518160020160006101000a81548173ffffffffffffffffffffffffffffffffffffffff021916908373ffffffffffffffffffffffffffffffffffffffff16021790555060608201518160020160146101000a81548160ff0219169083151502179055509050507f3e98bcc2df8ddf22eb37e62366a07961478f167dfa1629fdbec22974ec9966bc84848460405161111093929190612494565b60405180910390a150505050565b6060600760008373ffffffffffffffffffffffffffffffffffffffff1673ffffffffffffffffffffffffffffffffffffffff1681526020019081526020016000208054806020026020016040519081016040528092919081815260200182805480156111a957602002820191906000526020600020905b815481526020019060010190808311611195575b50505050509050919050565b60015481565b60006060806060806060600360003373ffffffffffffffffffffffffffffffffffffffff1673ffffffffffffffffffffffffffffffffffffffff16815260200190815260200160002060000154600360003373ffffffffffffffffffffffffffffffffffffffff1673ffffffffffffffffffffffffffffffffffffffff168152602001908152602001600020600201600360003373ffffffffffffffffffffffffffffffffffffffff1673ffffffffffffffffffffffffffffffffffffffff168152602001908152602001600020600301600360003373ffffffffffffffffffffffffffffffffffffffff1673ffffffffffffffffffffffffffffffffffffffff168152602001908152602001600020600401600360003373ffffffffffffffffffffffffffffffffffffffff1673ffffffffffffffffffffffffffffffffffffffff168152602001908152602001600020600501600360003373ffffffffffffffffffffffffffffffffffffffff1673ffffffffffffffffffffffffffffffffffffffff16815260200190815260200160002060060184805461135e906122a5565b80601f016020809104026020016040519081016040528092919081815260200182805461138a906122a5565b80156113d75780601f106113ac576101008083540402835291602001916113d7565b820191906000526020600020905b8154815290600101906020018083116113ba57829003601f168201915b505050505094508380546113ea906122a5565b80601f0160208091040260200160405190810160405280929190818152602001828054611416906122a5565b80156114635780601f1061143857610100808354040283529160200191611463565b820191906000526020600020905b81548152906001019060200180831161144657829003601f168201915b50505050509350828054611476906122a5565b80601f01602080910402602001604051908101604052809291908181526020018280546114a2906122a5565b80156114ef5780601f106114c4576101008083540402835291602001916114ef565b820191906000526020600020905b8154815290600101906020018083116114d257829003601f168201915b50505050509250818054611502906122a5565b80601f016020809104026020016040519081016040528092919081815260200182805461152e906122a5565b801561157b5780601f106115505761010080835404028352916020019161157b565b820191906000526020600020905b81548152906001019060200180831161155e57829003601f168201915b5050505050915080805461158e906122a5565b80601f01602080910402602001604051908101604052809291908181526020018280546115ba906122a5565b80156116075780601f106115dc57610100808354040283529160200191611607565b820191906000526020600020905b8154815290600101906020018083116115ea57829003601f168201915b50505050509050955095509550955095509550909192939495565b60008082600115156006600083815260200190815260200160002060020160149054906101000a900460ff16151514611690576040517f08c379a000000000000000000000000000000000000000000000000000000000815260040161168790612517565b60405180910390fd5b6006600085815260200190815260200160002060010160009054906101000a900473ffffffffffffffffffffffffffffffffffffffff166006600086815260200190815260200160002060020160009054906101000a900473ffffffffffffffffffffffffffffffffffffffff169250925050915091565b60008054906101000a900473ffffffffffffffffffffffffffffffffffffffff1673ffffffffffffffffffffffffffffffffffffffff163373ffffffffffffffffffffffffffffffffffffffff1614611796576040517f08c379a000000000000000000000000000000000000000000000000000000000815260040161178d90612474565b60405180910390fd5b8560001515600360008373ffffffffffffffffffffffffffffffffffffffff1673ffffffffffffffffffffffffffffffffffffffff16815260200190815260200160002060070160009054906101000a900460ff1615151461182d576040517f08c379a000000000000000000000000000000000000000000000000000000000815260040161182490612583565b60405180910390fd5b8560058160405161183e9190612313565b908152602001604051809103902060009054906101000a900460ff161561189a576040517f08c379a0000000000000000000000000000000000000000000000000000000008152600401611891906123e2565b60405180910390fd5b60016005886040516118ac9190612313565b908152602001604051809103902060006101000a81548160ff0219169083151502179055506118e76001600254611b3490919063ffffffff16565b600281905550600060025490506000600190506040518061010001604052808381526020018b73ffffffffffffffffffffffffffffffffffffffff1681526020018a8152602001898152602001888152602001878152602001868152602001821515815250600360008c73ffffffffffffffffffffffffffffffffffffffff1673ffffffffffffffffffffffffffffffffffffffff1681526020019081526020016000206000820151816000015560208201518160010160006101000a81548173ffffffffffffffffffffffffffffffffffffffff021916908373ffffffffffffffffffffffffffffffffffffffff16021790555060408201518160020190805190602001906119f8929190611b4a565b506060820151816003019080519060200190611a15929190611b4a565b506080820151816004019080519060200190611a32929190611b4a565b5060a0820151816005019080519060200190611a4f929190611b4a565b5060c0820151816006019080519060200190611a6c929190611b4a565b5060e08201518160070160006101000a81548160ff0219169083151502179055509050508960048a604051611aa19190612313565b908152602001604051809103902060006101000a81548173ffffffffffffffffffffffffffffffffffffffff021916908373ffffffffffffffffffffffffffffffffffffffff1602179055507fd7abea4e39151768719914bd6cdff5fa9334ffdee50968a674de1279902e55c68a600254604051611b209291906125a3565b60405180910390a150505050505050505050565b60008183611b4291906125fb565b905092915050565b828054611b56906122a5565b90600052602060002090601f016020900481019282611b785760008555611bbf565b82601f10611b9157805160ff1916838001178555611bbf565b82800160010185558215611bbf579182015b82811115611bbe578251825591602001919060010190611ba3565b5b509050611bcc9190611bd0565b5090565b5b80821115611be9576000816000905550600101611bd1565b5090565b600081519050919050565b600082825260208201905092915050565b6000819050602082019050919050565b6000819050919050565b611c2c81611c19565b82525050565b6000611c3e8383611c23565b60208301905092915050565b6000602082019050919050565b6000611c6282611bed565b611c6c8185611bf8565b9350611c7783611c09565b8060005b83811015611ca8578151611c8f8882611c32565b9750611c9a83611c4a565b925050600181019050611c7b565b5085935050505092915050565b60006020820190508181036000830152611ccf8184611c57565b905092915050565b6000604051905090565b600080fd5b600080fd5b600073ffffffffffffffffffffffffffffffffffffffff82169050919050565b6000611d1682611ceb565b9050919050565b611d2681611d0b565b8114611d3157600080fd5b50565b600081359050611d4381611d1d565b92915050565b600060208284031215611d5f57611d5e611ce1565b5b6000611d6d84828501611d34565b91505092915050565b60008115159050919050565b611d8b81611d76565b82525050565b6000602082019050611da66000830184611d82565b92915050565b611db581611c19565b82525050565b6000602082019050611dd06000830184611dac565b92915050565b600081519050919050565b600082825260208201905092915050565b60005b83811015611e10578082015181840152602081019050611df5565b83811115611e1f576000848401525b50505050565b6000601f19601f8301169050919050565b6000611e4182611dd6565b611e4b8185611de1565b9350611e5b818560208601611df2565b611e6481611e25565b840191505092915050565b600060c082019050611e846000830189611dac565b8181036020830152611e968188611e36565b90508181036040830152611eaa8187611e36565b90508181036060830152611ebe8186611e36565b90508181036080830152611ed28185611e36565b905081810360a0830152611ee68184611e36565b9050979650505050505050565b600080fd5b600080fd5b7f4e487b7100000000000000000000000000000000000000000000000000000000600052604160045260246000fd5b611f3582611e25565b810181811067ffffffffffffffff82111715611f5457611f53611efd565b5b80604052505050565b6000611f67611cd7565b9050611f738282611f2c565b919050565b600067ffffffffffffffff821115611f9357611f92611efd565b5b611f9c82611e25565b9050602081019050919050565b82818337600083830152505050565b6000611fcb611fc684611f78565b611f5d565b905082815260208101848484011115611fe757611fe6611ef8565b5b611ff2848285611fa9565b509392505050565b600082601f83011261200f5761200e611ef3565b5b813561201f848260208601611fb8565b91505092915050565b60006020828403121561203e5761203d611ce1565b5b600082013567ffffffffffffffff81111561205c5761205b611ce6565b5b61206884828501611ffa565b91505092915050565b61207a81611d0b565b82525050565b60006020820190506120956000830184612071565b92915050565b600080604083850312156120b2576120b1611ce1565b5b60006120c085828601611d34565b92505060206120d185828601611d34565b9150509250929050565b6120e481611c19565b81146120ef57600080fd5b50565b600081359050612101816120db565b92915050565b60006020828403121561211d5761211c611ce1565b5b600061212b848285016120f2565b91505092915050565b60006040820190506121496000830185612071565b6121566020830184612071565b9392505050565b60008060008060008060c0878903121561217a57612179611ce1565b5b600061218889828a01611d34565b965050602087013567ffffffffffffffff8111156121a9576121a8611ce6565b5b6121b589828a01611ffa565b955050604087013567ffffffffffffffff8111156121d6576121d5611ce6565b5b6121e289828a01611ffa565b945050606087013567ffffffffffffffff81111561220357612202611ce6565b5b61220f89828a01611ffa565b935050608087013567ffffffffffffffff8111156122305761222f611ce6565b5b61223c89828a01611ffa565b92505060a087013567ffffffffffffffff81111561225d5761225c611ce6565b5b61226989828a01611ffa565b9150509295509295509295565b7f4e487b7100000000000000000000000000000000000000000000000000000000600052602260045260246000fd5b600060028204905060018216806122bd57607f821691505b602082108114156122d1576122d0612276565b5b50919050565b600081905092915050565b60006122ed82611dd6565b6122f781856122d7565b9350612307818560208601611df2565b80840191505092915050565b600061231f82846122e2565b915081905092915050565b7f4e6f74206120526567697374657265642053656c6c6572210000000000000000600082015250565b6000612360601883611de1565b915061236b8261232a565b602082019050919050565b6000602082019050818103600083015261238f81612353565b9050919050565b7f557365726e616d6520616c72656164792074616b656e00000000000000000000600082015250565b60006123cc601683611de1565b91506123d782612396565b602082019050919050565b600060208201905081810360008301526123fb816123bf565b9050919050565b7f496e76616c696420557365723a2055736572206d75737420626520746865206f60008201527f776e65722e000000000000000000000000000000000000000000000000000000602082015250565b600061245e602583611de1565b915061246982612402565b604082019050919050565b6000602082019050818103600083015261248d81612451565b9050919050565b60006060820190506124a96000830186612071565b6124b66020830185612071565b6124c36040830184611dac565b949350505050565b7f536e65616b657220646f6573206e6f7420657869737400000000000000000000600082015250565b6000612501601683611de1565b915061250c826124cb565b602082019050919050565b60006020820190508181036000830152612530816124f4565b9050919050565b7f53656c6c657220616c7265616479207265676973746572656400000000000000600082015250565b600061256d601983611de1565b915061257882612537565b602082019050919050565b6000602082019050818103600083015261259c81612560565b9050919050565b60006040820190506125b86000830185612071565b6125c56020830184611dac565b9392505050565b7f4e487b7100000000000000000000000000000000000000000000000000000000600052601160045260246000fd5b600061260682611c19565b915061261183611c19565b9250827fffffffffffffffffffffffffffffffffffffffffffffffffffffffffffffffff03821115612646576126456125cc565b5b82820190509291505056fea2646970667358221220ca5477954a5e39a43440df3605528b221ca26dde5876617d44e069fc29320c3264736f6c63430008090033",
  "immutableReferences": {},
  "source": "// SPDX-License-Identifier: MIT\npragma solidity >=0.7.0 <0.9.0;\n\nimport \"@openzeppelin/contracts/utils/math/SafeMath.sol\";\n\ncontract SneakerDrop {\n    using SafeMath for uint256;\n    address public owner;\n\n    struct Seller {\n        uint256 id;\n        address seller;\n        string username;\n        string company;\n        string profileImgHash;\n        string profileCoverImgHash;\n        string bio;\n        bool registered;\n    }\n\n    struct Sneaker {\n        uint256 sneakerId;\n        address sneaker;\n        address creator;\n        bool exists;\n    }\n\n    uint256 public totalSneakers = 0;\n    uint256 public totalSellers = 0;\n\n    mapping(address => Seller) private sellers; //mapping to get seller details from seller address\n    mapping(string => address) private sellerAddressFromUsername; //mapping to get Seller address from username/company name\n    mapping(string => bool) private usernames; //To check which username is taken, taken=>true, not taken=>false\n\n    mapping(uint256 => Sneaker) private sneakers; // mapping to get sneaker details from sneaker id\n    mapping(address => uint256[]) private sellerSneakers; // mapping to get sneaker id from seller address\n\n    modifier onlyOwner() {\n        require(msg.sender == owner, \"Invalid User: User must be the owner.\");\n        _;\n    }\n\n    modifier onlySneakerOwner(uint256 id) {\n        require(msg.sender == sneakers[id].creator, \"You are not the sneaker owner!\");\n        _;\n    }\n\n    modifier onlyAllowedSeller(address seller) {\n        require(\n            sellers[seller].registered == true,\n            \"Not a Registered Seller!\"\n        );\n        _;\n    }\n\n    modifier usernameTaken(string memory username) {\n        require(!usernames[username], \"Username already taken\");\n        _;\n    }\n\n    // modifier checkUserExists(){require(registeredUser[msg.sender]); _;}\n    modifier checkSellerNotExists(address seller) {\n        require(\n            sellers[seller].registered == false,\n            \"Seller already registered\"\n        );\n        _;\n    }\n\n    modifier checkSneakerExits(uint256 id) {\n        require(sneakers[id].exists == true, \"Sneaker does not exist\");\n        _;\n    }\n\n    event logRegisterSeller(address seller, uint256 id);\n    event logSneakerCreated(address sneaker, address creator,uint sneakerid);\n\n    constructor() {\n        owner = msg.sender;\n        registerSeller(msg.sender, \"owner\", \"owner\", \"\", \"\", \"owner\");\n    }\n\n    /*\n     **************************************SELLER FUNCTIONS********************************************************************************\n     */\n\n    /// @notice Register a new seller\n    /// @param _seller address of seller\n    /// @param  _username username of username\n    /// @param _companyname name of person\n    /// @param _imgHash Ipfs Hash of sellers Profile Image\n    /// @param _coverHash Ipfs Hash of seller cover Image\n    /// @param _bio Biography of seller\n    function registerSeller(address _seller, string memory _username, string memory _companyname, string memory _imgHash,\n        string memory _coverHash, string memory _bio)\n        public onlyOwner checkSellerNotExists(_seller) usernameTaken(_username) {\n        usernames[_username] = true; // Attack Prevented\n        totalSellers = totalSellers.add(1);\n        uint256 _id = totalSellers;\n        bool _registered = true;\n        sellers[_seller] = Seller(\n            _id,\n            _seller,\n            _username,\n            _companyname,\n            _imgHash,\n            _coverHash,\n            _bio,\n            _registered\n        );\n        sellerAddressFromUsername[_username] = _seller;\n        emit logRegisterSeller(_seller, totalSellers);\n    }\n\n    /// @notice Change username of a seller\n    /// @param _username New username of seller\n    function changeUsername(string memory _username) public onlyAllowedSeller(msg.sender) usernameTaken(_username) {\n        sellers[msg.sender].username = _username;\n    }\n\n    /// @notice Check username available or not\n    /// @param  _username username to Check\n    /// @return status true or false\n    function usernameAvailable(string memory _username) public view returns (bool status) {\n        return !usernames[_username];\n    }\n\n    /// @notice Check seller registered or not\n    /// @param _seller address of seller\n    /// @return registered true or false\n    function sellerStatus(address _seller) public view returns (bool registered) {\n        return sellers[_seller].registered;\n    }\n\n    /// @notice Get seller details\n    /// @return id Id of seller\n    /// @return username username of person\n    /// @return company name of seller\n    /// @return imghash seller profile image ipfs hash\n    /// @return coverhash usercCover image ipfs hash\n    /// @return bio Biography of seller\n    function getSeller() public view returns (\n            uint256 id,\n            string memory username,\n            string memory company,\n            string memory imghash,\n            string memory coverhash,\n            string memory bio\n        ) {\n        return (\n            sellers[msg.sender].id,\n            sellers[msg.sender].username,\n            sellers[msg.sender].company,\n            sellers[msg.sender].profileImgHash,\n            sellers[msg.sender].profileCoverImgHash,\n            sellers[msg.sender].bio\n        );\n    }\n\n    /// @notice Get seller details\n    /// @param _seller address of seller\n    /// @return id Id of seller\n    /// @return username username of person\n    /// @return company name of seller\n    /// @return imghash seller profile image ipfs hash\n    /// @return coverhash usercCover image ipfs hash\n    /// @return bio Biography of seller\n    function getSeller(address _seller) public view returns (\n            uint256 id,\n            string memory username,\n            string memory company,\n            string memory imghash,\n            string memory coverhash,\n            string memory bio\n        ) {\n        return (\n            sellers[_seller].id,\n            sellers[_seller].username,\n            sellers[_seller].company,\n            sellers[_seller].profileImgHash,\n            sellers[_seller].profileCoverImgHash,\n            sellers[_seller].bio\n        );\n    }\n\n    /// @notice Get seller details\n    /// @param _seller address of seller\n    /// @return id Id of seller\n    /// @return username username of person\n    /// @return company name of seller\n    /// @return imghash seller profile image ipfs hash\n    /// @return coverhash usercCover image ipfs hash\n    /// @return bio Biography of seller\n    function getUser(address _seller) public view returns (\n            uint256 id,\n            string memory username,\n            string memory company,\n            string memory imghash,\n            string memory coverhash,\n            string memory bio\n        ) {\n        return (\n            sellers[_seller].id,\n            sellers[_seller].username,\n            sellers[_seller].company,\n            sellers[_seller].profileImgHash,\n            sellers[_seller].profileCoverImgHash,\n            sellers[_seller].bio\n        );\n    }\n\n\n    /*\n     **************************************SNEAKER FUNCTIONS*************************************************************************\n     */\n    \n    function addSneaker(address _sneaker, address _creator) public onlyOwner {\n        totalSneakers = totalSneakers.add(1);\n        uint256 _id = totalSneakers;\n        bool _exists = true;\n        sellerSneakers[_creator].push(_id);\n        sneakers[_id] = Sneaker(\n            _id,\n            _sneaker,\n            _creator,\n            _exists\n        );\n        emit logSneakerCreated(_sneaker, _creator, _id);\n    }\n\n    /// @notice Get a Sneaker\n    /// @param  _id Id of sneaker\n    /// @return sneaker address of Sneaker\n    /// @return  creator address of Sneaker seller\n    function getSneaker(uint256 _id) public view checkSneakerExits(_id)\n        returns (\n            address sneaker,\n            address creator\n        ) {\n        return (\n            sneakers[_id].sneaker,\n            sneakers[_id].creator\n        );\n    }\n\n    /// @notice Get list of sneakers owner by seller\n    /// @return sneakerList Array of sneaker ids\n    function getSellerSneakers() public view returns(uint256[] memory sneakerList){\n        return sellerSneakers[msg.sender];\n    }\n    \n    /// @notice Get list of sneakers owned by seller\n    /// @param _seller Seller address\n    /// @return sneakerList Array of sneaker ids\n    function getSellerSneakers(address _seller) public view returns(uint256[] memory sneakerList){\n        return sellerSneakers[_seller];\n    }\n}\n",
  "sourcePath": "/home/aktutia/codes/blockchain-developer-bootcamp-final-project/contracts/SneakerDrop.sol",
  "compiler": {
    "name": "solc",
    "version": "0.8.9+commit.e5eed63a.Emscripten.clang"
  },
  "schemaVersion": "3.4.3",
  "updatedAt": "2021-11-09T11:01:36.886Z",
  "devdoc": {
    "kind": "dev",
    "methods": {
      "changeUsername(string)": {
        "params": {
          "_username": "New username of seller"
        }
      },
      "getSeller()": {
        "returns": {
          "bio": "Biography of seller",
          "company": "name of seller",
          "coverhash": "usercCover image ipfs hash",
          "id": "Id of seller",
          "imghash": "seller profile image ipfs hash",
          "username": "username of person"
        }
      },
      "getSeller(address)": {
        "params": {
          "_seller": "address of seller"
        },
        "returns": {
          "bio": "Biography of seller",
          "company": "name of seller",
          "coverhash": "usercCover image ipfs hash",
          "id": "Id of seller",
          "imghash": "seller profile image ipfs hash",
          "username": "username of person"
        }
      },
      "getSellerSneakers()": {
        "returns": {
          "sneakerList": "Array of sneaker ids"
        }
      },
      "getSellerSneakers(address)": {
        "params": {
          "_seller": "Seller address"
        },
        "returns": {
          "sneakerList": "Array of sneaker ids"
        }
      },
      "getSneaker(uint256)": {
        "params": {
          "_id": "Id of sneaker"
        },
        "returns": {
          "creator": "address of Sneaker seller",
          "sneaker": "address of Sneaker"
        }
      },
      "getUser(address)": {
        "params": {
          "_seller": "address of seller"
        },
        "returns": {
          "bio": "Biography of seller",
          "company": "name of seller",
          "coverhash": "usercCover image ipfs hash",
          "id": "Id of seller",
          "imghash": "seller profile image ipfs hash",
          "username": "username of person"
        }
      },
      "registerSeller(address,string,string,string,string,string)": {
        "params": {
          "_bio": "Biography of seller",
          "_companyname": "name of person",
          "_coverHash": "Ipfs Hash of seller cover Image",
          "_imgHash": "Ipfs Hash of sellers Profile Image",
          "_seller": "address of seller",
          "_username": "username of username"
        }
      },
      "sellerStatus(address)": {
        "params": {
          "_seller": "address of seller"
        },
        "returns": {
          "registered": "true or false"
        }
      },
      "usernameAvailable(string)": {
        "params": {
          "_username": "username to Check"
        },
        "returns": {
          "status": "true or false"
        }
      }
    },
    "version": 1
  },
  "userdoc": {
    "kind": "user",
    "methods": {
      "changeUsername(string)": {
        "notice": "Change username of a seller"
      },
      "getSeller()": {
        "notice": "Get seller details"
      },
      "getSeller(address)": {
        "notice": "Get seller details"
      },
      "getSellerSneakers()": {
        "notice": "Get list of sneakers owner by seller"
      },
      "getSellerSneakers(address)": {
        "notice": "Get list of sneakers owned by seller"
      },
      "getSneaker(uint256)": {
        "notice": "Get a Sneaker"
      },
      "getUser(address)": {
        "notice": "Get seller details"
      },
      "registerSeller(address,string,string,string,string,string)": {
        "notice": "Register a new seller"
      },
      "sellerStatus(address)": {
        "notice": "Check seller registered or not"
      },
      "usernameAvailable(string)": {
        "notice": "Check username available or not"
      }
    },
    "version": 1
  }
}