{
  "contractName": "SneakerTokenThree",
  "abi": [
    {
      "inputs": [
        {
          "internalType": "string",
          "name": "name",
          "type": "string"
        },
        {
          "internalType": "string",
          "name": "symbol",
          "type": "string"
        }
      ],
      "stateMutability": "nonpayable",
      "type": "constructor"
    },
    {
      "anonymous": false,
      "inputs": [
        {
          "indexed": true,
          "internalType": "address",
          "name": "owner",
          "type": "address"
        },
        {
          "indexed": true,
          "internalType": "address",
          "name": "approved",
          "type": "address"
        },
        {
          "indexed": true,
          "internalType": "uint256",
          "name": "tokenId",
          "type": "uint256"
        }
      ],
      "name": "Approval",
      "type": "event"
    },
    {
      "anonymous": false,
      "inputs": [
        {
          "indexed": true,
          "internalType": "address",
          "name": "owner",
          "type": "address"
        },
        {
          "indexed": true,
          "internalType": "address",
          "name": "operator",
          "type": "address"
        },
        {
          "indexed": false,
          "internalType": "bool",
          "name": "approved",
          "type": "bool"
        }
      ],
      "name": "ApprovalForAll",
      "type": "event"
    },
    {
      "anonymous": false,
      "inputs": [
        {
          "indexed": true,
          "internalType": "bool",
          "name": "active",
          "type": "bool"
        }
      ],
      "name": "ContractActive",
      "type": "event"
    },
    {
      "anonymous": false,
      "inputs": [
        {
          "indexed": true,
          "internalType": "string",
          "name": "contractURI",
          "type": "string"
        }
      ],
      "name": "ContractURIUpdated",
      "type": "event"
    },
    {
      "anonymous": false,
      "inputs": [
        {
          "indexed": true,
          "internalType": "address",
          "name": "previousOwner",
          "type": "address"
        },
        {
          "indexed": true,
          "internalType": "address",
          "name": "newOwner",
          "type": "address"
        }
      ],
      "name": "OwnershipTransferred",
      "type": "event"
    },
    {
      "anonymous": false,
      "inputs": [],
      "name": "SneakerListUpdated",
      "type": "event"
    },
    {
      "anonymous": false,
      "inputs": [
        {
          "indexed": true,
          "internalType": "address",
          "name": "owner",
          "type": "address"
        },
        {
          "indexed": true,
          "internalType": "uint256",
          "name": "tokenID",
          "type": "uint256"
        }
      ],
      "name": "TokenMinted",
      "type": "event"
    },
    {
      "anonymous": false,
      "inputs": [
        {
          "indexed": true,
          "internalType": "string",
          "name": "tokenURI",
          "type": "string"
        }
      ],
      "name": "TokenURIUpdated",
      "type": "event"
    },
    {
      "anonymous": false,
      "inputs": [
        {
          "indexed": true,
          "internalType": "address",
          "name": "from",
          "type": "address"
        },
        {
          "indexed": true,
          "internalType": "address",
          "name": "to",
          "type": "address"
        },
        {
          "indexed": true,
          "internalType": "uint256",
          "name": "tokenId",
          "type": "uint256"
        }
      ],
      "name": "Transfer",
      "type": "event"
    },
    {
      "inputs": [
        {
          "internalType": "address",
          "name": "to",
          "type": "address"
        },
        {
          "internalType": "uint256",
          "name": "tokenId",
          "type": "uint256"
        }
      ],
      "name": "approve",
      "outputs": [],
      "stateMutability": "nonpayable",
      "type": "function"
    },
    {
      "inputs": [
        {
          "internalType": "address",
          "name": "owner",
          "type": "address"
        }
      ],
      "name": "balanceOf",
      "outputs": [
        {
          "internalType": "uint256",
          "name": "",
          "type": "uint256"
        }
      ],
      "stateMutability": "view",
      "type": "function",
      "constant": true
    },
    {
      "inputs": [
        {
          "internalType": "uint256",
          "name": "tokenId",
          "type": "uint256"
        }
      ],
      "name": "getApproved",
      "outputs": [
        {
          "internalType": "address",
          "name": "",
          "type": "address"
        }
      ],
      "stateMutability": "view",
      "type": "function",
      "constant": true
    },
    {
      "inputs": [],
      "name": "isActive",
      "outputs": [
        {
          "internalType": "bool",
          "name": "",
          "type": "bool"
        }
      ],
      "stateMutability": "view",
      "type": "function",
      "constant": true
    },
    {
      "inputs": [
        {
          "internalType": "address",
          "name": "owner",
          "type": "address"
        },
        {
          "internalType": "address",
          "name": "operator",
          "type": "address"
        }
      ],
      "name": "isApprovedForAll",
      "outputs": [
        {
          "internalType": "bool",
          "name": "",
          "type": "bool"
        }
      ],
      "stateMutability": "view",
      "type": "function",
      "constant": true
    },
    {
      "inputs": [],
      "name": "name",
      "outputs": [
        {
          "internalType": "string",
          "name": "",
          "type": "string"
        }
      ],
      "stateMutability": "view",
      "type": "function",
      "constant": true
    },
    {
      "inputs": [],
      "name": "owner",
      "outputs": [
        {
          "internalType": "address",
          "name": "",
          "type": "address"
        }
      ],
      "stateMutability": "view",
      "type": "function",
      "constant": true
    },
    {
      "inputs": [
        {
          "internalType": "uint256",
          "name": "tokenId",
          "type": "uint256"
        }
      ],
      "name": "ownerOf",
      "outputs": [
        {
          "internalType": "address",
          "name": "",
          "type": "address"
        }
      ],
      "stateMutability": "view",
      "type": "function",
      "constant": true
    },
    {
      "inputs": [],
      "name": "renounceOwnership",
      "outputs": [],
      "stateMutability": "nonpayable",
      "type": "function"
    },
    {
      "inputs": [
        {
          "internalType": "address",
          "name": "from",
          "type": "address"
        },
        {
          "internalType": "address",
          "name": "to",
          "type": "address"
        },
        {
          "internalType": "uint256",
          "name": "tokenId",
          "type": "uint256"
        }
      ],
      "name": "safeTransferFrom",
      "outputs": [],
      "stateMutability": "nonpayable",
      "type": "function"
    },
    {
      "inputs": [
        {
          "internalType": "address",
          "name": "from",
          "type": "address"
        },
        {
          "internalType": "address",
          "name": "to",
          "type": "address"
        },
        {
          "internalType": "uint256",
          "name": "tokenId",
          "type": "uint256"
        },
        {
          "internalType": "bytes",
          "name": "_data",
          "type": "bytes"
        }
      ],
      "name": "safeTransferFrom",
      "outputs": [],
      "stateMutability": "nonpayable",
      "type": "function"
    },
    {
      "inputs": [
        {
          "internalType": "address",
          "name": "operator",
          "type": "address"
        },
        {
          "internalType": "bool",
          "name": "approved",
          "type": "bool"
        }
      ],
      "name": "setApprovalForAll",
      "outputs": [],
      "stateMutability": "nonpayable",
      "type": "function"
    },
    {
      "inputs": [
        {
          "internalType": "string",
          "name": "",
          "type": "string"
        }
      ],
      "name": "sneakerList",
      "outputs": [
        {
          "internalType": "string",
          "name": "code",
          "type": "string"
        },
        {
          "internalType": "uint256",
          "name": "tokenId",
          "type": "uint256"
        },
        {
          "internalType": "bool",
          "name": "active",
          "type": "bool"
        }
      ],
      "stateMutability": "view",
      "type": "function",
      "constant": true
    },
    {
      "inputs": [
        {
          "internalType": "bytes4",
          "name": "interfaceId",
          "type": "bytes4"
        }
      ],
      "name": "supportsInterface",
      "outputs": [
        {
          "internalType": "bool",
          "name": "",
          "type": "bool"
        }
      ],
      "stateMutability": "view",
      "type": "function",
      "constant": true
    },
    {
      "inputs": [],
      "name": "symbol",
      "outputs": [
        {
          "internalType": "string",
          "name": "",
          "type": "string"
        }
      ],
      "stateMutability": "view",
      "type": "function",
      "constant": true
    },
    {
      "inputs": [
        {
          "internalType": "uint256",
          "name": "index",
          "type": "uint256"
        }
      ],
      "name": "tokenByIndex",
      "outputs": [
        {
          "internalType": "uint256",
          "name": "",
          "type": "uint256"
        }
      ],
      "stateMutability": "view",
      "type": "function",
      "constant": true
    },
    {
      "inputs": [
        {
          "internalType": "address",
          "name": "owner",
          "type": "address"
        },
        {
          "internalType": "uint256",
          "name": "index",
          "type": "uint256"
        }
      ],
      "name": "tokenOfOwnerByIndex",
      "outputs": [
        {
          "internalType": "uint256",
          "name": "",
          "type": "uint256"
        }
      ],
      "stateMutability": "view",
      "type": "function",
      "constant": true
    },
    {
      "inputs": [],
      "name": "totalSupply",
      "outputs": [
        {
          "internalType": "uint256",
          "name": "",
          "type": "uint256"
        }
      ],
      "stateMutability": "view",
      "type": "function",
      "constant": true
    },
    {
      "inputs": [
        {
          "internalType": "address",
          "name": "from",
          "type": "address"
        },
        {
          "internalType": "address",
          "name": "to",
          "type": "address"
        },
        {
          "internalType": "uint256",
          "name": "tokenId",
          "type": "uint256"
        }
      ],
      "name": "transferFrom",
      "outputs": [],
      "stateMutability": "nonpayable",
      "type": "function"
    },
    {
      "inputs": [
        {
          "internalType": "address",
          "name": "newOwner",
          "type": "address"
        }
      ],
      "name": "transferOwnership",
      "outputs": [],
      "stateMutability": "nonpayable",
      "type": "function"
    },
    {
      "inputs": [
        {
          "internalType": "string[]",
          "name": "confList",
          "type": "string[]"
        }
      ],
      "name": "addToConfList",
      "outputs": [],
      "stateMutability": "nonpayable",
      "type": "function"
    },
    {
      "inputs": [
        {
          "internalType": "string",
          "name": "confCode",
          "type": "string"
        }
      ],
      "name": "mint",
      "outputs": [],
      "stateMutability": "nonpayable",
      "type": "function"
    },
    {
      "inputs": [
        {
          "internalType": "bool",
          "name": "_isActive",
          "type": "bool"
        }
      ],
      "name": "setIsActive",
      "outputs": [],
      "stateMutability": "nonpayable",
      "type": "function"
    },
    {
      "inputs": [
        {
          "internalType": "string",
          "name": "URI",
          "type": "string"
        }
      ],
      "name": "setContractURI",
      "outputs": [],
      "stateMutability": "nonpayable",
      "type": "function"
    },
    {
      "inputs": [
        {
          "internalType": "string",
          "name": "URI",
          "type": "string"
        }
      ],
      "name": "setTokenURI",
      "outputs": [],
      "stateMutability": "nonpayable",
      "type": "function"
    },
    {
      "inputs": [],
      "name": "contractURI",
      "outputs": [
        {
          "internalType": "string",
          "name": "",
          "type": "string"
        }
      ],
      "stateMutability": "view",
      "type": "function",
      "constant": true
    },
    {
      "inputs": [
        {
          "internalType": "uint256",
          "name": "tokenId",
          "type": "uint256"
        }
      ],
      "name": "tokenURI",
      "outputs": [
        {
          "internalType": "string",
          "name": "",
          "type": "string"
        }
      ],
      "stateMutability": "view",
      "type": "function",
      "constant": true
    }
  ],
  "bytecode": "0x60806040526000600a60146101000a81548160ff02191690831515021790555060405180602001604052806000815250600c908051906020019062000046929190620001e0565b5060405180602001604052806000815250600d90805190602001906200006e929190620001e0565b503480156200007c57600080fd5b506040516200477f3803806200477f8339818101604052810190620000a291906200042d565b81818160009080519060200190620000bc929190620001e0565b508060019080519060200190620000d5929190620001e0565b5050506200010a620000f562000112640100000000026401000000009004565b6200011a640100000000026401000000009004565b505062000517565b600033905090565b6000600a60009054906101000a900473ffffffffffffffffffffffffffffffffffffffff16905081600a60006101000a81548173ffffffffffffffffffffffffffffffffffffffff021916908373ffffffffffffffffffffffffffffffffffffffff1602179055508173ffffffffffffffffffffffffffffffffffffffff168173ffffffffffffffffffffffffffffffffffffffff167f8be0079c531659141344cd1fd0a4f28419497f9722a3daafe3b4186f6b6457e060405160405180910390a35050565b828054620001ee90620004e1565b90600052602060002090601f0160209004810192826200021257600085556200025e565b82601f106200022d57805160ff19168380011785556200025e565b828001600101855582156200025e579182015b828111156200025d57825182559160200191906001019062000240565b5b5090506200026d919062000271565b5090565b5b808211156200028c57600081600090555060010162000272565b5090565b6000604051905090565b600080fd5b600080fd5b600080fd5b600080fd5b6000601f19601f8301169050919050565b7f4e487b7100000000000000000000000000000000000000000000000000000000600052604160045260246000fd5b620002f982620002ae565b810181811067ffffffffffffffff821117156200031b576200031a620002bf565b5b80604052505050565b60006200033062000290565b90506200033e8282620002ee565b919050565b600067ffffffffffffffff821115620003615762000360620002bf565b5b6200036c82620002ae565b9050602081019050919050565b60005b83811015620003995780820151818401526020810190506200037c565b83811115620003a9576000848401525b50505050565b6000620003c6620003c08462000343565b62000324565b905082815260208101848484011115620003e557620003e4620002a9565b5b620003f284828562000379565b509392505050565b600082601f830112620004125762000411620002a4565b5b815162000424848260208601620003af565b91505092915050565b600080604083850312156200044757620004466200029a565b5b600083015167ffffffffffffffff8111156200046857620004676200029f565b5b6200047685828601620003fa565b925050602083015167ffffffffffffffff8111156200049a57620004996200029f565b5b620004a885828601620003fa565b9150509250929050565b7f4e487b7100000000000000000000000000000000000000000000000000000000600052602260045260246000fd5b60006002820490506001821680620004fa57607f821691505b60208210811415620005115762000510620004b2565b5b50919050565b61425880620005276000396000f3fe608060405234801561001057600080fd5b50600436106101c6576000357c01000000000000000000000000000000000000000000000000000000009004806370a0823111610116578063b88d4fde116100b4578063e0df5b6f1161008e578063e0df5b6f146104e9578063e8a3d48514610505578063e985e9c514610523578063f2fde38b14610553576101c6565b8063b88d4fde14610481578063c87b56dd1461049d578063d85d3d27146104cd576101c6565b8063938e3d7b116100f0578063938e3d7b146103f957806395d89b4114610415578063a22cb46514610433578063b1f282bd1461044f576101c6565b806370a08231146103a1578063715018a6146103d15780638da5cb5b146103db576101c6565b806322f3e2d4116101835780632f745c591161015d5780632f745c59146102f557806342842e0e146103255780634f6ccce7146103415780636352211e14610371576101c6565b806322f3e2d41461029f57806323b872dd146102bd5780632750fc78146102d9576101c6565b806301ffc9a7146101cb57806306fdde03146101fb578063081812fc14610219578063095ea7b3146102495780630d0341bf1461026557806318160ddd14610281575b600080fd5b6101e560048036038101906101e09190612b6c565b61056f565b6040516101f29190612bb4565b60405180910390f35b6102036105e9565b6040516102109190612c68565b60405180910390f35b610233600480360381019061022e9190612cc0565b61067b565b6040516102409190612d2e565b60405180910390f35b610263600480360381019061025e9190612d75565b610700565b005b61027f600480360381019061027a9190612e1a565b610818565b005b610289610a04565b6040516102969190612e76565b60405180910390f35b6102a7610a11565b6040516102b49190612bb4565b60405180910390f35b6102d760048036038101906102d29190612e91565b610a24565b005b6102f360048036038101906102ee9190612f10565b610a84565b005b61030f600480360381019061030a9190612d75565b610bb1565b60405161031c9190612e76565b60405180910390f35b61033f600480360381019061033a9190612e91565b610c56565b005b61035b60048036038101906103569190612cc0565b610c76565b6040516103689190612e76565b60405180910390f35b61038b60048036038101906103869190612cc0565b610ce7565b6040516103989190612d2e565b60405180910390f35b6103bb60048036038101906103b69190612f3d565b610d99565b6040516103c89190612e76565b60405180910390f35b6103d9610e51565b005b6103e3610ed9565b6040516103f09190612d2e565b60405180910390f35b610413600480360381019061040e9190612fc0565b610f03565b005b61041d610fd9565b60405161042a9190612c68565b60405180910390f35b61044d6004803603810190610448919061300d565b61106b565b005b6104696004803603810190610464919061317d565b6111ec565b604051610478939291906131c6565b60405180910390f35b61049b600480360381019061049691906132a5565b6112c1565b005b6104b760048036038101906104b29190612cc0565b611323565b6040516104c49190612c68565b60405180910390f35b6104e760048036038101906104e2919061317d565b611480565b005b61050360048036038101906104fe9190612fc0565b611646565b005b61050d61171c565b60405161051a9190612c68565b60405180910390f35b61053d60048036038101906105389190613328565b6117ae565b60405161054a9190612bb4565b60405180910390f35b61056d60048036038101906105689190612f3d565b611842565b005b60007f780e9d63000000000000000000000000000000000000000000000000000000007bffffffffffffffffffffffffffffffffffffffffffffffffffffffff1916827bffffffffffffffffffffffffffffffffffffffffffffffffffffffff191614806105e257506105e18261193a565b5b9050919050565b6060600080546105f890613397565b80601f016020809104026020016040519081016040528092919081815260200182805461062490613397565b80156106715780601f1061064657610100808354040283529160200191610671565b820191906000526020600020905b81548152906001019060200180831161065457829003601f168201915b5050505050905090565b600061068682611a1c565b6106c5576040517f08c379a00000000000000000000000000000000000000000000000000000000081526004016106bc9061343b565b60405180910390fd5b6004600083815260200190815260200160002060009054906101000a900473ffffffffffffffffffffffffffffffffffffffff169050919050565b600061070b82610ce7565b90508073ffffffffffffffffffffffffffffffffffffffff168373ffffffffffffffffffffffffffffffffffffffff16141561077c576040517f08c379a0000000000000000000000000000000000000000000000000000000008152600401610773906134cd565b60405180910390fd5b8073ffffffffffffffffffffffffffffffffffffffff1661079b611a88565b73ffffffffffffffffffffffffffffffffffffffff1614806107ca57506107c9816107c4611a88565b6117ae565b5b610809576040517f08c379a00000000000000000000000000000000000000000000000000000000081526004016108009061355f565b60405180910390fd5b6108138383611a90565b505050565b610820611a88565b73ffffffffffffffffffffffffffffffffffffffff1661083e610ed9565b73ffffffffffffffffffffffffffffffffffffffff1614610894576040517f08c379a000000000000000000000000000000000000000000000000000000000815260040161088b906135cb565b60405180910390fd5b60005b828290508110156109d35760405180606001604052808484848181106108c0576108bf6135eb565b5b90506020028101906108d29190613629565b8080601f016020809104026020016040519081016040528093929190818152602001838380828437600081840152601f19601f82011690508083019250505050505050815260200160018361092791906136bb565b815260200160011515815250600b848484818110610948576109476135eb565b5b905060200281019061095a9190613629565b604051610968929190613741565b908152602001604051809103902060008201518160000190805190602001906109929291906129d7565b506020820151816001015560408201518160020160006101000a81548160ff02191690831515021790555090505080806109cb9061375a565b915050610897565b507fe28f796197026955b9c28cbe8b2fb9d8251cf2e5df7ee76651f41340e0d48cd960405160405180910390a15050565b6000600880549050905090565b600a60149054906101000a900460ff1681565b610a35610a2f611a88565b82611b49565b610a74576040517f08c379a0000000000000000000000000000000000000000000000000000000008152600401610a6b90613815565b60405180910390fd5b610a7f838383611c27565b505050565b610a8c611a88565b73ffffffffffffffffffffffffffffffffffffffff16610aaa610ed9565b73ffffffffffffffffffffffffffffffffffffffff1614610b00576040517f08c379a0000000000000000000000000000000000000000000000000000000008152600401610af7906135cb565b60405180910390fd5b801515600a60149054906101000a900460ff1615151415610b56576040517f08c379a0000000000000000000000000000000000000000000000000000000008152600401610b4d90613881565b60405180910390fd5b80600a60146101000a81548160ff021916908315150217905550600a60149054906101000a900460ff1615157f71f032377a1043229aa0bf6a58140e5d13427d1866611d8326d523c408fa778660405160405180910390a250565b6000610bbc83610d99565b8210610bfd576040517f08c379a0000000000000000000000000000000000000000000000000000000008152600401610bf490613913565b60405180910390fd5b600660008473ffffffffffffffffffffffffffffffffffffffff1673ffffffffffffffffffffffffffffffffffffffff168152602001908152602001600020600083815260200190815260200160002054905092915050565b610c71838383604051806020016040528060008152506112c1565b505050565b6000610c80610a04565b8210610cc1576040517f08c379a0000000000000000000000000000000000000000000000000000000008152600401610cb8906139a5565b60405180910390fd5b60088281548110610cd557610cd46135eb565b5b90600052602060002001549050919050565b6000806002600084815260200190815260200160002060009054906101000a900473ffffffffffffffffffffffffffffffffffffffff169050600073ffffffffffffffffffffffffffffffffffffffff168173ffffffffffffffffffffffffffffffffffffffff161415610d90576040517f08c379a0000000000000000000000000000000000000000000000000000000008152600401610d8790613a37565b60405180910390fd5b80915050919050565b60008073ffffffffffffffffffffffffffffffffffffffff168273ffffffffffffffffffffffffffffffffffffffff161415610e0a576040517f08c379a0000000000000000000000000000000000000000000000000000000008152600401610e0190613ac9565b60405180910390fd5b600360008373ffffffffffffffffffffffffffffffffffffffff1673ffffffffffffffffffffffffffffffffffffffff168152602001908152602001600020549050919050565b610e59611a88565b73ffffffffffffffffffffffffffffffffffffffff16610e77610ed9565b73ffffffffffffffffffffffffffffffffffffffff1614610ecd576040517f08c379a0000000000000000000000000000000000000000000000000000000008152600401610ec4906135cb565b60405180910390fd5b610ed76000611e83565b565b6000600a60009054906101000a900473ffffffffffffffffffffffffffffffffffffffff16905090565b610f0b611a88565b73ffffffffffffffffffffffffffffffffffffffff16610f29610ed9565b73ffffffffffffffffffffffffffffffffffffffff1614610f7f576040517f08c379a0000000000000000000000000000000000000000000000000000000008152600401610f76906135cb565b60405180910390fd5b8181600c9190610f90929190612a5d565b508181604051610fa1929190613741565b60405180910390207f905d981207a7d0b6c62cc46ab0be2a076d0298e4a86d0ab79882dbd01ac3737860405160405180910390a25050565b606060018054610fe890613397565b80601f016020809104026020016040519081016040528092919081815260200182805461101490613397565b80156110615780601f1061103657610100808354040283529160200191611061565b820191906000526020600020905b81548152906001019060200180831161104457829003601f168201915b5050505050905090565b611073611a88565b73ffffffffffffffffffffffffffffffffffffffff168273ffffffffffffffffffffffffffffffffffffffff1614156110e1576040517f08c379a00000000000000000000000000000000000000000000000000000000081526004016110d890613b35565b60405180910390fd5b80600560006110ee611a88565b73ffffffffffffffffffffffffffffffffffffffff1673ffffffffffffffffffffffffffffffffffffffff16815260200190815260200160002060008473ffffffffffffffffffffffffffffffffffffffff1673ffffffffffffffffffffffffffffffffffffffff16815260200190815260200160002060006101000a81548160ff0219169083151502179055508173ffffffffffffffffffffffffffffffffffffffff1661119b611a88565b73ffffffffffffffffffffffffffffffffffffffff167f17307eab39ab6107e8899845ad3d59bd9653f200f220920489ca2b5937696c31836040516111e09190612bb4565b60405180910390a35050565b600b8180516020810182018051848252602083016020850120818352809550505050505060009150905080600001805461122590613397565b80601f016020809104026020016040519081016040528092919081815260200182805461125190613397565b801561129e5780601f106112735761010080835404028352916020019161129e565b820191906000526020600020905b81548152906001019060200180831161128157829003601f168201915b5050505050908060010154908060020160009054906101000a900460ff16905083565b6112d26112cc611a88565b83611b49565b611311576040517f08c379a000000000000000000000000000000000000000000000000000000000815260040161130890613815565b60405180910390fd5b61131d84848484611f49565b50505050565b60606000600d805461133490613397565b80601f016020809104026020016040519081016040528092919081815260200182805461136090613397565b80156113ad5780601f10611382576101008083540402835291602001916113ad565b820191906000526020600020905b81548152906001019060200180831161139057829003601f168201915b5050505050905060008151116113ec57806113c784611fa5565b6040516020016113d8929190613b86565b604051602081830303815290604052611478565b600d80546113f990613397565b80601f016020809104026020016040519081016040528092919081815260200182805461142590613397565b80156114725780601f1061144757610100808354040283529160200191611472565b820191906000526020600020905b81548152906001019060200180831161145557829003601f168201915b50505050505b915050919050565b60011515600a60149054906101000a900460ff161515146114d6576040517f08c379a00000000000000000000000000000000000000000000000000000000081526004016114cd90613bf6565b60405180910390fd5b8060011515600b826040516114eb9190613c16565b908152602001604051809103902060020160009054906101000a900460ff1615151461154c576040517f08c379a000000000000000000000000000000000000000000000000000000000815260040161154390613c79565b60405180910390fd5b61157733600b846040516115609190613c16565b908152602001604051809103902060010154612125565b6000600b836040516115899190613c16565b908152602001604051809103902060020160006101000a81548160ff021916908315150217905550600b826040516115c19190613c16565b9081526020016040518091039020600101543373ffffffffffffffffffffffffffffffffffffffff167fb9144c96c86541f6fa89c9f2f02495cccf4b08cd6643e26d34ee00aa586558a860405160405180910390a37fe28f796197026955b9c28cbe8b2fb9d8251cf2e5df7ee76651f41340e0d48cd960405160405180910390a15050565b61164e611a88565b73ffffffffffffffffffffffffffffffffffffffff1661166c610ed9565b73ffffffffffffffffffffffffffffffffffffffff16146116c2576040517f08c379a00000000000000000000000000000000000000000000000000000000081526004016116b9906135cb565b60405180910390fd5b8181600d91906116d3929190612a5d565b5081816040516116e4929190613741565b60405180910390207f3d25540fafb277423a5c9552c25096f7c0c69178c044fd61c947046f08fb09ca60405160405180910390a25050565b6060600c805461172b90613397565b80601f016020809104026020016040519081016040528092919081815260200182805461175790613397565b80156117a45780601f10611779576101008083540402835291602001916117a4565b820191906000526020600020905b81548152906001019060200180831161178757829003601f168201915b5050505050905090565b6000600560008473ffffffffffffffffffffffffffffffffffffffff1673ffffffffffffffffffffffffffffffffffffffff16815260200190815260200160002060008373ffffffffffffffffffffffffffffffffffffffff1673ffffffffffffffffffffffffffffffffffffffff16815260200190815260200160002060009054906101000a900460ff16905092915050565b61184a611a88565b73ffffffffffffffffffffffffffffffffffffffff16611868610ed9565b73ffffffffffffffffffffffffffffffffffffffff16146118be576040517f08c379a00000000000000000000000000000000000000000000000000000000081526004016118b5906135cb565b60405180910390fd5b600073ffffffffffffffffffffffffffffffffffffffff168173ffffffffffffffffffffffffffffffffffffffff16141561192e576040517f08c379a000000000000000000000000000000000000000000000000000000000815260040161192590613d0b565b60405180910390fd5b61193781611e83565b50565b60007f80ac58cd000000000000000000000000000000000000000000000000000000007bffffffffffffffffffffffffffffffffffffffffffffffffffffffff1916827bffffffffffffffffffffffffffffffffffffffffffffffffffffffff19161480611a0557507f5b5e139f000000000000000000000000000000000000000000000000000000007bffffffffffffffffffffffffffffffffffffffffffffffffffffffff1916827bffffffffffffffffffffffffffffffffffffffffffffffffffffffff1916145b80611a155750611a1482612143565b5b9050919050565b60008073ffffffffffffffffffffffffffffffffffffffff166002600084815260200190815260200160002060009054906101000a900473ffffffffffffffffffffffffffffffffffffffff1673ffffffffffffffffffffffffffffffffffffffff1614159050919050565b600033905090565b816004600083815260200190815260200160002060006101000a81548173ffffffffffffffffffffffffffffffffffffffff021916908373ffffffffffffffffffffffffffffffffffffffff160217905550808273ffffffffffffffffffffffffffffffffffffffff16611b0383610ce7565b73ffffffffffffffffffffffffffffffffffffffff167f8c5be1e5ebec7d5bd14f71427d1e84f3dd0314c0f7b2291e5b200ac8c7c3b92560405160405180910390a45050565b6000611b5482611a1c565b611b93576040517f08c379a0000000000000000000000000000000000000000000000000000000008152600401611b8a90613d9d565b60405180910390fd5b6000611b9e83610ce7565b90508073ffffffffffffffffffffffffffffffffffffffff168473ffffffffffffffffffffffffffffffffffffffff161480611c0d57508373ffffffffffffffffffffffffffffffffffffffff16611bf58461067b565b73ffffffffffffffffffffffffffffffffffffffff16145b80611c1e5750611c1d81856117ae565b5b91505092915050565b8273ffffffffffffffffffffffffffffffffffffffff16611c4782610ce7565b73ffffffffffffffffffffffffffffffffffffffff1614611c9d576040517f08c379a0000000000000000000000000000000000000000000000000000000008152600401611c9490613e2f565b60405180910390fd5b600073ffffffffffffffffffffffffffffffffffffffff168273ffffffffffffffffffffffffffffffffffffffff161415611d0d576040517f08c379a0000000000000000000000000000000000000000000000000000000008152600401611d0490613ec1565b60405180910390fd5b611d188383836121ad565b611d23600082611a90565b6001600360008573ffffffffffffffffffffffffffffffffffffffff1673ffffffffffffffffffffffffffffffffffffffff1681526020019081526020016000206000828254611d739190613ee1565b925050819055506001600360008473ffffffffffffffffffffffffffffffffffffffff1673ffffffffffffffffffffffffffffffffffffffff1681526020019081526020016000206000828254611dca91906136bb565b92505081905550816002600083815260200190815260200160002060006101000a81548173ffffffffffffffffffffffffffffffffffffffff021916908373ffffffffffffffffffffffffffffffffffffffff160217905550808273ffffffffffffffffffffffffffffffffffffffff168473ffffffffffffffffffffffffffffffffffffffff167fddf252ad1be2c89b69c2b068fc378daa952ba7f163c4a11628f55a4df523b3ef60405160405180910390a4505050565b6000600a60009054906101000a900473ffffffffffffffffffffffffffffffffffffffff16905081600a60006101000a81548173ffffffffffffffffffffffffffffffffffffffff021916908373ffffffffffffffffffffffffffffffffffffffff1602179055508173ffffffffffffffffffffffffffffffffffffffff168173ffffffffffffffffffffffffffffffffffffffff167f8be0079c531659141344cd1fd0a4f28419497f9722a3daafe3b4186f6b6457e060405160405180910390a35050565b611f54848484611c27565b611f60848484846122c1565b611f9f576040517f08c379a0000000000000000000000000000000000000000000000000000000008152600401611f9690613f87565b60405180910390fd5b50505050565b60606000821415611fed576040518060400160405280600181526020017f30000000000000000000000000000000000000000000000000000000000000008152509050612120565b600082905060005b6000821461201f5780806120089061375a565b915050600a826120189190613fd6565b9150611ff5565b60008167ffffffffffffffff81111561203b5761203a613052565b5b6040519080825280601f01601f19166020018201604052801561206d5781602001600182028036833780820191505090505b5090505b60008514612119576001826120869190613ee1565b9150600a856120959190614007565b60306120a191906136bb565b7f0100000000000000000000000000000000000000000000000000000000000000028183815181106120d6576120d56135eb565b5b60200101907effffffffffffffffffffffffffffffffffffffffffffffffffffffffffffff1916908160001a905350600a856121129190613fd6565b9450612071565b8093505050505b919050565b61213f828260405180602001604052806000815250612490565b5050565b60007f01ffc9a7000000000000000000000000000000000000000000000000000000007bffffffffffffffffffffffffffffffffffffffffffffffffffffffff1916827bffffffffffffffffffffffffffffffffffffffffffffffffffffffff1916149050919050565b6121b88383836124eb565b600073ffffffffffffffffffffffffffffffffffffffff168373ffffffffffffffffffffffffffffffffffffffff1614156121fb576121f6816124f0565b61223a565b8173ffffffffffffffffffffffffffffffffffffffff168373ffffffffffffffffffffffffffffffffffffffff1614612239576122388382612539565b5b5b600073ffffffffffffffffffffffffffffffffffffffff168273ffffffffffffffffffffffffffffffffffffffff16141561227d57612278816126a6565b6122bc565b8273ffffffffffffffffffffffffffffffffffffffff168273ffffffffffffffffffffffffffffffffffffffff16146122bb576122ba8282612777565b5b5b505050565b60006122e28473ffffffffffffffffffffffffffffffffffffffff166127f6565b15612483578373ffffffffffffffffffffffffffffffffffffffff1663150b7a0261230b611a88565b8786866040518563ffffffff167c0100000000000000000000000000000000000000000000000000000000028152600401612349949392919061408d565b602060405180830381600087803b15801561236357600080fd5b505af192505050801561239457506040513d601f19601f8201168201806040525081019061239191906140ee565b60015b612417573d80600081146123c4576040519150601f19603f3d011682016040523d82523d6000602084013e6123c9565b606091505b5060008151141561240f576040517f08c379a000000000000000000000000000000000000000000000000000000000815260040161240690613f87565b60405180910390fd5b805181602001fd5b63150b7a027c0100000000000000000000000000000000000000000000000000000000027bffffffffffffffffffffffffffffffffffffffffffffffffffffffff1916817bffffffffffffffffffffffffffffffffffffffffffffffffffffffff191614915050612488565b600190505b949350505050565b61249a8383612809565b6124a760008484846122c1565b6124e6576040517f08c379a00000000000000000000000000000000000000000000000000000000081526004016124dd90613f87565b60405180910390fd5b505050565b505050565b6008805490506009600083815260200190815260200160002081905550600881908060018154018082558091505060019003906000526020600020016000909190919091505550565b6000600161254684610d99565b6125509190613ee1565b9050600060076000848152602001908152602001600020549050818114612635576000600660008673ffffffffffffffffffffffffffffffffffffffff1673ffffffffffffffffffffffffffffffffffffffff168152602001908152602001600020600084815260200190815260200160002054905080600660008773ffffffffffffffffffffffffffffffffffffffff1673ffffffffffffffffffffffffffffffffffffffff168152602001908152602001600020600084815260200190815260200160002081905550816007600083815260200190815260200160002081905550505b6007600084815260200190815260200160002060009055600660008573ffffffffffffffffffffffffffffffffffffffff1673ffffffffffffffffffffffffffffffffffffffff16815260200190815260200160002060008381526020019081526020016000206000905550505050565b600060016008805490506126ba9190613ee1565b90506000600960008481526020019081526020016000205490506000600883815481106126ea576126e96135eb565b5b90600052602060002001549050806008838154811061270c5761270b6135eb565b5b90600052602060002001819055508160096000838152602001908152602001600020819055506009600085815260200190815260200160002060009055600880548061275b5761275a61411b565b5b6001900381819060005260206000200160009055905550505050565b600061278283610d99565b905081600660008573ffffffffffffffffffffffffffffffffffffffff1673ffffffffffffffffffffffffffffffffffffffff168152602001908152602001600020600083815260200190815260200160002081905550806007600084815260200190815260200160002081905550505050565b600080823b905060008111915050919050565b600073ffffffffffffffffffffffffffffffffffffffff168273ffffffffffffffffffffffffffffffffffffffff161415612879576040517f08c379a000000000000000000000000000000000000000000000000000000000815260040161287090614196565b60405180910390fd5b61288281611a1c565b156128c2576040517f08c379a00000000000000000000000000000000000000000000000000000000081526004016128b990614202565b60405180910390fd5b6128ce600083836121ad565b6001600360008473ffffffffffffffffffffffffffffffffffffffff1673ffffffffffffffffffffffffffffffffffffffff168152602001908152602001600020600082825461291e91906136bb565b92505081905550816002600083815260200190815260200160002060006101000a81548173ffffffffffffffffffffffffffffffffffffffff021916908373ffffffffffffffffffffffffffffffffffffffff160217905550808273ffffffffffffffffffffffffffffffffffffffff16600073ffffffffffffffffffffffffffffffffffffffff167fddf252ad1be2c89b69c2b068fc378daa952ba7f163c4a11628f55a4df523b3ef60405160405180910390a45050565b8280546129e390613397565b90600052602060002090601f016020900481019282612a055760008555612a4c565b82601f10612a1e57805160ff1916838001178555612a4c565b82800160010185558215612a4c579182015b82811115612a4b578251825591602001919060010190612a30565b5b509050612a599190612ae3565b5090565b828054612a6990613397565b90600052602060002090601f016020900481019282612a8b5760008555612ad2565b82601f10612aa457803560ff1916838001178555612ad2565b82800160010185558215612ad2579182015b82811115612ad1578235825591602001919060010190612ab6565b5b509050612adf9190612ae3565b5090565b5b80821115612afc576000816000905550600101612ae4565b5090565b6000604051905090565b600080fd5b600080fd5b60007fffffffff0000000000000000000000000000000000000000000000000000000082169050919050565b612b4981612b14565b8114612b5457600080fd5b50565b600081359050612b6681612b40565b92915050565b600060208284031215612b8257612b81612b0a565b5b6000612b9084828501612b57565b91505092915050565b60008115159050919050565b612bae81612b99565b82525050565b6000602082019050612bc96000830184612ba5565b92915050565b600081519050919050565b600082825260208201905092915050565b60005b83811015612c09578082015181840152602081019050612bee565b83811115612c18576000848401525b50505050565b6000601f19601f8301169050919050565b6000612c3a82612bcf565b612c448185612bda565b9350612c54818560208601612beb565b612c5d81612c1e565b840191505092915050565b60006020820190508181036000830152612c828184612c2f565b905092915050565b6000819050919050565b612c9d81612c8a565b8114612ca857600080fd5b50565b600081359050612cba81612c94565b92915050565b600060208284031215612cd657612cd5612b0a565b5b6000612ce484828501612cab565b91505092915050565b600073ffffffffffffffffffffffffffffffffffffffff82169050919050565b6000612d1882612ced565b9050919050565b612d2881612d0d565b82525050565b6000602082019050612d436000830184612d1f565b92915050565b612d5281612d0d565b8114612d5d57600080fd5b50565b600081359050612d6f81612d49565b92915050565b60008060408385031215612d8c57612d8b612b0a565b5b6000612d9a85828601612d60565b9250506020612dab85828601612cab565b9150509250929050565b600080fd5b600080fd5b600080fd5b60008083601f840112612dda57612dd9612db5565b5b8235905067ffffffffffffffff811115612df757612df6612dba565b5b602083019150836020820283011115612e1357612e12612dbf565b5b9250929050565b60008060208385031215612e3157612e30612b0a565b5b600083013567ffffffffffffffff811115612e4f57612e4e612b0f565b5b612e5b85828601612dc4565b92509250509250929050565b612e7081612c8a565b82525050565b6000602082019050612e8b6000830184612e67565b92915050565b600080600060608486031215612eaa57612ea9612b0a565b5b6000612eb886828701612d60565b9350506020612ec986828701612d60565b9250506040612eda86828701612cab565b9150509250925092565b612eed81612b99565b8114612ef857600080fd5b50565b600081359050612f0a81612ee4565b92915050565b600060208284031215612f2657612f25612b0a565b5b6000612f3484828501612efb565b91505092915050565b600060208284031215612f5357612f52612b0a565b5b6000612f6184828501612d60565b91505092915050565b60008083601f840112612f8057612f7f612db5565b5b8235905067ffffffffffffffff811115612f9d57612f9c612dba565b5b602083019150836001820283011115612fb957612fb8612dbf565b5b9250929050565b60008060208385031215612fd757612fd6612b0a565b5b600083013567ffffffffffffffff811115612ff557612ff4612b0f565b5b61300185828601612f6a565b92509250509250929050565b6000806040838503121561302457613023612b0a565b5b600061303285828601612d60565b925050602061304385828601612efb565b9150509250929050565b600080fd5b7f4e487b7100000000000000000000000000000000000000000000000000000000600052604160045260246000fd5b61308a82612c1e565b810181811067ffffffffffffffff821117156130a9576130a8613052565b5b80604052505050565b60006130bc612b00565b90506130c88282613081565b919050565b600067ffffffffffffffff8211156130e8576130e7613052565b5b6130f182612c1e565b9050602081019050919050565b82818337600083830152505050565b600061312061311b846130cd565b6130b2565b90508281526020810184848401111561313c5761313b61304d565b5b6131478482856130fe565b509392505050565b600082601f83011261316457613163612db5565b5b813561317484826020860161310d565b91505092915050565b60006020828403121561319357613192612b0a565b5b600082013567ffffffffffffffff8111156131b1576131b0612b0f565b5b6131bd8482850161314f565b91505092915050565b600060608201905081810360008301526131e08186612c2f565b90506131ef6020830185612e67565b6131fc6040830184612ba5565b949350505050565b600067ffffffffffffffff82111561321f5761321e613052565b5b61322882612c1e565b9050602081019050919050565b600061324861324384613204565b6130b2565b9050828152602081018484840111156132645761326361304d565b5b61326f8482856130fe565b509392505050565b600082601f83011261328c5761328b612db5565b5b813561329c848260208601613235565b91505092915050565b600080600080608085870312156132bf576132be612b0a565b5b60006132cd87828801612d60565b94505060206132de87828801612d60565b93505060406132ef87828801612cab565b925050606085013567ffffffffffffffff8111156133105761330f612b0f565b5b61331c87828801613277565b91505092959194509250565b6000806040838503121561333f5761333e612b0a565b5b600061334d85828601612d60565b925050602061335e85828601612d60565b9150509250929050565b7f4e487b7100000000000000000000000000000000000000000000000000000000600052602260045260246000fd5b600060028204905060018216806133af57607f821691505b602082108114156133c3576133c2613368565b5b50919050565b7f4552433732313a20617070726f76656420717565727920666f72206e6f6e657860008201527f697374656e7420746f6b656e0000000000000000000000000000000000000000602082015250565b6000613425602c83612bda565b9150613430826133c9565b604082019050919050565b6000602082019050818103600083015261345481613418565b9050919050565b7f4552433732313a20617070726f76616c20746f2063757272656e74206f776e6560008201527f7200000000000000000000000000000000000000000000000000000000000000602082015250565b60006134b7602183612bda565b91506134c28261345b565b604082019050919050565b600060208201905081810360008301526134e6816134aa565b9050919050565b7f4552433732313a20617070726f76652063616c6c6572206973206e6f74206f7760008201527f6e6572206e6f7220617070726f76656420666f7220616c6c0000000000000000602082015250565b6000613549603883612bda565b9150613554826134ed565b604082019050919050565b600060208201905081810360008301526135788161353c565b9050919050565b7f4f776e61626c653a2063616c6c6572206973206e6f7420746865206f776e6572600082015250565b60006135b5602083612bda565b91506135c08261357f565b602082019050919050565b600060208201905081810360008301526135e4816135a8565b9050919050565b7f4e487b7100000000000000000000000000000000000000000000000000000000600052603260045260246000fd5b600080fd5b600080fd5b600080fd5b600080833560016020038436030381126136465761364561361a565b5b80840192508235915067ffffffffffffffff8211156136685761366761361f565b5b60208301925060018202360383131561368457613683613624565b5b509250929050565b7f4e487b7100000000000000000000000000000000000000000000000000000000600052601160045260246000fd5b60006136c682612c8a565b91506136d183612c8a565b9250827fffffffffffffffffffffffffffffffffffffffffffffffffffffffffffffffff038211156137065761370561368c565b5b828201905092915050565b600081905092915050565b60006137288385613711565b93506137358385846130fe565b82840190509392505050565b600061374e82848661371c565b91508190509392505050565b600061376582612c8a565b91507fffffffffffffffffffffffffffffffffffffffffffffffffffffffffffffffff8214156137985761379761368c565b5b600182019050919050565b7f4552433732313a207472616e736665722063616c6c6572206973206e6f74206f60008201527f776e6572206e6f7220617070726f766564000000000000000000000000000000602082015250565b60006137ff603183612bda565b915061380a826137a3565b604082019050919050565b6000602082019050818103600083015261382e816137f2565b9050919050565b7f496e707574206d6174636865732063757272656e742073746174650000000000600082015250565b600061386b601b83612bda565b915061387682613835565b602082019050919050565b6000602082019050818103600083015261389a8161385e565b9050919050565b7f455243373231456e756d657261626c653a206f776e657220696e646578206f7560008201527f74206f6620626f756e6473000000000000000000000000000000000000000000602082015250565b60006138fd602b83612bda565b9150613908826138a1565b604082019050919050565b6000602082019050818103600083015261392c816138f0565b9050919050565b7f455243373231456e756d657261626c653a20676c6f62616c20696e646578206f60008201527f7574206f6620626f756e64730000000000000000000000000000000000000000602082015250565b600061398f602c83612bda565b915061399a82613933565b604082019050919050565b600060208201905081810360008301526139be81613982565b9050919050565b7f4552433732313a206f776e657220717565727920666f72206e6f6e657869737460008201527f656e7420746f6b656e0000000000000000000000000000000000000000000000602082015250565b6000613a21602983612bda565b9150613a2c826139c5565b604082019050919050565b60006020820190508181036000830152613a5081613a14565b9050919050565b7f4552433732313a2062616c616e636520717565727920666f7220746865207a6560008201527f726f206164647265737300000000000000000000000000000000000000000000602082015250565b6000613ab3602a83612bda565b9150613abe82613a57565b604082019050919050565b60006020820190508181036000830152613ae281613aa6565b9050919050565b7f4552433732313a20617070726f766520746f2063616c6c657200000000000000600082015250565b6000613b1f601983612bda565b9150613b2a82613ae9565b602082019050919050565b60006020820190508181036000830152613b4e81613b12565b9050919050565b6000613b6082612bcf565b613b6a8185613711565b9350613b7a818560208601612beb565b80840191505092915050565b6000613b928285613b55565b9150613b9e8284613b55565b91508190509392505050565b7f436f6e7472616374204973204e6f742041637469766500000000000000000000600082015250565b6000613be0601683612bda565b9150613beb82613baa565b602082019050919050565b60006020820190508181036000830152613c0f81613bd3565b9050919050565b6000613c228284613b55565b915081905092915050565b7f436f6465204973204e6f74204163746976650000000000000000000000000000600082015250565b6000613c63601283612bda565b9150613c6e82613c2d565b602082019050919050565b60006020820190508181036000830152613c9281613c56565b9050919050565b7f4f776e61626c653a206e6577206f776e657220697320746865207a65726f206160008201527f6464726573730000000000000000000000000000000000000000000000000000602082015250565b6000613cf5602683612bda565b9150613d0082613c99565b604082019050919050565b60006020820190508181036000830152613d2481613ce8565b9050919050565b7f4552433732313a206f70657261746f7220717565727920666f72206e6f6e657860008201527f697374656e7420746f6b656e0000000000000000000000000000000000000000602082015250565b6000613d87602c83612bda565b9150613d9282613d2b565b604082019050919050565b60006020820190508181036000830152613db681613d7a565b9050919050565b7f4552433732313a207472616e73666572206f6620746f6b656e2074686174206960008201527f73206e6f74206f776e0000000000000000000000000000000000000000000000602082015250565b6000613e19602983612bda565b9150613e2482613dbd565b604082019050919050565b60006020820190508181036000830152613e4881613e0c565b9050919050565b7f4552433732313a207472616e7366657220746f20746865207a65726f2061646460008201527f7265737300000000000000000000000000000000000000000000000000000000602082015250565b6000613eab602483612bda565b9150613eb682613e4f565b604082019050919050565b60006020820190508181036000830152613eda81613e9e565b9050919050565b6000613eec82612c8a565b9150613ef783612c8a565b925082821015613f0a57613f0961368c565b5b828203905092915050565b7f4552433732313a207472616e7366657220746f206e6f6e20455243373231526560008201527f63656976657220696d706c656d656e7465720000000000000000000000000000602082015250565b6000613f71603283612bda565b9150613f7c82613f15565b604082019050919050565b60006020820190508181036000830152613fa081613f64565b9050919050565b7f4e487b7100000000000000000000000000000000000000000000000000000000600052601260045260246000fd5b6000613fe182612c8a565b9150613fec83612c8a565b925082613ffc57613ffb613fa7565b5b828204905092915050565b600061401282612c8a565b915061401d83612c8a565b92508261402d5761402c613fa7565b5b828206905092915050565b600081519050919050565b600082825260208201905092915050565b600061405f82614038565b6140698185614043565b9350614079818560208601612beb565b61408281612c1e565b840191505092915050565b60006080820190506140a26000830187612d1f565b6140af6020830186612d1f565b6140bc6040830185612e67565b81810360608301526140ce8184614054565b905095945050505050565b6000815190506140e881612b40565b92915050565b60006020828403121561410457614103612b0a565b5b6000614112848285016140d9565b91505092915050565b7f4e487b7100000000000000000000000000000000000000000000000000000000600052603160045260246000fd5b7f4552433732313a206d696e7420746f20746865207a65726f2061646472657373600082015250565b6000614180602083612bda565b915061418b8261414a565b602082019050919050565b600060208201905081810360008301526141af81614173565b9050919050565b7f4552433732313a20746f6b656e20616c7265616479206d696e74656400000000600082015250565b60006141ec601c83612bda565b91506141f7826141b6565b602082019050919050565b6000602082019050818103600083015261421b816141df565b905091905056fea2646970667358221220db35df5fc9216a16110ede5fea8422ab2db94eaa2eac26e764f96cdd6653095164736f6c63430008090033",
  "immutableReferences": {},
  "source": "// SPDX-License-Identifier: MIT\npragma solidity >=0.7.0 <0.9.0;\n\nimport \"@openzeppelin/contracts/token/ERC721/extensions/ERC721Enumerable.sol\";\nimport \"@openzeppelin/contracts/access/Ownable.sol\";\nimport \"@openzeppelin/contracts/utils/Strings.sol\";\nimport \"./ISneaker.sol\";\nimport \"./ISneakerMetadata.sol\";\n\ncontract SneakerTokenThree is ERC721Enumerable, Ownable, ISneaker, ISneakerMetadata {\n    using Strings for uint256;\n\n    struct Sneaker {\n        string code;\n        uint256 tokenId;\n        bool active;\n    }\n\n    /// @dev State variable to control when minting is allowed.\n    bool public isActive = false;\n\n    mapping(string => Sneaker) public sneakerList;\n\n    string private _contractURI = '';\n    string private _tokenURI = '';\n\n    /// @dev Function modifier to require an active contract status.\n    modifier activeContract() {\n      require(isActive == true, 'Contract Is Not Active');\n      _;\n    }\n\n    /// @dev Function modifier to require an active confirmation code.\n    modifier activeCode(string memory confCode){\n      require(sneakerList[confCode].active == true, 'Code Is Not Active');\n      _;\n    }\n\n    /*\n     * Functions\n     */\n\n    /// @dev Contract constructor sets name and symbol for the sneaker token.\n    /// @param name is the name of the sneaker token\n    /// @param symbol is the symbol of the sneaker token\n    constructor(string memory name, string memory symbol)\n        ERC721(name, symbol)\n    {\n    }\n\n    /// @dev Allows the owner to add confirmation codes to the list.\n    /// @param confList List of confirmation codes.\n    function addToConfList(string[] calldata confList) external override onlyOwner {\n        for(uint i = 0; i < confList.length; i++) {\n            sneakerList[confList[i]] = Sneaker({\n                code: confList[i],\n                tokenId: i + 1,\n                active: true\n            });\n        }\n        emit SneakerListUpdated();\n    }\n\n    /// @dev Allows anyone with a valid confirmation code to mint a token.\n    /// @param confCode Confirmation code.\n    function mint(string memory confCode) public activeContract activeCode(confCode) {\n        _safeMint(msg.sender, sneakerList[confCode].tokenId);\n        sneakerList[confCode].active = false;\n        emit TokenMinted(msg.sender, sneakerList[confCode].tokenId);\n        emit SneakerListUpdated();\n    }\n\n    /// @dev Allows the owner to set the isActive variable.\n    /// @param _isActive Active state of the contract.\n    function setIsActive(bool _isActive) external override onlyOwner {\n        require(isActive != _isActive, \"Input matches current state\");\n        isActive = _isActive;\n        emit ContractActive(isActive);\n    }\n\n    /// @dev Allows the owner to set the Contract URI.\n    /// @param URI Contract URI.\n    function setContractURI(string calldata URI) external override onlyOwner {\n        _contractURI = URI;\n        emit ContractURIUpdated(URI);\n    }\n\n    /// @dev Allows the owner to set the Token URI.\n    /// @param URI Token URI.\n    function setTokenURI(string calldata URI) external override onlyOwner {\n        _tokenURI = URI;\n        emit TokenURIUpdated(URI);\n    }\n\n    /// @dev Allows anyone to get the Contract URI.\n    /// @return Contract URI.\n    function contractURI() public view returns (string memory) {\n        return _contractURI;\n    }\n\n    function tokenURI(uint256 tokenId) public view override(ERC721) returns (string memory) {\n        /// @dev Convert string to bytes so we can check if it's empty or not.\n        string memory revealedBaseURI = _tokenURI;\n        return bytes(revealedBaseURI).length > 0 ? _tokenURI :\n            string(abi.encodePacked(revealedBaseURI, tokenId.toString()));\n    }\n}",
  "sourcePath": "/home/aktutia/codes/blockchain-developer-bootcamp-final-project/contracts/SneakerTokenThree.sol",
  "compiler": {
    "name": "solc",
    "version": "0.8.9+commit.e5eed63a.Emscripten.clang"
  },
  "schemaVersion": "3.4.3",
  "updatedAt": "2021-11-09T03:45:17.587Z",
  "networkType": "ethereum",
  "devdoc": {
    "kind": "dev",
    "methods": {
      "addToConfList(string[])": {
        "details": "Allows the owner to add confirmation codes to the list.",
        "params": {
          "confList": "List of confirmation codes."
        }
      },
      "approve(address,uint256)": {
        "details": "See {IERC721-approve}."
      },
      "balanceOf(address)": {
        "details": "See {IERC721-balanceOf}."
      },
      "constructor": {
        "details": "Contract constructor sets name and symbol for the sneaker token.",
        "params": {
          "name": "is the name of the sneaker token",
          "symbol": "is the symbol of the sneaker token"
        }
      },
      "contractURI()": {
        "details": "Allows anyone to get the Contract URI.",
        "returns": {
          "_0": "Contract URI."
        }
      },
      "getApproved(uint256)": {
        "details": "See {IERC721-getApproved}."
      },
      "isApprovedForAll(address,address)": {
        "details": "See {IERC721-isApprovedForAll}."
      },
      "mint(string)": {
        "details": "Allows anyone with a valid confirmation code to mint a token.",
        "params": {
          "confCode": "Confirmation code."
        }
      },
      "name()": {
        "details": "See {IERC721Metadata-name}."
      },
      "owner()": {
        "details": "Returns the address of the current owner."
      },
      "ownerOf(uint256)": {
        "details": "See {IERC721-ownerOf}."
      },
      "renounceOwnership()": {
        "details": "Leaves the contract without owner. It will not be possible to call `onlyOwner` functions anymore. Can only be called by the current owner. NOTE: Renouncing ownership will leave the contract without an owner, thereby removing any functionality that is only available to the owner."
      },
      "safeTransferFrom(address,address,uint256)": {
        "details": "See {IERC721-safeTransferFrom}."
      },
      "safeTransferFrom(address,address,uint256,bytes)": {
        "details": "See {IERC721-safeTransferFrom}."
      },
      "setApprovalForAll(address,bool)": {
        "details": "See {IERC721-setApprovalForAll}."
      },
      "setContractURI(string)": {
        "details": "Allows the owner to set the Contract URI.",
        "params": {
          "URI": "Contract URI."
        }
      },
      "setIsActive(bool)": {
        "details": "Allows the owner to set the isActive variable.",
        "params": {
          "_isActive": "Active state of the contract."
        }
      },
      "setTokenURI(string)": {
        "details": "Allows the owner to set the Token URI.",
        "params": {
          "URI": "Token URI."
        }
      },
      "supportsInterface(bytes4)": {
        "details": "See {IERC165-supportsInterface}."
      },
      "symbol()": {
        "details": "See {IERC721Metadata-symbol}."
      },
      "tokenByIndex(uint256)": {
        "details": "See {IERC721Enumerable-tokenByIndex}."
      },
      "tokenOfOwnerByIndex(address,uint256)": {
        "details": "See {IERC721Enumerable-tokenOfOwnerByIndex}."
      },
      "tokenURI(uint256)": {
        "details": "See {IERC721Metadata-tokenURI}."
      },
      "totalSupply()": {
        "details": "See {IERC721Enumerable-totalSupply}."
      },
      "transferFrom(address,address,uint256)": {
        "details": "See {IERC721-transferFrom}."
      },
      "transferOwnership(address)": {
        "details": "Transfers ownership of the contract to a new account (`newOwner`). Can only be called by the current owner."
      }
    },
    "stateVariables": {
      "isActive": {
        "details": "State variable to control when minting is allowed."
      }
    },
    "version": 1
  },
  "userdoc": {
    "kind": "user",
    "methods": {},
    "version": 1
  }
}