{
  "contractName": "SneakerDrop",
  "abi": [
    {
      "anonymous": false,
      "inputs": [
        {
          "indexed": false,
          "internalType": "address",
          "name": "contractAddress",
          "type": "address"
        }
      ],
      "name": "newSneakerContract",
      "type": "event"
    },
    {
      "inputs": [
        {
          "internalType": "uint256",
          "name": "",
          "type": "uint256"
        }
      ],
      "name": "contracts",
      "outputs": [
        {
          "internalType": "address",
          "name": "",
          "type": "address"
        }
      ],
      "stateMutability": "view",
      "type": "function",
      "constant": true
    },
    {
      "inputs": [],
      "name": "lastContractAddress",
      "outputs": [
        {
          "internalType": "address",
          "name": "",
          "type": "address"
        }
      ],
      "stateMutability": "view",
      "type": "function",
      "constant": true
    },
    {
      "inputs": [
        {
          "internalType": "string",
          "name": "_name",
          "type": "string"
        },
        {
          "internalType": "string",
          "name": "_symbol",
          "type": "string"
        }
      ],
      "name": "newSneaker",
      "outputs": [
        {
          "internalType": "address",
          "name": "newContract",
          "type": "address"
        }
      ],
      "stateMutability": "nonpayable",
      "type": "function"
    }
  ],
  "bytecode": "0x608060405234801561001057600080fd5b50613d49806100206000396000f3fe60806040523480156200001157600080fd5b506004361062000063576000357c010000000000000000000000000000000000000000000000000000000090048063327097381462000068578063474da79a146200008a578063d2365b4214620000c0575b600080fd5b62000072620000f6565b6040516200008191906200042f565b60405180910390f35b620000a86004803603810190620000a29190620003ab565b6200011c565b604051620000b791906200042f565b60405180910390f35b620000de6004803603810190620000d8919062000326565b6200015c565b604051620000ed91906200042f565b60405180910390f35b600160009054906101000a900473ffffffffffffffffffffffffffffffffffffffff1681565b600081815481106200012d57600080fd5b906000526020600020016000915054906101000a900473ffffffffffffffffffffffffffffffffffffffff1681565b60008083836040516200016f9062000283565b6200017c9291906200044c565b604051809103906000f08015801562000199573d6000803e3d6000fd5b5090506000819080600181540180825580915050600190039060005260206000200160009091909190916101000a81548173ffffffffffffffffffffffffffffffffffffffff021916908373ffffffffffffffffffffffffffffffffffffffff16021790555080600160006101000a81548173ffffffffffffffffffffffffffffffffffffffff021916908373ffffffffffffffffffffffffffffffffffffffff1602179055507fa8861545f8116abc90522eba660d5e196d6d459e5e59341742b8e4f61775eee9816040516200027191906200042f565b60405180910390a18091505092915050565b6136ea806200062a83390190565b6000620002a8620002a284620004b0565b62000487565b905082815260208101848484011115620002c757620002c6620005ef565b5b620002d484828562000540565b509392505050565b600082601f830112620002f457620002f3620005ea565b5b81356200030684826020860162000291565b91505092915050565b60008135905062000320816200060f565b92915050565b6000806040838503121562000340576200033f620005f9565b5b600083013567ffffffffffffffff811115620003615762000360620005f4565b5b6200036f85828601620002dc565b925050602083013567ffffffffffffffff811115620003935762000392620005f4565b5b620003a185828601620002dc565b9150509250929050565b600060208284031215620003c457620003c3620005f9565b5b6000620003d4848285016200030f565b91505092915050565b620003e88162000502565b82525050565b6000620003fb82620004e6565b620004078185620004f1565b9350620004198185602086016200054f565b6200042481620005fe565b840191505092915050565b6000602082019050620004466000830184620003dd565b92915050565b60006040820190508181036000830152620004688185620003ee565b905081810360208301526200047e8184620003ee565b90509392505050565b600062000493620004a6565b9050620004a1828262000585565b919050565b6000604051905090565b600067ffffffffffffffff821115620004ce57620004cd620005bb565b5b620004d982620005fe565b9050602081019050919050565b600081519050919050565b600082825260208201905092915050565b60006200050f8262000516565b9050919050565b600073ffffffffffffffffffffffffffffffffffffffff82169050919050565b6000819050919050565b82818337600083830152505050565b60005b838110156200056f57808201518184015260208101905062000552565b838111156200057f576000848401525b50505050565b6200059082620005fe565b810181811067ffffffffffffffff82111715620005b257620005b1620005bb565b5b80604052505050565b7f4e487b7100000000000000000000000000000000000000000000000000000000600052604160045260246000fd5b600080fd5b600080fd5b600080fd5b600080fd5b6000601f19601f8301169050919050565b6200061a8162000536565b81146200062657600080fd5b5056fe608060405260405180602001604052806000815250600e90805190602001906200002b929190620001ed565b5060405180602001604052806000815250600f908051906020019062000053929190620001ed565b5060405180602001604052806000815250601090805190602001906200007b929190620001ed565b503480156200008957600080fd5b50604051620036ea380380620036ea8339818101604052810190620000af91906200031b565b81818160009080519060200190620000c9929190620001ed565b508060019080519060200190620000e2929190620001ed565b50505062000117620001026200011f640100000000026401000000009004565b62000127640100000000026401000000009004565b505062000524565b600033905090565b6000600a60009054906101000a900473ffffffffffffffffffffffffffffffffffffffff16905081600a60006101000a81548173ffffffffffffffffffffffffffffffffffffffff021916908373ffffffffffffffffffffffffffffffffffffffff1602179055508173ffffffffffffffffffffffffffffffffffffffff168173ffffffffffffffffffffffffffffffffffffffff167f8be0079c531659141344cd1fd0a4f28419497f9722a3daafe3b4186f6b6457e060405160405180910390a35050565b828054620001fb9062000435565b90600052602060002090601f0160209004810192826200021f57600085556200026b565b82601f106200023a57805160ff19168380011785556200026b565b828001600101855582156200026b579182015b828111156200026a5782518255916020019190600101906200024d565b5b5090506200027a91906200027e565b5090565b5b80821115620002995760008160009055506001016200027f565b5090565b6000620002b4620002ae84620003c9565b620003a0565b905082815260208101848484011115620002d357620002d262000504565b5b620002e0848285620003ff565b509392505050565b600082601f8301126200030057620002ff620004ff565b5b8151620003128482602086016200029d565b91505092915050565b600080604083850312156200033557620003346200050e565b5b600083015167ffffffffffffffff81111562000356576200035562000509565b5b6200036485828601620002e8565b925050602083015167ffffffffffffffff81111562000388576200038762000509565b5b6200039685828601620002e8565b9150509250929050565b6000620003ac620003bf565b9050620003ba82826200046b565b919050565b6000604051905090565b600067ffffffffffffffff821115620003e757620003e6620004d0565b5b620003f28262000513565b9050602081019050919050565b60005b838110156200041f57808201518184015260208101905062000402565b838111156200042f576000848401525b50505050565b600060028204905060018216806200044e57607f821691505b60208210811415620004655762000464620004a1565b5b50919050565b620004768262000513565b810181811067ffffffffffffffff82111715620004985762000497620004d0565b5b80604052505050565b7f4e487b7100000000000000000000000000000000000000000000000000000000600052602260045260246000fd5b7f4e487b7100000000000000000000000000000000000000000000000000000000600052604160045260246000fd5b600080fd5b600080fd5b600080fd5b600080fd5b6000601f19601f8301169050919050565b6131b680620005346000396000f3fe608060405234801561001057600080fd5b5060043610610154576000357c01000000000000000000000000000000000000000000000000000000009004806369676548116100d5578063a22cb46511610099578063a22cb4651461036b578063b88d4fde14610387578063c87b56dd146103a3578063d5abeb01146103d3578063e985e9c5146103f1578063f2fde38b1461042157610154565b806369676548146102d957806370a08231146102f5578063715018a6146103255780638da5cb5b1461032f57806395d89b411461034d57610154565b806323b872dd1161011c57806323b872dd146102115780632f745c591461022d57806342842e0e1461025d5780634f6ccce7146102795780636352211e146102a957610154565b806301ffc9a71461015957806306fdde0314610189578063081812fc146101a7578063095ea7b3146101d757806318160ddd146101f3575b600080fd5b610173600480360381019061016e91906121e6565b61043d565b60405161018091906125f8565b60405180910390f35b6101916104b7565b60405161019e9190612613565b60405180910390f35b6101c160048036038101906101bc9190612240565b610549565b6040516101ce9190612591565b60405180910390f35b6101f160048036038101906101ec9190612159565b6105ce565b005b6101fb6106e6565b6040516102089190612835565b60405180910390f35b61022b60048036038101906102269190612043565b6106f3565b005b61024760048036038101906102429190612159565b610753565b6040516102549190612835565b60405180910390f35b61027760048036038101906102729190612043565b6107f8565b005b610293600480360381019061028e9190612240565b610818565b6040516102a09190612835565b60405180910390f35b6102c360048036038101906102be9190612240565b610889565b6040516102d09190612591565b60405180910390f35b6102f360048036038101906102ee9190612199565b61093b565b005b61030f600480360381019061030a9190611fd6565b610a22565b60405161031c9190612835565b60405180910390f35b61032d610ada565b005b610337610b62565b6040516103449190612591565b60405180910390f35b610355610b8c565b6040516103629190612613565b60405180910390f35b61038560048036038101906103809190612119565b610c1e565b005b6103a1600480360381019061039c9190612096565b610d9f565b005b6103bd60048036038101906103b89190612240565b610e01565b6040516103ca9190612613565b60405180910390f35b6103db610ea8565b6040516103e89190612835565b60405180910390f35b61040b60048036038101906104069190612003565b610eae565b60405161041891906125f8565b60405180910390f35b61043b60048036038101906104369190611fd6565b610f42565b005b60007f780e9d63000000000000000000000000000000000000000000000000000000007bffffffffffffffffffffffffffffffffffffffffffffffffffffffff1916827bffffffffffffffffffffffffffffffffffffffffffffffffffffffff191614806104b057506104af8261103a565b5b9050919050565b6060600080546104c690612a5a565b80601f01602080910402602001604051908101604052809291908181526020018280546104f290612a5a565b801561053f5780601f106105145761010080835404028352916020019161053f565b820191906000526020600020905b81548152906001019060200180831161052257829003601f168201915b5050505050905090565b60006105548261111c565b610593576040517f08c379a000000000000000000000000000000000000000000000000000000000815260040161058a90612755565b60405180910390fd5b6004600083815260200190815260200160002060009054906101000a900473ffffffffffffffffffffffffffffffffffffffff169050919050565b60006105d982610889565b90508073ffffffffffffffffffffffffffffffffffffffff168373ffffffffffffffffffffffffffffffffffffffff16141561064a576040517f08c379a0000000000000000000000000000000000000000000000000000000008152600401610641906127d5565b60405180910390fd5b8073ffffffffffffffffffffffffffffffffffffffff16610669611188565b73ffffffffffffffffffffffffffffffffffffffff161480610698575061069781610692611188565b610eae565b5b6106d7576040517f08c379a00000000000000000000000000000000000000000000000000000000081526004016106ce906126f5565b60405180910390fd5b6106e18383611190565b505050565b6000600880549050905090565b6107046106fe611188565b82611249565b610743576040517f08c379a000000000000000000000000000000000000000000000000000000000815260040161073a906127f5565b60405180910390fd5b61074e838383611327565b505050565b600061075e83610a22565b821061079f576040517f08c379a000000000000000000000000000000000000000000000000000000000815260040161079690612635565b60405180910390fd5b600660008473ffffffffffffffffffffffffffffffffffffffff1673ffffffffffffffffffffffffffffffffffffffff168152602001908152602001600020600083815260200190815260200160002054905092915050565b61081383838360405180602001604052806000815250610d9f565b505050565b60006108226106e6565b8210610863576040517f08c379a000000000000000000000000000000000000000000000000000000000815260040161085a90612815565b60405180910390fd5b6008828154811061087757610876612bf3565b5b90600052602060002001549050919050565b6000806002600084815260200190815260200160002060009054906101000a900473ffffffffffffffffffffffffffffffffffffffff169050600073ffffffffffffffffffffffffffffffffffffffff168173ffffffffffffffffffffffffffffffffffffffff161415610932576040517f08c379a000000000000000000000000000000000000000000000000000000000815260040161092990612735565b60405180910390fd5b80915050919050565b610943611188565b73ffffffffffffffffffffffffffffffffffffffff16610961610b62565b73ffffffffffffffffffffffffffffffffffffffff16146109b7576040517f08c379a00000000000000000000000000000000000000000000000000000000081526004016109ae90612775565b60405180910390fd5b60005b82829050811015610a1d576001600c60008585858181106109de576109dd612bf3565b5b90506020020135815260200190815260200160002060006101000a81548160ff0219169083151502179055508080610a1590612abd565b9150506109ba565b505050565b60008073ffffffffffffffffffffffffffffffffffffffff168273ffffffffffffffffffffffffffffffffffffffff161415610a93576040517f08c379a0000000000000000000000000000000000000000000000000000000008152600401610a8a90612715565b60405180910390fd5b600360008373ffffffffffffffffffffffffffffffffffffffff1673ffffffffffffffffffffffffffffffffffffffff168152602001908152602001600020549050919050565b610ae2611188565b73ffffffffffffffffffffffffffffffffffffffff16610b00610b62565b73ffffffffffffffffffffffffffffffffffffffff1614610b56576040517f08c379a0000000000000000000000000000000000000000000000000000000008152600401610b4d90612775565b60405180910390fd5b610b606000611583565b565b6000600a60009054906101000a900473ffffffffffffffffffffffffffffffffffffffff16905090565b606060018054610b9b90612a5a565b80601f0160208091040260200160405190810160405280929190818152602001828054610bc790612a5a565b8015610c145780601f10610be957610100808354040283529160200191610c14565b820191906000526020600020905b815481529060010190602001808311610bf757829003601f168201915b5050505050905090565b610c26611188565b73ffffffffffffffffffffffffffffffffffffffff168273ffffffffffffffffffffffffffffffffffffffff161415610c94576040517f08c379a0000000000000000000000000000000000000000000000000000000008152600401610c8b906126b5565b60405180910390fd5b8060056000610ca1611188565b73ffffffffffffffffffffffffffffffffffffffff1673ffffffffffffffffffffffffffffffffffffffff16815260200190815260200160002060008473ffffffffffffffffffffffffffffffffffffffff1673ffffffffffffffffffffffffffffffffffffffff16815260200190815260200160002060006101000a81548160ff0219169083151502179055508173ffffffffffffffffffffffffffffffffffffffff16610d4e611188565b73ffffffffffffffffffffffffffffffffffffffff167f17307eab39ab6107e8899845ad3d59bd9653f200f220920489ca2b5937696c3183604051610d9391906125f8565b60405180910390a35050565b610db0610daa611188565b83611249565b610def576040517f08c379a0000000000000000000000000000000000000000000000000000000008152600401610de6906127f5565b60405180910390fd5b610dfb84848484611649565b50505050565b6060610e0c8261111c565b610e4b576040517f08c379a0000000000000000000000000000000000000000000000000000000008152600401610e42906127b5565b60405180910390fd5b6000610e556116a5565b90506000815111610e755760405180602001604052806000815250610ea0565b80610e7f846116bc565b604051602001610e9092919061256d565b6040516020818303038152906040525b915050919050565b600b5481565b6000600560008473ffffffffffffffffffffffffffffffffffffffff1673ffffffffffffffffffffffffffffffffffffffff16815260200190815260200160002060008373ffffffffffffffffffffffffffffffffffffffff1673ffffffffffffffffffffffffffffffffffffffff16815260200190815260200160002060009054906101000a900460ff16905092915050565b610f4a611188565b73ffffffffffffffffffffffffffffffffffffffff16610f68610b62565b73ffffffffffffffffffffffffffffffffffffffff1614610fbe576040517f08c379a0000000000000000000000000000000000000000000000000000000008152600401610fb590612775565b60405180910390fd5b600073ffffffffffffffffffffffffffffffffffffffff168173ffffffffffffffffffffffffffffffffffffffff16141561102e576040517f08c379a000000000000000000000000000000000000000000000000000000000815260040161102590612675565b60405180910390fd5b61103781611583565b50565b60007f80ac58cd000000000000000000000000000000000000000000000000000000007bffffffffffffffffffffffffffffffffffffffffffffffffffffffff1916827bffffffffffffffffffffffffffffffffffffffffffffffffffffffff1916148061110557507f5b5e139f000000000000000000000000000000000000000000000000000000007bffffffffffffffffffffffffffffffffffffffffffffffffffffffff1916827bffffffffffffffffffffffffffffffffffffffffffffffffffffffff1916145b8061111557506111148261183c565b5b9050919050565b60008073ffffffffffffffffffffffffffffffffffffffff166002600084815260200190815260200160002060009054906101000a900473ffffffffffffffffffffffffffffffffffffffff1673ffffffffffffffffffffffffffffffffffffffff1614159050919050565b600033905090565b816004600083815260200190815260200160002060006101000a81548173ffffffffffffffffffffffffffffffffffffffff021916908373ffffffffffffffffffffffffffffffffffffffff160217905550808273ffffffffffffffffffffffffffffffffffffffff1661120383610889565b73ffffffffffffffffffffffffffffffffffffffff167f8c5be1e5ebec7d5bd14f71427d1e84f3dd0314c0f7b2291e5b200ac8c7c3b92560405160405180910390a45050565b60006112548261111c565b611293576040517f08c379a000000000000000000000000000000000000000000000000000000000815260040161128a906126d5565b60405180910390fd5b600061129e83610889565b90508073ffffffffffffffffffffffffffffffffffffffff168473ffffffffffffffffffffffffffffffffffffffff16148061130d57508373ffffffffffffffffffffffffffffffffffffffff166112f584610549565b73ffffffffffffffffffffffffffffffffffffffff16145b8061131e575061131d8185610eae565b5b91505092915050565b8273ffffffffffffffffffffffffffffffffffffffff1661134782610889565b73ffffffffffffffffffffffffffffffffffffffff161461139d576040517f08c379a000000000000000000000000000000000000000000000000000000000815260040161139490612795565b60405180910390fd5b600073ffffffffffffffffffffffffffffffffffffffff168273ffffffffffffffffffffffffffffffffffffffff16141561140d576040517f08c379a000000000000000000000000000000000000000000000000000000000815260040161140490612695565b60405180910390fd5b6114188383836118a6565b611423600082611190565b6001600360008573ffffffffffffffffffffffffffffffffffffffff1673ffffffffffffffffffffffffffffffffffffffff16815260200190815260200160002060008282546114739190612970565b925050819055506001600360008473ffffffffffffffffffffffffffffffffffffffff1673ffffffffffffffffffffffffffffffffffffffff16815260200190815260200160002060008282546114ca91906128e9565b92505081905550816002600083815260200190815260200160002060006101000a81548173ffffffffffffffffffffffffffffffffffffffff021916908373ffffffffffffffffffffffffffffffffffffffff160217905550808273ffffffffffffffffffffffffffffffffffffffff168473ffffffffffffffffffffffffffffffffffffffff167fddf252ad1be2c89b69c2b068fc378daa952ba7f163c4a11628f55a4df523b3ef60405160405180910390a4505050565b6000600a60009054906101000a900473ffffffffffffffffffffffffffffffffffffffff16905081600a60006101000a81548173ffffffffffffffffffffffffffffffffffffffff021916908373ffffffffffffffffffffffffffffffffffffffff1602179055508173ffffffffffffffffffffffffffffffffffffffff168173ffffffffffffffffffffffffffffffffffffffff167f8be0079c531659141344cd1fd0a4f28419497f9722a3daafe3b4186f6b6457e060405160405180910390a35050565b611654848484611327565b611660848484846119ba565b61169f576040517f08c379a000000000000000000000000000000000000000000000000000000000815260040161169690612655565b60405180910390fd5b50505050565b606060405180602001604052806000815250905090565b60606000821415611704576040518060400160405280600181526020017f30000000000000000000000000000000000000000000000000000000000000008152509050611837565b600082905060005b6000821461173657808061171f90612abd565b915050600a8261172f919061293f565b915061170c565b60008167ffffffffffffffff81111561175257611751612c22565b5b6040519080825280601f01601f1916602001820160405280156117845781602001600182028036833780820191505090505b5090505b600085146118305760018261179d9190612970565b9150600a856117ac9190612b06565b60306117b891906128e9565b7f0100000000000000000000000000000000000000000000000000000000000000028183815181106117ed576117ec612bf3565b5b60200101907effffffffffffffffffffffffffffffffffffffffffffffffffffffffffffff1916908160001a905350600a85611829919061293f565b9450611788565b8093505050505b919050565b60007f01ffc9a7000000000000000000000000000000000000000000000000000000007bffffffffffffffffffffffffffffffffffffffffffffffffffffffff1916827bffffffffffffffffffffffffffffffffffffffffffffffffffffffff1916149050919050565b6118b1838383611b89565b600073ffffffffffffffffffffffffffffffffffffffff168373ffffffffffffffffffffffffffffffffffffffff1614156118f4576118ef81611b8e565b611933565b8173ffffffffffffffffffffffffffffffffffffffff168373ffffffffffffffffffffffffffffffffffffffff1614611932576119318382611bd7565b5b5b600073ffffffffffffffffffffffffffffffffffffffff168273ffffffffffffffffffffffffffffffffffffffff1614156119765761197181611d44565b6119b5565b8273ffffffffffffffffffffffffffffffffffffffff168273ffffffffffffffffffffffffffffffffffffffff16146119b4576119b38282611e15565b5b5b505050565b60006119db8473ffffffffffffffffffffffffffffffffffffffff16611e94565b15611b7c578373ffffffffffffffffffffffffffffffffffffffff1663150b7a02611a04611188565b8786866040518563ffffffff167c0100000000000000000000000000000000000000000000000000000000028152600401611a4294939291906125ac565b602060405180830381600087803b158015611a5c57600080fd5b505af1925050508015611a8d57506040513d601f19601f82011682018060405250810190611a8a9190612213565b60015b611b10573d8060008114611abd576040519150601f19603f3d011682016040523d82523d6000602084013e611ac2565b606091505b50600081511415611b08576040517f08c379a0000000000000000000000000000000000000000000000000000000008152600401611aff90612655565b60405180910390fd5b805181602001fd5b63150b7a027c0100000000000000000000000000000000000000000000000000000000027bffffffffffffffffffffffffffffffffffffffffffffffffffffffff1916817bffffffffffffffffffffffffffffffffffffffffffffffffffffffff191614915050611b81565b600190505b949350505050565b505050565b6008805490506009600083815260200190815260200160002081905550600881908060018154018082558091505060019003906000526020600020016000909190919091505550565b60006001611be484610a22565b611bee9190612970565b9050600060076000848152602001908152602001600020549050818114611cd3576000600660008673ffffffffffffffffffffffffffffffffffffffff1673ffffffffffffffffffffffffffffffffffffffff168152602001908152602001600020600084815260200190815260200160002054905080600660008773ffffffffffffffffffffffffffffffffffffffff1673ffffffffffffffffffffffffffffffffffffffff168152602001908152602001600020600084815260200190815260200160002081905550816007600083815260200190815260200160002081905550505b6007600084815260200190815260200160002060009055600660008573ffffffffffffffffffffffffffffffffffffffff1673ffffffffffffffffffffffffffffffffffffffff16815260200190815260200160002060008381526020019081526020016000206000905550505050565b60006001600880549050611d589190612970565b9050600060096000848152602001908152602001600020549050600060088381548110611d8857611d87612bf3565b5b906000526020600020015490508060088381548110611daa57611da9612bf3565b5b906000526020600020018190555081600960008381526020019081526020016000208190555060096000858152602001908152602001600020600090556008805480611df957611df8612bc4565b5b6001900381819060005260206000200160009055905550505050565b6000611e2083610a22565b905081600660008573ffffffffffffffffffffffffffffffffffffffff1673ffffffffffffffffffffffffffffffffffffffff168152602001908152602001600020600083815260200190815260200160002081905550806007600084815260200190815260200160002081905550505050565b600080823b905060008111915050919050565b6000611eba611eb584612875565b612850565b905082815260208101848484011115611ed657611ed5612c60565b5b611ee1848285612a18565b509392505050565b600081359050611ef881613124565b92915050565b60008083601f840112611f1457611f13612c56565b5b8235905067ffffffffffffffff811115611f3157611f30612c51565b5b602083019150836020820283011115611f4d57611f4c612c5b565b5b9250929050565b600081359050611f638161313b565b92915050565b600081359050611f7881613152565b92915050565b600081519050611f8d81613152565b92915050565b600082601f830112611fa857611fa7612c56565b5b8135611fb8848260208601611ea7565b91505092915050565b600081359050611fd081613169565b92915050565b600060208284031215611fec57611feb612c6a565b5b6000611ffa84828501611ee9565b91505092915050565b6000806040838503121561201a57612019612c6a565b5b600061202885828601611ee9565b925050602061203985828601611ee9565b9150509250929050565b60008060006060848603121561205c5761205b612c6a565b5b600061206a86828701611ee9565b935050602061207b86828701611ee9565b925050604061208c86828701611fc1565b9150509250925092565b600080600080608085870312156120b0576120af612c6a565b5b60006120be87828801611ee9565b94505060206120cf87828801611ee9565b93505060406120e087828801611fc1565b925050606085013567ffffffffffffffff81111561210157612100612c65565b5b61210d87828801611f93565b91505092959194509250565b600080604083850312156121305761212f612c6a565b5b600061213e85828601611ee9565b925050602061214f85828601611f54565b9150509250929050565b600080604083850312156121705761216f612c6a565b5b600061217e85828601611ee9565b925050602061218f85828601611fc1565b9150509250929050565b600080602083850312156121b0576121af612c6a565b5b600083013567ffffffffffffffff8111156121ce576121cd612c65565b5b6121da85828601611efe565b92509250509250929050565b6000602082840312156121fc576121fb612c6a565b5b600061220a84828501611f69565b91505092915050565b60006020828403121561222957612228612c6a565b5b600061223784828501611f7e565b91505092915050565b60006020828403121561225657612255612c6a565b5b600061226484828501611fc1565b91505092915050565b612276816129a4565b82525050565b612285816129b6565b82525050565b6000612296826128a6565b6122a081856128bc565b93506122b0818560208601612a27565b6122b981612c6f565b840191505092915050565b60006122cf826128b1565b6122d981856128cd565b93506122e9818560208601612a27565b6122f281612c6f565b840191505092915050565b6000612308826128b1565b61231281856128de565b9350612322818560208601612a27565b80840191505092915050565b600061233b602b836128cd565b915061234682612c80565b604082019050919050565b600061235e6032836128cd565b915061236982612ccf565b604082019050919050565b60006123816026836128cd565b915061238c82612d1e565b604082019050919050565b60006123a46024836128cd565b91506123af82612d6d565b604082019050919050565b60006123c76019836128cd565b91506123d282612dbc565b602082019050919050565b60006123ea602c836128cd565b91506123f582612de5565b604082019050919050565b600061240d6038836128cd565b915061241882612e34565b604082019050919050565b6000612430602a836128cd565b915061243b82612e83565b604082019050919050565b60006124536029836128cd565b915061245e82612ed2565b604082019050919050565b6000612476602c836128cd565b915061248182612f21565b604082019050919050565b60006124996020836128cd565b91506124a482612f70565b602082019050919050565b60006124bc6029836128cd565b91506124c782612f99565b604082019050919050565b60006124df602f836128cd565b91506124ea82612fe8565b604082019050919050565b60006125026021836128cd565b915061250d82613037565b604082019050919050565b60006125256031836128cd565b915061253082613086565b604082019050919050565b6000612548602c836128cd565b9150612553826130d5565b604082019050919050565b61256781612a0e565b82525050565b600061257982856122fd565b915061258582846122fd565b91508190509392505050565b60006020820190506125a6600083018461226d565b92915050565b60006080820190506125c1600083018761226d565b6125ce602083018661226d565b6125db604083018561255e565b81810360608301526125ed818461228b565b905095945050505050565b600060208201905061260d600083018461227c565b92915050565b6000602082019050818103600083015261262d81846122c4565b905092915050565b6000602082019050818103600083015261264e8161232e565b9050919050565b6000602082019050818103600083015261266e81612351565b9050919050565b6000602082019050818103600083015261268e81612374565b9050919050565b600060208201905081810360008301526126ae81612397565b9050919050565b600060208201905081810360008301526126ce816123ba565b9050919050565b600060208201905081810360008301526126ee816123dd565b9050919050565b6000602082019050818103600083015261270e81612400565b9050919050565b6000602082019050818103600083015261272e81612423565b9050919050565b6000602082019050818103600083015261274e81612446565b9050919050565b6000602082019050818103600083015261276e81612469565b9050919050565b6000602082019050818103600083015261278e8161248c565b9050919050565b600060208201905081810360008301526127ae816124af565b9050919050565b600060208201905081810360008301526127ce816124d2565b9050919050565b600060208201905081810360008301526127ee816124f5565b9050919050565b6000602082019050818103600083015261280e81612518565b9050919050565b6000602082019050818103600083015261282e8161253b565b9050919050565b600060208201905061284a600083018461255e565b92915050565b600061285a61286b565b90506128668282612a8c565b919050565b6000604051905090565b600067ffffffffffffffff8211156128905761288f612c22565b5b61289982612c6f565b9050602081019050919050565b600081519050919050565b600081519050919050565b600082825260208201905092915050565b600082825260208201905092915050565b600081905092915050565b60006128f482612a0e565b91506128ff83612a0e565b9250827fffffffffffffffffffffffffffffffffffffffffffffffffffffffffffffffff0382111561293457612933612b37565b5b828201905092915050565b600061294a82612a0e565b915061295583612a0e565b92508261296557612964612b66565b5b828204905092915050565b600061297b82612a0e565b915061298683612a0e565b92508282101561299957612998612b37565b5b828203905092915050565b60006129af826129ee565b9050919050565b60008115159050919050565b60007fffffffff0000000000000000000000000000000000000000000000000000000082169050919050565b600073ffffffffffffffffffffffffffffffffffffffff82169050919050565b6000819050919050565b82818337600083830152505050565b60005b83811015612a45578082015181840152602081019050612a2a565b83811115612a54576000848401525b50505050565b60006002820490506001821680612a7257607f821691505b60208210811415612a8657612a85612b95565b5b50919050565b612a9582612c6f565b810181811067ffffffffffffffff82111715612ab457612ab3612c22565b5b80604052505050565b6000612ac882612a0e565b91507fffffffffffffffffffffffffffffffffffffffffffffffffffffffffffffffff821415612afb57612afa612b37565b5b600182019050919050565b6000612b1182612a0e565b9150612b1c83612a0e565b925082612b2c57612b2b612b66565b5b828206905092915050565b7f4e487b7100000000000000000000000000000000000000000000000000000000600052601160045260246000fd5b7f4e487b7100000000000000000000000000000000000000000000000000000000600052601260045260246000fd5b7f4e487b7100000000000000000000000000000000000000000000000000000000600052602260045260246000fd5b7f4e487b7100000000000000000000000000000000000000000000000000000000600052603160045260246000fd5b7f4e487b7100000000000000000000000000000000000000000000000000000000600052603260045260246000fd5b7f4e487b7100000000000000000000000000000000000000000000000000000000600052604160045260246000fd5b600080fd5b600080fd5b600080fd5b600080fd5b600080fd5b600080fd5b6000601f19601f8301169050919050565b7f455243373231456e756d657261626c653a206f776e657220696e646578206f7560008201527f74206f6620626f756e6473000000000000000000000000000000000000000000602082015250565b7f4552433732313a207472616e7366657220746f206e6f6e20455243373231526560008201527f63656976657220696d706c656d656e7465720000000000000000000000000000602082015250565b7f4f776e61626c653a206e6577206f776e657220697320746865207a65726f206160008201527f6464726573730000000000000000000000000000000000000000000000000000602082015250565b7f4552433732313a207472616e7366657220746f20746865207a65726f2061646460008201527f7265737300000000000000000000000000000000000000000000000000000000602082015250565b7f4552433732313a20617070726f766520746f2063616c6c657200000000000000600082015250565b7f4552433732313a206f70657261746f7220717565727920666f72206e6f6e657860008201527f697374656e7420746f6b656e0000000000000000000000000000000000000000602082015250565b7f4552433732313a20617070726f76652063616c6c6572206973206e6f74206f7760008201527f6e6572206e6f7220617070726f76656420666f7220616c6c0000000000000000602082015250565b7f4552433732313a2062616c616e636520717565727920666f7220746865207a6560008201527f726f206164647265737300000000000000000000000000000000000000000000602082015250565b7f4552433732313a206f776e657220717565727920666f72206e6f6e657869737460008201527f656e7420746f6b656e0000000000000000000000000000000000000000000000602082015250565b7f4552433732313a20617070726f76656420717565727920666f72206e6f6e657860008201527f697374656e7420746f6b656e0000000000000000000000000000000000000000602082015250565b7f4f776e61626c653a2063616c6c6572206973206e6f7420746865206f776e6572600082015250565b7f4552433732313a207472616e73666572206f6620746f6b656e2074686174206960008201527f73206e6f74206f776e0000000000000000000000000000000000000000000000602082015250565b7f4552433732314d657461646174613a2055524920717565727920666f72206e6f60008201527f6e6578697374656e7420746f6b656e0000000000000000000000000000000000602082015250565b7f4552433732313a20617070726f76616c20746f2063757272656e74206f776e6560008201527f7200000000000000000000000000000000000000000000000000000000000000602082015250565b7f4552433732313a207472616e736665722063616c6c6572206973206e6f74206f60008201527f776e6572206e6f7220617070726f766564000000000000000000000000000000602082015250565b7f455243373231456e756d657261626c653a20676c6f62616c20696e646578206f60008201527f7574206f6620626f756e64730000000000000000000000000000000000000000602082015250565b61312d816129a4565b811461313857600080fd5b50565b613144816129b6565b811461314f57600080fd5b50565b61315b816129c2565b811461316657600080fd5b50565b61317281612a0e565b811461317d57600080fd5b5056fea2646970667358221220cd8df10cd92e1d331b1be175c0abf053356f80584886a689058e2830797b9cbe64736f6c63430008070033a2646970667358221220008a37b09c199b105f811c72a468aef1a5b448f3209c6dd456628fabc5850ad364736f6c63430008070033",
  "immutableReferences": {},
  "source": "// SPDX-License-Identifier: MIT\npragma solidity >=0.4.22 <0.9.0;\n\nimport \"@openzeppelin/contracts/token/ERC721/extensions/ERC721Enumerable.sol\";\nimport \"@openzeppelin/contracts/access/Ownable.sol\";\nimport \"@openzeppelin/contracts/utils/Strings.sol\";\n\ncontract SneakerDrop {\n    address[] public contracts;\n    address public lastContractAddress;\n\n    event newSneakerContract(address contractAddress);\n\n    function newSneaker(string memory _name, string memory _symbol)\n        public\n        returns (address newContract)\n    {\n        Sneaker c = new Sneaker(_name, _symbol);\n        contracts.push(address(c));\n        lastContractAddress = address(c);\n        emit newSneakerContract(address(c));\n        return address(c);\n    }\n}\n\ncontract Sneaker is ERC721Enumerable, Ownable {\n    using Strings for uint256;\n\n    uint256 public maxSupply;\n\n    mapping(uint256 => bool) private _confList;\n    mapping(address => uint256) private _confListClaimed;\n\n    string private _contractURI = \"\";\n    string private _tokenBaseURI = \"\";\n    string private _tokenRevealedBaseURI = \"\";\n\n\n    constructor(string memory name, string memory symbol)\n        ERC721(name, symbol)\n    {}\n\n    function addToConfList(uint256[] calldata confList) external onlyOwner {\n        for(uint i = 0; i < confList.length; i++){\n            _confList[confList[i]] = true;\n        }\n    }\n    function removeFromConfList(uint256 confNumber) internal {\n\n    }\n}\n",
  "sourcePath": "/home/aktutia/blockchain-developer-bootcamp-final-project/src/contracts/SneakerDrop.sol",
  "compiler": {
    "name": "solc",
    "version": "0.8.7+commit.e28d00a7.Emscripten.clang"
  },
  "schemaVersion": "3.4.3",
  "updatedAt": "2021-09-27T03:26:53.093Z",
  "networkType": "ethereum",
  "devdoc": {
    "kind": "dev",
    "methods": {},
    "version": 1
  },
  "userdoc": {
    "kind": "user",
    "methods": {},
    "version": 1
  }
}