{
  "contractName": "SneakerToken",
  "abi": [
    {
      "inputs": [
        {
          "internalType": "string",
          "name": "name",
          "type": "string"
        },
        {
          "internalType": "string",
          "name": "symbol",
          "type": "string"
        }
      ],
      "stateMutability": "nonpayable",
      "type": "constructor"
    },
    {
      "anonymous": false,
      "inputs": [
        {
          "indexed": true,
          "internalType": "address",
          "name": "owner",
          "type": "address"
        },
        {
          "indexed": true,
          "internalType": "address",
          "name": "approved",
          "type": "address"
        },
        {
          "indexed": true,
          "internalType": "uint256",
          "name": "tokenId",
          "type": "uint256"
        }
      ],
      "name": "Approval",
      "type": "event"
    },
    {
      "anonymous": false,
      "inputs": [
        {
          "indexed": true,
          "internalType": "address",
          "name": "owner",
          "type": "address"
        },
        {
          "indexed": true,
          "internalType": "address",
          "name": "operator",
          "type": "address"
        },
        {
          "indexed": false,
          "internalType": "bool",
          "name": "approved",
          "type": "bool"
        }
      ],
      "name": "ApprovalForAll",
      "type": "event"
    },
    {
      "anonymous": false,
      "inputs": [
        {
          "indexed": true,
          "internalType": "address",
          "name": "previousOwner",
          "type": "address"
        },
        {
          "indexed": true,
          "internalType": "address",
          "name": "newOwner",
          "type": "address"
        }
      ],
      "name": "OwnershipTransferred",
      "type": "event"
    },
    {
      "anonymous": false,
      "inputs": [
        {
          "indexed": true,
          "internalType": "address",
          "name": "from",
          "type": "address"
        },
        {
          "indexed": true,
          "internalType": "address",
          "name": "to",
          "type": "address"
        },
        {
          "indexed": true,
          "internalType": "uint256",
          "name": "tokenId",
          "type": "uint256"
        }
      ],
      "name": "Transfer",
      "type": "event"
    },
    {
      "inputs": [
        {
          "internalType": "address",
          "name": "to",
          "type": "address"
        },
        {
          "internalType": "uint256",
          "name": "tokenId",
          "type": "uint256"
        }
      ],
      "name": "approve",
      "outputs": [],
      "stateMutability": "nonpayable",
      "type": "function"
    },
    {
      "inputs": [
        {
          "internalType": "address",
          "name": "owner",
          "type": "address"
        }
      ],
      "name": "balanceOf",
      "outputs": [
        {
          "internalType": "uint256",
          "name": "",
          "type": "uint256"
        }
      ],
      "stateMutability": "view",
      "type": "function"
    },
    {
      "inputs": [
        {
          "internalType": "uint256",
          "name": "tokenId",
          "type": "uint256"
        }
      ],
      "name": "getApproved",
      "outputs": [
        {
          "internalType": "address",
          "name": "",
          "type": "address"
        }
      ],
      "stateMutability": "view",
      "type": "function"
    },
    {
      "inputs": [],
      "name": "isActive",
      "outputs": [
        {
          "internalType": "bool",
          "name": "",
          "type": "bool"
        }
      ],
      "stateMutability": "view",
      "type": "function"
    },
    {
      "inputs": [
        {
          "internalType": "address",
          "name": "owner",
          "type": "address"
        },
        {
          "internalType": "address",
          "name": "operator",
          "type": "address"
        }
      ],
      "name": "isApprovedForAll",
      "outputs": [
        {
          "internalType": "bool",
          "name": "",
          "type": "bool"
        }
      ],
      "stateMutability": "view",
      "type": "function"
    },
    {
      "inputs": [],
      "name": "name",
      "outputs": [
        {
          "internalType": "string",
          "name": "",
          "type": "string"
        }
      ],
      "stateMutability": "view",
      "type": "function"
    },
    {
      "inputs": [],
      "name": "owner",
      "outputs": [
        {
          "internalType": "address",
          "name": "",
          "type": "address"
        }
      ],
      "stateMutability": "view",
      "type": "function"
    },
    {
      "inputs": [
        {
          "internalType": "uint256",
          "name": "tokenId",
          "type": "uint256"
        }
      ],
      "name": "ownerOf",
      "outputs": [
        {
          "internalType": "address",
          "name": "",
          "type": "address"
        }
      ],
      "stateMutability": "view",
      "type": "function"
    },
    {
      "inputs": [],
      "name": "renounceOwnership",
      "outputs": [],
      "stateMutability": "nonpayable",
      "type": "function"
    },
    {
      "inputs": [
        {
          "internalType": "address",
          "name": "from",
          "type": "address"
        },
        {
          "internalType": "address",
          "name": "to",
          "type": "address"
        },
        {
          "internalType": "uint256",
          "name": "tokenId",
          "type": "uint256"
        }
      ],
      "name": "safeTransferFrom",
      "outputs": [],
      "stateMutability": "nonpayable",
      "type": "function"
    },
    {
      "inputs": [
        {
          "internalType": "address",
          "name": "from",
          "type": "address"
        },
        {
          "internalType": "address",
          "name": "to",
          "type": "address"
        },
        {
          "internalType": "uint256",
          "name": "tokenId",
          "type": "uint256"
        },
        {
          "internalType": "bytes",
          "name": "_data",
          "type": "bytes"
        }
      ],
      "name": "safeTransferFrom",
      "outputs": [],
      "stateMutability": "nonpayable",
      "type": "function"
    },
    {
      "inputs": [
        {
          "internalType": "address",
          "name": "operator",
          "type": "address"
        },
        {
          "internalType": "bool",
          "name": "approved",
          "type": "bool"
        }
      ],
      "name": "setApprovalForAll",
      "outputs": [],
      "stateMutability": "nonpayable",
      "type": "function"
    },
    {
      "inputs": [
        {
          "internalType": "bytes4",
          "name": "interfaceId",
          "type": "bytes4"
        }
      ],
      "name": "supportsInterface",
      "outputs": [
        {
          "internalType": "bool",
          "name": "",
          "type": "bool"
        }
      ],
      "stateMutability": "view",
      "type": "function"
    },
    {
      "inputs": [],
      "name": "symbol",
      "outputs": [
        {
          "internalType": "string",
          "name": "",
          "type": "string"
        }
      ],
      "stateMutability": "view",
      "type": "function"
    },
    {
      "inputs": [
        {
          "internalType": "uint256",
          "name": "index",
          "type": "uint256"
        }
      ],
      "name": "tokenByIndex",
      "outputs": [
        {
          "internalType": "uint256",
          "name": "",
          "type": "uint256"
        }
      ],
      "stateMutability": "view",
      "type": "function"
    },
    {
      "inputs": [
        {
          "internalType": "address",
          "name": "owner",
          "type": "address"
        },
        {
          "internalType": "uint256",
          "name": "index",
          "type": "uint256"
        }
      ],
      "name": "tokenOfOwnerByIndex",
      "outputs": [
        {
          "internalType": "uint256",
          "name": "",
          "type": "uint256"
        }
      ],
      "stateMutability": "view",
      "type": "function"
    },
    {
      "inputs": [],
      "name": "totalSupply",
      "outputs": [
        {
          "internalType": "uint256",
          "name": "",
          "type": "uint256"
        }
      ],
      "stateMutability": "view",
      "type": "function"
    },
    {
      "inputs": [
        {
          "internalType": "address",
          "name": "from",
          "type": "address"
        },
        {
          "internalType": "address",
          "name": "to",
          "type": "address"
        },
        {
          "internalType": "uint256",
          "name": "tokenId",
          "type": "uint256"
        }
      ],
      "name": "transferFrom",
      "outputs": [],
      "stateMutability": "nonpayable",
      "type": "function"
    },
    {
      "inputs": [
        {
          "internalType": "address",
          "name": "newOwner",
          "type": "address"
        }
      ],
      "name": "transferOwnership",
      "outputs": [],
      "stateMutability": "nonpayable",
      "type": "function"
    },
    {
      "inputs": [
        {
          "internalType": "string[]",
          "name": "confList",
          "type": "string[]"
        }
      ],
      "name": "addToConfList",
      "outputs": [],
      "stateMutability": "nonpayable",
      "type": "function"
    },
    {
      "inputs": [
        {
          "internalType": "string",
          "name": "confNumber",
          "type": "string"
        }
      ],
      "name": "mint",
      "outputs": [],
      "stateMutability": "nonpayable",
      "type": "function"
    },
    {
      "inputs": [
        {
          "internalType": "bool",
          "name": "_isActive",
          "type": "bool"
        }
      ],
      "name": "setIsActive",
      "outputs": [],
      "stateMutability": "nonpayable",
      "type": "function"
    },
    {
      "inputs": [
        {
          "internalType": "string",
          "name": "URI",
          "type": "string"
        }
      ],
      "name": "setContractURI",
      "outputs": [],
      "stateMutability": "nonpayable",
      "type": "function"
    },
    {
      "inputs": [
        {
          "internalType": "string",
          "name": "URI",
          "type": "string"
        }
      ],
      "name": "setBaseURI",
      "outputs": [],
      "stateMutability": "nonpayable",
      "type": "function"
    },
    {
      "inputs": [
        {
          "internalType": "string",
          "name": "revealedBaseURI",
          "type": "string"
        }
      ],
      "name": "setRevealedBaseURI",
      "outputs": [],
      "stateMutability": "nonpayable",
      "type": "function"
    },
    {
      "inputs": [],
      "name": "contractURI",
      "outputs": [
        {
          "internalType": "string",
          "name": "",
          "type": "string"
        }
      ],
      "stateMutability": "view",
      "type": "function"
    },
    {
      "inputs": [
        {
          "internalType": "uint256",
          "name": "tokenId",
          "type": "uint256"
        }
      ],
      "name": "tokenURI",
      "outputs": [
        {
          "internalType": "string",
          "name": "",
          "type": "string"
        }
      ],
      "stateMutability": "view",
      "type": "function"
    }
  ],
  "bytecode": "0x60806040526000600a60146101000a81548160ff02191690831515021790555060405180602001604052806000815250600c90805190602001906200004692919062000208565b5060405180602001604052806000815250600d90805190602001906200006e92919062000208565b5060405180602001604052806000815250600e90805190602001906200009692919062000208565b50348015620000a457600080fd5b50604051620046fe380380620046fe8339818101604052810190620000ca919062000336565b81818160009080519060200190620000e492919062000208565b508060019080519060200190620000fd92919062000208565b505050620001326200011d6200013a640100000000026401000000009004565b62000142640100000000026401000000009004565b50506200053f565b600033905090565b6000600a60009054906101000a900473ffffffffffffffffffffffffffffffffffffffff16905081600a60006101000a81548173ffffffffffffffffffffffffffffffffffffffff021916908373ffffffffffffffffffffffffffffffffffffffff1602179055508173ffffffffffffffffffffffffffffffffffffffff168173ffffffffffffffffffffffffffffffffffffffff167f8be0079c531659141344cd1fd0a4f28419497f9722a3daafe3b4186f6b6457e060405160405180910390a35050565b828054620002169062000450565b90600052602060002090601f0160209004810192826200023a576000855562000286565b82601f106200025557805160ff191683800117855562000286565b8280016001018555821562000286579182015b828111156200028557825182559160200191906001019062000268565b5b50905062000295919062000299565b5090565b5b80821115620002b45760008160009055506001016200029a565b5090565b6000620002cf620002c984620003e4565b620003bb565b905082815260208101848484011115620002ee57620002ed6200051f565b5b620002fb8482856200041a565b509392505050565b600082601f8301126200031b576200031a6200051a565b5b81516200032d848260208601620002b8565b91505092915050565b6000806040838503121562000350576200034f62000529565b5b600083015167ffffffffffffffff81111562000371576200037062000524565b5b6200037f8582860162000303565b925050602083015167ffffffffffffffff811115620003a357620003a262000524565b5b620003b18582860162000303565b9150509250929050565b6000620003c7620003da565b9050620003d5828262000486565b919050565b6000604051905090565b600067ffffffffffffffff821115620004025762000401620004eb565b5b6200040d826200052e565b9050602081019050919050565b60005b838110156200043a5780820151818401526020810190506200041d565b838111156200044a576000848401525b50505050565b600060028204905060018216806200046957607f821691505b6020821081141562000480576200047f620004bc565b5b50919050565b62000491826200052e565b810181811067ffffffffffffffff82111715620004b357620004b2620004eb565b5b80604052505050565b7f4e487b7100000000000000000000000000000000000000000000000000000000600052602260045260246000fd5b7f4e487b7100000000000000000000000000000000000000000000000000000000600052604160045260246000fd5b600080fd5b600080fd5b600080fd5b600080fd5b6000601f19601f8301169050919050565b6141af806200054f6000396000f3fe608060405234801561001057600080fd5b50600436106101c6576000357c0100000000000000000000000000000000000000000000000000000000900480636352211e11610116578063a22cb465116100b4578063d85d3d271161008e578063d85d3d27146104d3578063e8a3d485146104ef578063e985e9c51461050d578063f2fde38b1461053d576101c6565b8063a22cb4651461046b578063b88d4fde14610487578063c87b56dd146104a3576101c6565b8063715018a6116100f0578063715018a6146104095780638da5cb5b14610413578063938e3d7b1461043157806395d89b411461044d576101c6565b80636352211e1461038d5780636e83843a146103bd57806370a08231146103d9576101c6565b806322f3e2d4116101835780632f745c591161015d5780632f745c59146102f557806342842e0e146103255780634f6ccce71461034157806355f804b314610371576101c6565b806322f3e2d41461029f57806323b872dd146102bd5780632750fc78146102d9576101c6565b806301ffc9a7146101cb57806306fdde03146101fb578063081812fc14610219578063095ea7b3146102495780630d0341bf1461026557806318160ddd14610281575b600080fd5b6101e560048036038101906101e09190612e35565b610559565b6040516101f291906133e1565b60405180910390f35b6102036105d3565b60405161021091906133fc565b60405180910390f35b610233600480360381019061022e9190612f25565b610665565b604051610240919061337a565b60405180910390f35b610263600480360381019061025e9190612d7b565b6106ea565b005b61027f600480360381019061027a9190612dbb565b610802565b005b6102896109d3565b60405161029691906136be565b60405180910390f35b6102a76109e0565b6040516102b491906133e1565b60405180910390f35b6102d760048036038101906102d29190612c65565b6109f3565b005b6102f360048036038101906102ee9190612e08565b610a53565b005b61030f600480360381019061030a9190612d7b565b610aec565b60405161031c91906136be565b60405180910390f35b61033f600480360381019061033a9190612c65565b610b91565b005b61035b60048036038101906103569190612f25565b610bb1565b60405161036891906136be565b60405180910390f35b61038b60048036038101906103869190612e8f565b610c22565b005b6103a760048036038101906103a29190612f25565b610cb4565b6040516103b4919061337a565b60405180910390f35b6103d760048036038101906103d29190612e8f565b610d66565b005b6103f360048036038101906103ee9190612bf8565b610df8565b60405161040091906136be565b60405180910390f35b610411610eb0565b005b61041b610f38565b604051610428919061337a565b60405180910390f35b61044b60048036038101906104469190612e8f565b610f62565b005b610455610ff4565b60405161046291906133fc565b60405180910390f35b61048560048036038101906104809190612d3b565b611086565b005b6104a1600480360381019061049c9190612cb8565b611207565b005b6104bd60048036038101906104b89190612f25565b611269565b6040516104ca91906133fc565b60405180910390f35b6104ed60048036038101906104e89190612edc565b61140e565b005b6104f7611555565b60405161050491906133fc565b60405180910390f35b61052760048036038101906105229190612c25565b6115e7565b60405161053491906133e1565b60405180910390f35b61055760048036038101906105529190612bf8565b61167b565b005b60007f780e9d63000000000000000000000000000000000000000000000000000000007bffffffffffffffffffffffffffffffffffffffffffffffffffffffff1916827bffffffffffffffffffffffffffffffffffffffffffffffffffffffff191614806105cc57506105cb82611773565b5b9050919050565b6060600080546105e290613977565b80601f016020809104026020016040519081016040528092919081815260200182805461060e90613977565b801561065b5780601f106106305761010080835404028352916020019161065b565b820191906000526020600020905b81548152906001019060200180831161063e57829003601f168201915b5050505050905090565b600061067082611855565b6106af576040517f08c379a00000000000000000000000000000000000000000000000000000000081526004016106a6906135fe565b60405180910390fd5b6004600083815260200190815260200160002060009054906101000a900473ffffffffffffffffffffffffffffffffffffffff169050919050565b60006106f582610cb4565b90508073ffffffffffffffffffffffffffffffffffffffff168373ffffffffffffffffffffffffffffffffffffffff161415610766576040517f08c379a000000000000000000000000000000000000000000000000000000000815260040161075d9061365e565b60405180910390fd5b8073ffffffffffffffffffffffffffffffffffffffff166107856118c1565b73ffffffffffffffffffffffffffffffffffffffff1614806107b457506107b3816107ae6118c1565b6115e7565b5b6107f3576040517f08c379a00000000000000000000000000000000000000000000000000000000081526004016107ea9061355e565b60405180910390fd5b6107fd83836118c9565b505050565b61080a6118c1565b73ffffffffffffffffffffffffffffffffffffffff16610828610f38565b73ffffffffffffffffffffffffffffffffffffffff161461087e576040517f08c379a00000000000000000000000000000000000000000000000000000000081526004016108759061361e565b60405180910390fd5b60005b828290508110156109ce5782828281811061089f5761089e613b10565b5b90506020028101906108b191906136d9565b600b8585858181106108c6576108c5613b10565b5b90506020028101906108d891906136d9565b6040516108e6929190613326565b90815260200160405180910390206000019190610904929190612960565b506001816109129190613806565b600b84848481811061092757610926613b10565b5b905060200281019061093991906136d9565b604051610947929190613326565b9081526020016040518091039020600101819055506001600b84848481811061097357610972613b10565b5b905060200281019061098591906136d9565b604051610993929190613326565b908152602001604051809103902060020160006101000a81548160ff02191690831515021790555080806109c6906139da565b915050610881565b505050565b6000600880549050905090565b600a60149054906101000a900460ff1681565b610a046109fe6118c1565b82611982565b610a43576040517f08c379a0000000000000000000000000000000000000000000000000000000008152600401610a3a9061367e565b60405180910390fd5b610a4e838383611a60565b505050565b610a5b6118c1565b73ffffffffffffffffffffffffffffffffffffffff16610a79610f38565b73ffffffffffffffffffffffffffffffffffffffff1614610acf576040517f08c379a0000000000000000000000000000000000000000000000000000000008152600401610ac69061361e565b60405180910390fd5b80600a60146101000a81548160ff02191690831515021790555050565b6000610af783610df8565b8210610b38576040517f08c379a0000000000000000000000000000000000000000000000000000000008152600401610b2f9061343e565b60405180910390fd5b600660008473ffffffffffffffffffffffffffffffffffffffff1673ffffffffffffffffffffffffffffffffffffffff168152602001908152602001600020600083815260200190815260200160002054905092915050565b610bac83838360405180602001604052806000815250611207565b505050565b6000610bbb6109d3565b8210610bfc576040517f08c379a0000000000000000000000000000000000000000000000000000000008152600401610bf39061369e565b60405180910390fd5b60088281548110610c1057610c0f613b10565b5b90600052602060002001549050919050565b610c2a6118c1565b73ffffffffffffffffffffffffffffffffffffffff16610c48610f38565b73ffffffffffffffffffffffffffffffffffffffff1614610c9e576040517f08c379a0000000000000000000000000000000000000000000000000000000008152600401610c959061361e565b60405180910390fd5b8181600d9190610caf929190612960565b505050565b6000806002600084815260200190815260200160002060009054906101000a900473ffffffffffffffffffffffffffffffffffffffff169050600073ffffffffffffffffffffffffffffffffffffffff168173ffffffffffffffffffffffffffffffffffffffff161415610d5d576040517f08c379a0000000000000000000000000000000000000000000000000000000008152600401610d549061359e565b60405180910390fd5b80915050919050565b610d6e6118c1565b73ffffffffffffffffffffffffffffffffffffffff16610d8c610f38565b73ffffffffffffffffffffffffffffffffffffffff1614610de2576040517f08c379a0000000000000000000000000000000000000000000000000000000008152600401610dd99061361e565b60405180910390fd5b8181600e9190610df3929190612960565b505050565b60008073ffffffffffffffffffffffffffffffffffffffff168273ffffffffffffffffffffffffffffffffffffffff161415610e69576040517f08c379a0000000000000000000000000000000000000000000000000000000008152600401610e609061357e565b60405180910390fd5b600360008373ffffffffffffffffffffffffffffffffffffffff1673ffffffffffffffffffffffffffffffffffffffff168152602001908152602001600020549050919050565b610eb86118c1565b73ffffffffffffffffffffffffffffffffffffffff16610ed6610f38565b73ffffffffffffffffffffffffffffffffffffffff1614610f2c576040517f08c379a0000000000000000000000000000000000000000000000000000000008152600401610f239061361e565b60405180910390fd5b610f366000611cbc565b565b6000600a60009054906101000a900473ffffffffffffffffffffffffffffffffffffffff16905090565b610f6a6118c1565b73ffffffffffffffffffffffffffffffffffffffff16610f88610f38565b73ffffffffffffffffffffffffffffffffffffffff1614610fde576040517f08c379a0000000000000000000000000000000000000000000000000000000008152600401610fd59061361e565b60405180910390fd5b8181600c9190610fef929190612960565b505050565b60606001805461100390613977565b80601f016020809104026020016040519081016040528092919081815260200182805461102f90613977565b801561107c5780601f106110515761010080835404028352916020019161107c565b820191906000526020600020905b81548152906001019060200180831161105f57829003601f168201915b5050505050905090565b61108e6118c1565b73ffffffffffffffffffffffffffffffffffffffff168273ffffffffffffffffffffffffffffffffffffffff1614156110fc576040517f08c379a00000000000000000000000000000000000000000000000000000000081526004016110f3906134fe565b60405180910390fd5b80600560006111096118c1565b73ffffffffffffffffffffffffffffffffffffffff1673ffffffffffffffffffffffffffffffffffffffff16815260200190815260200160002060008473ffffffffffffffffffffffffffffffffffffffff1673ffffffffffffffffffffffffffffffffffffffff16815260200190815260200160002060006101000a81548160ff0219169083151502179055508173ffffffffffffffffffffffffffffffffffffffff166111b66118c1565b73ffffffffffffffffffffffffffffffffffffffff167f17307eab39ab6107e8899845ad3d59bd9653f200f220920489ca2b5937696c31836040516111fb91906133e1565b60405180910390a35050565b6112186112126118c1565b83611982565b611257576040517f08c379a000000000000000000000000000000000000000000000000000000000815260040161124e9061367e565b60405180910390fd5b61126384848484611d82565b50505050565b606061127482611855565b6112b3576040517f08c379a00000000000000000000000000000000000000000000000000000000081526004016112aa9061351e565b60405180910390fd5b6000600e80546112c290613977565b80601f01602080910402602001604051908101604052809291908181526020018280546112ee90613977565b801561133b5780601f106113105761010080835404028352916020019161133b565b820191906000526020600020905b81548152906001019060200180831161131e57829003601f168201915b5050505050905060008151116113db57600d805461135890613977565b80601f016020809104026020016040519081016040528092919081815260200182805461138490613977565b80156113d15780601f106113a6576101008083540402835291602001916113d1565b820191906000526020600020905b8154815290600101906020018083116113b457829003601f168201915b5050505050611406565b806113e584611dde565b6040516020016113f6929190613356565b6040516020818303038152906040525b915050919050565b600a60149054906101000a900460ff1661145d576040517f08c379a0000000000000000000000000000000000000000000000000000000008152600401611454906135be565b60405180910390fd5b61146681611f5e565b6114a5576040517f08c379a000000000000000000000000000000000000000000000000000000000815260040161149c906134be565b60405180910390fd5b6114ae81612076565b6114ed576040517f08c379a00000000000000000000000000000000000000000000000000000000081526004016114e49061341e565b60405180910390fd5b61151833600b83604051611501919061333f565b9081526020016040518091039020600101546120ae565b6000600b8260405161152a919061333f565b908152602001604051809103902060020160006101000a81548160ff02191690831515021790555050565b6060600c805461156490613977565b80601f016020809104026020016040519081016040528092919081815260200182805461159090613977565b80156115dd5780601f106115b2576101008083540402835291602001916115dd565b820191906000526020600020905b8154815290600101906020018083116115c057829003601f168201915b5050505050905090565b6000600560008473ffffffffffffffffffffffffffffffffffffffff1673ffffffffffffffffffffffffffffffffffffffff16815260200190815260200160002060008373ffffffffffffffffffffffffffffffffffffffff1673ffffffffffffffffffffffffffffffffffffffff16815260200190815260200160002060009054906101000a900460ff16905092915050565b6116836118c1565b73ffffffffffffffffffffffffffffffffffffffff166116a1610f38565b73ffffffffffffffffffffffffffffffffffffffff16146116f7576040517f08c379a00000000000000000000000000000000000000000000000000000000081526004016116ee9061361e565b60405180910390fd5b600073ffffffffffffffffffffffffffffffffffffffff168173ffffffffffffffffffffffffffffffffffffffff161415611767576040517f08c379a000000000000000000000000000000000000000000000000000000000815260040161175e9061347e565b60405180910390fd5b61177081611cbc565b50565b60007f80ac58cd000000000000000000000000000000000000000000000000000000007bffffffffffffffffffffffffffffffffffffffffffffffffffffffff1916827bffffffffffffffffffffffffffffffffffffffffffffffffffffffff1916148061183e57507f5b5e139f000000000000000000000000000000000000000000000000000000007bffffffffffffffffffffffffffffffffffffffffffffffffffffffff1916827bffffffffffffffffffffffffffffffffffffffffffffffffffffffff1916145b8061184e575061184d826120cc565b5b9050919050565b60008073ffffffffffffffffffffffffffffffffffffffff166002600084815260200190815260200160002060009054906101000a900473ffffffffffffffffffffffffffffffffffffffff1673ffffffffffffffffffffffffffffffffffffffff1614159050919050565b600033905090565b816004600083815260200190815260200160002060006101000a81548173ffffffffffffffffffffffffffffffffffffffff021916908373ffffffffffffffffffffffffffffffffffffffff160217905550808273ffffffffffffffffffffffffffffffffffffffff1661193c83610cb4565b73ffffffffffffffffffffffffffffffffffffffff167f8c5be1e5ebec7d5bd14f71427d1e84f3dd0314c0f7b2291e5b200ac8c7c3b92560405160405180910390a45050565b600061198d82611855565b6119cc576040517f08c379a00000000000000000000000000000000000000000000000000000000081526004016119c39061353e565b60405180910390fd5b60006119d783610cb4565b90508073ffffffffffffffffffffffffffffffffffffffff168473ffffffffffffffffffffffffffffffffffffffff161480611a4657508373ffffffffffffffffffffffffffffffffffffffff16611a2e84610665565b73ffffffffffffffffffffffffffffffffffffffff16145b80611a575750611a5681856115e7565b5b91505092915050565b8273ffffffffffffffffffffffffffffffffffffffff16611a8082610cb4565b73ffffffffffffffffffffffffffffffffffffffff1614611ad6576040517f08c379a0000000000000000000000000000000000000000000000000000000008152600401611acd9061363e565b60405180910390fd5b600073ffffffffffffffffffffffffffffffffffffffff168273ffffffffffffffffffffffffffffffffffffffff161415611b46576040517f08c379a0000000000000000000000000000000000000000000000000000000008152600401611b3d906134de565b60405180910390fd5b611b51838383612136565b611b5c6000826118c9565b6001600360008573ffffffffffffffffffffffffffffffffffffffff1673ffffffffffffffffffffffffffffffffffffffff1681526020019081526020016000206000828254611bac919061388d565b925050819055506001600360008473ffffffffffffffffffffffffffffffffffffffff1673ffffffffffffffffffffffffffffffffffffffff1681526020019081526020016000206000828254611c039190613806565b92505081905550816002600083815260200190815260200160002060006101000a81548173ffffffffffffffffffffffffffffffffffffffff021916908373ffffffffffffffffffffffffffffffffffffffff160217905550808273ffffffffffffffffffffffffffffffffffffffff168473ffffffffffffffffffffffffffffffffffffffff167fddf252ad1be2c89b69c2b068fc378daa952ba7f163c4a11628f55a4df523b3ef60405160405180910390a4505050565b6000600a60009054906101000a900473ffffffffffffffffffffffffffffffffffffffff16905081600a60006101000a81548173ffffffffffffffffffffffffffffffffffffffff021916908373ffffffffffffffffffffffffffffffffffffffff1602179055508173ffffffffffffffffffffffffffffffffffffffff168173ffffffffffffffffffffffffffffffffffffffff167f8be0079c531659141344cd1fd0a4f28419497f9722a3daafe3b4186f6b6457e060405160405180910390a35050565b611d8d848484611a60565b611d998484848461224a565b611dd8576040517f08c379a0000000000000000000000000000000000000000000000000000000008152600401611dcf9061345e565b60405180910390fd5b50505050565b60606000821415611e26576040518060400160405280600181526020017f30000000000000000000000000000000000000000000000000000000000000008152509050611f59565b600082905060005b60008214611e58578080611e41906139da565b915050600a82611e51919061385c565b9150611e2e565b60008167ffffffffffffffff811115611e7457611e73613b3f565b5b6040519080825280601f01601f191660200182016040528015611ea65781602001600182028036833780820191505090505b5090505b60008514611f5257600182611ebf919061388d565b9150600a85611ece9190613a23565b6030611eda9190613806565b7f010000000000000000000000000000000000000000000000000000000000000002818381518110611f0f57611f0e613b10565b5b60200101907effffffffffffffffffffffffffffffffffffffffffffffffffffffffffffff1916908160001a905350600a85611f4b919061385c565b9450611eaa565b8093505050505b919050565b600080600b83604051611f71919061333f565b90815260200160405180910390206000018054611f8d90613977565b80601f0160208091040260200160405190810160405280929190818152602001828054611fb990613977565b80156120065780601f10611fdb57610100808354040283529160200191612006565b820191906000526020600020905b815481529060010190602001808311611fe957829003601f168201915b505050505090508260405160200161201e919061333f565b6040516020818303038152906040528051906020012081604051602001612045919061333f565b60405160208183030381529060405280519060200120141561206b576001915050612071565b60009150505b919050565b6000600b82604051612088919061333f565b908152602001604051809103902060020160009054906101000a900460ff169050919050565b6120c8828260405180602001604052806000815250612419565b5050565b60007f01ffc9a7000000000000000000000000000000000000000000000000000000007bffffffffffffffffffffffffffffffffffffffffffffffffffffffff1916827bffffffffffffffffffffffffffffffffffffffffffffffffffffffff1916149050919050565b612141838383612474565b600073ffffffffffffffffffffffffffffffffffffffff168373ffffffffffffffffffffffffffffffffffffffff1614156121845761217f81612479565b6121c3565b8173ffffffffffffffffffffffffffffffffffffffff168373ffffffffffffffffffffffffffffffffffffffff16146121c2576121c183826124c2565b5b5b600073ffffffffffffffffffffffffffffffffffffffff168273ffffffffffffffffffffffffffffffffffffffff161415612206576122018161262f565b612245565b8273ffffffffffffffffffffffffffffffffffffffff168273ffffffffffffffffffffffffffffffffffffffff1614612244576122438282612700565b5b5b505050565b600061226b8473ffffffffffffffffffffffffffffffffffffffff1661277f565b1561240c578373ffffffffffffffffffffffffffffffffffffffff1663150b7a026122946118c1565b8786866040518563ffffffff167c01000000000000000000000000000000000000000000000000000000000281526004016122d29493929190613395565b602060405180830381600087803b1580156122ec57600080fd5b505af192505050801561231d57506040513d601f19601f8201168201806040525081019061231a9190612e62565b60015b6123a0573d806000811461234d576040519150601f19603f3d011682016040523d82523d6000602084013e612352565b606091505b50600081511415612398576040517f08c379a000000000000000000000000000000000000000000000000000000000815260040161238f9061345e565b60405180910390fd5b805181602001fd5b63150b7a027c0100000000000000000000000000000000000000000000000000000000027bffffffffffffffffffffffffffffffffffffffffffffffffffffffff1916817bffffffffffffffffffffffffffffffffffffffffffffffffffffffff191614915050612411565b600190505b949350505050565b6124238383612792565b612430600084848461224a565b61246f576040517f08c379a00000000000000000000000000000000000000000000000000000000081526004016124669061345e565b60405180910390fd5b505050565b505050565b6008805490506009600083815260200190815260200160002081905550600881908060018154018082558091505060019003906000526020600020016000909190919091505550565b600060016124cf84610df8565b6124d9919061388d565b90506000600760008481526020019081526020016000205490508181146125be576000600660008673ffffffffffffffffffffffffffffffffffffffff1673ffffffffffffffffffffffffffffffffffffffff168152602001908152602001600020600084815260200190815260200160002054905080600660008773ffffffffffffffffffffffffffffffffffffffff1673ffffffffffffffffffffffffffffffffffffffff168152602001908152602001600020600084815260200190815260200160002081905550816007600083815260200190815260200160002081905550505b6007600084815260200190815260200160002060009055600660008573ffffffffffffffffffffffffffffffffffffffff1673ffffffffffffffffffffffffffffffffffffffff16815260200190815260200160002060008381526020019081526020016000206000905550505050565b60006001600880549050612643919061388d565b905060006009600084815260200190815260200160002054905060006008838154811061267357612672613b10565b5b90600052602060002001549050806008838154811061269557612694613b10565b5b9060005260206000200181905550816009600083815260200190815260200160002081905550600960008581526020019081526020016000206000905560088054806126e4576126e3613ae1565b5b6001900381819060005260206000200160009055905550505050565b600061270b83610df8565b905081600660008573ffffffffffffffffffffffffffffffffffffffff1673ffffffffffffffffffffffffffffffffffffffff168152602001908152602001600020600083815260200190815260200160002081905550806007600084815260200190815260200160002081905550505050565b600080823b905060008111915050919050565b600073ffffffffffffffffffffffffffffffffffffffff168273ffffffffffffffffffffffffffffffffffffffff161415612802576040517f08c379a00000000000000000000000000000000000000000000000000000000081526004016127f9906135de565b60405180910390fd5b61280b81611855565b1561284b576040517f08c379a00000000000000000000000000000000000000000000000000000000081526004016128429061349e565b60405180910390fd5b61285760008383612136565b6001600360008473ffffffffffffffffffffffffffffffffffffffff1673ffffffffffffffffffffffffffffffffffffffff16815260200190815260200160002060008282546128a79190613806565b92505081905550816002600083815260200190815260200160002060006101000a81548173ffffffffffffffffffffffffffffffffffffffff021916908373ffffffffffffffffffffffffffffffffffffffff160217905550808273ffffffffffffffffffffffffffffffffffffffff16600073ffffffffffffffffffffffffffffffffffffffff167fddf252ad1be2c89b69c2b068fc378daa952ba7f163c4a11628f55a4df523b3ef60405160405180910390a45050565b82805461296c90613977565b90600052602060002090601f01602090048101928261298e57600085556129d5565b82601f106129a757803560ff19168380011785556129d5565b828001600101855582156129d5579182015b828111156129d45782358255916020019190600101906129b9565b5b5090506129e291906129e6565b5090565b5b808211156129ff5760008160009055506001016129e7565b5090565b6000612a16612a1184613761565b61373c565b905082815260208101848484011115612a3257612a31613b8c565b5b612a3d848285613935565b509392505050565b6000612a58612a5384613792565b61373c565b905082815260208101848484011115612a7457612a73613b8c565b5b612a7f848285613935565b509392505050565b600081359050612a968161411d565b92915050565b60008083601f840112612ab257612ab1613b73565b5b8235905067ffffffffffffffff811115612acf57612ace613b6e565b5b602083019150836020820283011115612aeb57612aea613b82565b5b9250929050565b600081359050612b0181614134565b92915050565b600081359050612b168161414b565b92915050565b600081519050612b2b8161414b565b92915050565b600082601f830112612b4657612b45613b73565b5b8135612b56848260208601612a03565b91505092915050565b60008083601f840112612b7557612b74613b73565b5b8235905067ffffffffffffffff811115612b9257612b91613b6e565b5b602083019150836001820283011115612bae57612bad613b82565b5b9250929050565b600082601f830112612bca57612bc9613b73565b5b8135612bda848260208601612a45565b91505092915050565b600081359050612bf281614162565b92915050565b600060208284031215612c0e57612c0d613b96565b5b6000612c1c84828501612a87565b91505092915050565b60008060408385031215612c3c57612c3b613b96565b5b6000612c4a85828601612a87565b9250506020612c5b85828601612a87565b9150509250929050565b600080600060608486031215612c7e57612c7d613b96565b5b6000612c8c86828701612a87565b9350506020612c9d86828701612a87565b9250506040612cae86828701612be3565b9150509250925092565b60008060008060808587031215612cd257612cd1613b96565b5b6000612ce087828801612a87565b9450506020612cf187828801612a87565b9350506040612d0287828801612be3565b925050606085013567ffffffffffffffff811115612d2357612d22613b91565b5b612d2f87828801612b31565b91505092959194509250565b60008060408385031215612d5257612d51613b96565b5b6000612d6085828601612a87565b9250506020612d7185828601612af2565b9150509250929050565b60008060408385031215612d9257612d91613b96565b5b6000612da085828601612a87565b9250506020612db185828601612be3565b9150509250929050565b60008060208385031215612dd257612dd1613b96565b5b600083013567ffffffffffffffff811115612df057612def613b91565b5b612dfc85828601612a9c565b92509250509250929050565b600060208284031215612e1e57612e1d613b96565b5b6000612e2c84828501612af2565b91505092915050565b600060208284031215612e4b57612e4a613b96565b5b6000612e5984828501612b07565b91505092915050565b600060208284031215612e7857612e77613b96565b5b6000612e8684828501612b1c565b91505092915050565b60008060208385031215612ea657612ea5613b96565b5b600083013567ffffffffffffffff811115612ec457612ec3613b91565b5b612ed085828601612b5f565b92509250509250929050565b600060208284031215612ef257612ef1613b96565b5b600082013567ffffffffffffffff811115612f1057612f0f613b91565b5b612f1c84828501612bb5565b91505092915050565b600060208284031215612f3b57612f3a613b96565b5b6000612f4984828501612be3565b91505092915050565b612f5b816138c1565b82525050565b612f6a816138d3565b82525050565b6000612f7b826137c3565b612f8581856137d9565b9350612f95818560208601613944565b612f9e81613b9b565b840191505092915050565b6000612fb583856137fb565b9350612fc2838584613935565b82840190509392505050565b6000612fd9826137ce565b612fe381856137ea565b9350612ff3818560208601613944565b612ffc81613b9b565b840191505092915050565b6000613012826137ce565b61301c81856137fb565b935061302c818560208601613944565b80840191505092915050565b60006130456029836137ea565b915061305082613bac565b604082019050919050565b6000613068602b836137ea565b915061307382613bfb565b604082019050919050565b600061308b6032836137ea565b915061309682613c4a565b604082019050919050565b60006130ae6026836137ea565b91506130b982613c99565b604082019050919050565b60006130d1601c836137ea565b91506130dc82613ce8565b602082019050919050565b60006130f4601e836137ea565b91506130ff82613d11565b602082019050919050565b60006131176024836137ea565b915061312282613d3a565b604082019050919050565b600061313a6019836137ea565b915061314582613d89565b602082019050919050565b600061315d6014836137ea565b915061316882613db2565b602082019050919050565b6000613180602c836137ea565b915061318b82613ddb565b604082019050919050565b60006131a36038836137ea565b91506131ae82613e2a565b604082019050919050565b60006131c6602a836137ea565b91506131d182613e79565b604082019050919050565b60006131e96029836137ea565b91506131f482613ec8565b604082019050919050565b600061320c6017836137ea565b915061321782613f17565b602082019050919050565b600061322f6020836137ea565b915061323a82613f40565b602082019050919050565b6000613252602c836137ea565b915061325d82613f69565b604082019050919050565b60006132756020836137ea565b915061328082613fb8565b602082019050919050565b60006132986029836137ea565b91506132a382613fe1565b604082019050919050565b60006132bb6021836137ea565b91506132c682614030565b604082019050919050565b60006132de6031836137ea565b91506132e98261407f565b604082019050919050565b6000613301602c836137ea565b915061330c826140ce565b604082019050919050565b6133208161392b565b82525050565b6000613333828486612fa9565b91508190509392505050565b600061334b8284613007565b915081905092915050565b60006133628285613007565b915061336e8284613007565b91508190509392505050565b600060208201905061338f6000830184612f52565b92915050565b60006080820190506133aa6000830187612f52565b6133b76020830186612f52565b6133c46040830185613317565b81810360608301526133d68184612f70565b905095945050505050565b60006020820190506133f66000830184612f61565b92915050565b600060208201905081810360008301526134168184612fce565b905092915050565b6000602082019050818103600083015261343781613038565b9050919050565b600060208201905081810360008301526134578161305b565b9050919050565b600060208201905081810360008301526134778161307e565b9050919050565b60006020820190508181036000830152613497816130a1565b9050919050565b600060208201905081810360008301526134b7816130c4565b9050919050565b600060208201905081810360008301526134d7816130e7565b9050919050565b600060208201905081810360008301526134f78161310a565b9050919050565b600060208201905081810360008301526135178161312d565b9050919050565b6000602082019050818103600083015261353781613150565b9050919050565b6000602082019050818103600083015261355781613173565b9050919050565b6000602082019050818103600083015261357781613196565b9050919050565b60006020820190508181036000830152613597816131b9565b9050919050565b600060208201905081810360008301526135b7816131dc565b9050919050565b600060208201905081810360008301526135d7816131ff565b9050919050565b600060208201905081810360008301526135f781613222565b9050919050565b6000602082019050818103600083015261361781613245565b9050919050565b6000602082019050818103600083015261363781613268565b9050919050565b600060208201905081810360008301526136578161328b565b9050919050565b60006020820190508181036000830152613677816132ae565b9050919050565b60006020820190508181036000830152613697816132d1565b9050919050565b600060208201905081810360008301526136b7816132f4565b9050919050565b60006020820190506136d36000830184613317565b92915050565b600080833560016020038436030381126136f6576136f5613b7d565b5b80840192508235915067ffffffffffffffff82111561371857613717613b78565b5b60208301925060018202360383131561373457613733613b87565b5b509250929050565b6000613746613757565b905061375282826139a9565b919050565b6000604051905090565b600067ffffffffffffffff82111561377c5761377b613b3f565b5b61378582613b9b565b9050602081019050919050565b600067ffffffffffffffff8211156137ad576137ac613b3f565b5b6137b682613b9b565b9050602081019050919050565b600081519050919050565b600081519050919050565b600082825260208201905092915050565b600082825260208201905092915050565b600081905092915050565b60006138118261392b565b915061381c8361392b565b9250827fffffffffffffffffffffffffffffffffffffffffffffffffffffffffffffffff0382111561385157613850613a54565b5b828201905092915050565b60006138678261392b565b91506138728361392b565b92508261388257613881613a83565b5b828204905092915050565b60006138988261392b565b91506138a38361392b565b9250828210156138b6576138b5613a54565b5b828203905092915050565b60006138cc8261390b565b9050919050565b60008115159050919050565b60007fffffffff0000000000000000000000000000000000000000000000000000000082169050919050565b600073ffffffffffffffffffffffffffffffffffffffff82169050919050565b6000819050919050565b82818337600083830152505050565b60005b83811015613962578082015181840152602081019050613947565b83811115613971576000848401525b50505050565b6000600282049050600182168061398f57607f821691505b602082108114156139a3576139a2613ab2565b5b50919050565b6139b282613b9b565b810181811067ffffffffffffffff821117156139d1576139d0613b3f565b5b80604052505050565b60006139e58261392b565b91507fffffffffffffffffffffffffffffffffffffffffffffffffffffffffffffffff821415613a1857613a17613a54565b5b600182019050919050565b6000613a2e8261392b565b9150613a398361392b565b925082613a4957613a48613a83565b5b828206905092915050565b7f4e487b7100000000000000000000000000000000000000000000000000000000600052601160045260246000fd5b7f4e487b7100000000000000000000000000000000000000000000000000000000600052601260045260246000fd5b7f4e487b7100000000000000000000000000000000000000000000000000000000600052602260045260246000fd5b7f4e487b7100000000000000000000000000000000000000000000000000000000600052603160045260246000fd5b7f4e487b7100000000000000000000000000000000000000000000000000000000600052603260045260246000fd5b7f4e487b7100000000000000000000000000000000000000000000000000000000600052604160045260246000fd5b600080fd5b600080fd5b600080fd5b600080fd5b600080fd5b600080fd5b600080fd5b600080fd5b600080fd5b6000601f19601f8301169050919050565b7f436f6e6669726d6174696f6e204e756d6265722048617320416c72656164792060008201527f4265656e20557365640000000000000000000000000000000000000000000000602082015250565b7f455243373231456e756d657261626c653a206f776e657220696e646578206f7560008201527f74206f6620626f756e6473000000000000000000000000000000000000000000602082015250565b7f4552433732313a207472616e7366657220746f206e6f6e20455243373231526560008201527f63656976657220696d706c656d656e7465720000000000000000000000000000602082015250565b7f4f776e61626c653a206e6577206f776e657220697320746865207a65726f206160008201527f6464726573730000000000000000000000000000000000000000000000000000602082015250565b7f4552433732313a20746f6b656e20616c7265616479206d696e74656400000000600082015250565b7f436f6e6669726d6174696f6e204e756d62657220697320496e76616c69640000600082015250565b7f4552433732313a207472616e7366657220746f20746865207a65726f2061646460008201527f7265737300000000000000000000000000000000000000000000000000000000602082015250565b7f4552433732313a20617070726f766520746f2063616c6c657200000000000000600082015250565b7f546f6b656e20646f6573206e6f74206578697374000000000000000000000000600082015250565b7f4552433732313a206f70657261746f7220717565727920666f72206e6f6e657860008201527f697374656e7420746f6b656e0000000000000000000000000000000000000000602082015250565b7f4552433732313a20617070726f76652063616c6c6572206973206e6f74206f7760008201527f6e6572206e6f7220617070726f76656420666f7220616c6c0000000000000000602082015250565b7f4552433732313a2062616c616e636520717565727920666f7220746865207a6560008201527f726f206164647265737300000000000000000000000000000000000000000000602082015250565b7f4552433732313a206f776e657220717565727920666f72206e6f6e657869737460008201527f656e7420746f6b656e0000000000000000000000000000000000000000000000602082015250565b7f436f6e7472616374204973204e6f74204163746976652e000000000000000000600082015250565b7f4552433732313a206d696e7420746f20746865207a65726f2061646472657373600082015250565b7f4552433732313a20617070726f76656420717565727920666f72206e6f6e657860008201527f697374656e7420746f6b656e0000000000000000000000000000000000000000602082015250565b7f4f776e61626c653a2063616c6c6572206973206e6f7420746865206f776e6572600082015250565b7f4552433732313a207472616e73666572206f6620746f6b656e2074686174206960008201527f73206e6f74206f776e0000000000000000000000000000000000000000000000602082015250565b7f4552433732313a20617070726f76616c20746f2063757272656e74206f776e6560008201527f7200000000000000000000000000000000000000000000000000000000000000602082015250565b7f4552433732313a207472616e736665722063616c6c6572206973206e6f74206f60008201527f776e6572206e6f7220617070726f766564000000000000000000000000000000602082015250565b7f455243373231456e756d657261626c653a20676c6f62616c20696e646578206f60008201527f7574206f6620626f756e64730000000000000000000000000000000000000000602082015250565b614126816138c1565b811461413157600080fd5b50565b61413d816138d3565b811461414857600080fd5b50565b614154816138df565b811461415f57600080fd5b50565b61416b8161392b565b811461417657600080fd5b5056fea264697066735822122043f086b4a1d01cae9fbf20b28bd49a4000716ce9841f2077e5239677c5b66ea864736f6c63430008070033",
  "immutableReferences": {},
  "source": "// SPDX-License-Identifier: MIT\npragma solidity >=0.7.0 <0.9.0;\n\nimport \"@openzeppelin/contracts/token/ERC721/extensions/ERC721Enumerable.sol\";\nimport \"@openzeppelin/contracts/access/Ownable.sol\";\nimport \"@openzeppelin/contracts/utils/Strings.sol\";\n\ncontract SneakerToken is ERC721Enumerable, Ownable {\n    using Strings for uint256;\n\n    struct Sneaker {\n        string number;\n        uint256 tokenId;\n        bool active;\n    }\n\n    bool public isActive = false;\n\n    mapping(string => Sneaker) private _sneakerList;\n\n    string private _contractURI = '';\n    string private _tokenBaseURI = '';\n    string private _tokenRevealedBaseURI = '';\n\n    constructor(string memory name, string memory symbol)\n        ERC721(name, symbol)\n    {}\n\n    function addToConfList(string[] calldata confList) external onlyOwner {\n        for(uint i = 0; i < confList.length; i++) {\n            _sneakerList[confList[i]].number = confList[i];\n            _sneakerList[confList[i]].tokenId = i + 1;\n            _sneakerList[confList[i]].active = true;\n        }\n    }\n\n    function mint(string memory confNumber) public {\n        require(isActive, 'Contract Is Not Active.');\n        require(isNumberListed(confNumber), 'Confirmation Number is Invalid');\n        require(isNumberActive(confNumber), 'Confirmation Number Has Already Been Used');\n        _safeMint(msg.sender, _sneakerList[confNumber].tokenId);\n        _sneakerList[confNumber].active = false;\n    }\n\n    function setIsActive(bool _isActive) external onlyOwner {\n        isActive = _isActive;\n    }\n\n    function setContractURI(string calldata URI) external onlyOwner {\n        _contractURI = URI;\n    }\n\n    function setBaseURI(string calldata URI) external onlyOwner {\n        _tokenBaseURI = URI;\n    }\n    \n    function setRevealedBaseURI(string calldata revealedBaseURI) external onlyOwner {\n        _tokenRevealedBaseURI = revealedBaseURI;\n    }\n\n    function contractURI() public view returns (string memory) {\n        return _contractURI;\n    }\n    \n    function tokenURI(uint256 tokenId) public view override(ERC721) returns (string memory) {\n        require(_exists(tokenId), 'Token does not exist');\n\n        /// Convert string to bytes so we can check if it's empty or not.\n        string memory revealedBaseURI = _tokenRevealedBaseURI;\n        return bytes(revealedBaseURI).length > 0 ?\n            string(abi.encodePacked(revealedBaseURI, tokenId.toString())) :\n            _tokenBaseURI;\n    }\n\n    function isNumberActive(string memory confNumber) private view returns (bool) {\n        return _sneakerList[confNumber].active;\n    }\n\n    function isNumberListed(string memory confNumber) private view returns (bool) {\n        string memory number = _sneakerList[confNumber].number;\n        if(keccak256(abi.encodePacked(number)) == keccak256(abi.encodePacked(confNumber))) {\n            return true;\n        } else {\n            return false;\n        }\n    }\n}",
  "sourcePath": "/home/aktutia/blockchain-developer-bootcamp-final-project/src/contracts/SneakerToken.sol",
  "compiler": {
    "name": "solc",
    "version": "0.8.7+commit.e28d00a7.Emscripten.clang"
  },
  "schemaVersion": "3.4.3",
  "updatedAt": "2021-10-01T07:24:51.179Z",
  "devdoc": {
    "kind": "dev",
    "methods": {
      "approve(address,uint256)": {
        "details": "See {IERC721-approve}."
      },
      "balanceOf(address)": {
        "details": "See {IERC721-balanceOf}."
      },
      "getApproved(uint256)": {
        "details": "See {IERC721-getApproved}."
      },
      "isApprovedForAll(address,address)": {
        "details": "See {IERC721-isApprovedForAll}."
      },
      "name()": {
        "details": "See {IERC721Metadata-name}."
      },
      "owner()": {
        "details": "Returns the address of the current owner."
      },
      "ownerOf(uint256)": {
        "details": "See {IERC721-ownerOf}."
      },
      "renounceOwnership()": {
        "details": "Leaves the contract without owner. It will not be possible to call `onlyOwner` functions anymore. Can only be called by the current owner. NOTE: Renouncing ownership will leave the contract without an owner, thereby removing any functionality that is only available to the owner."
      },
      "safeTransferFrom(address,address,uint256)": {
        "details": "See {IERC721-safeTransferFrom}."
      },
      "safeTransferFrom(address,address,uint256,bytes)": {
        "details": "See {IERC721-safeTransferFrom}."
      },
      "setApprovalForAll(address,bool)": {
        "details": "See {IERC721-setApprovalForAll}."
      },
      "supportsInterface(bytes4)": {
        "details": "See {IERC165-supportsInterface}."
      },
      "symbol()": {
        "details": "See {IERC721Metadata-symbol}."
      },
      "tokenByIndex(uint256)": {
        "details": "See {IERC721Enumerable-tokenByIndex}."
      },
      "tokenOfOwnerByIndex(address,uint256)": {
        "details": "See {IERC721Enumerable-tokenOfOwnerByIndex}."
      },
      "tokenURI(uint256)": {
        "details": "See {IERC721Metadata-tokenURI}."
      },
      "totalSupply()": {
        "details": "See {IERC721Enumerable-totalSupply}."
      },
      "transferFrom(address,address,uint256)": {
        "details": "See {IERC721-transferFrom}."
      },
      "transferOwnership(address)": {
        "details": "Transfers ownership of the contract to a new account (`newOwner`). Can only be called by the current owner."
      }
    },
    "version": 1
  },
  "userdoc": {
    "kind": "user",
    "methods": {},
    "version": 1
  }
}