{
  "contractName": "SneakerNFT",
  "abi": [
    {
      "inputs": [
        {
          "internalType": "string",
          "name": "name",
          "type": "string"
        },
        {
          "internalType": "string",
          "name": "symbol",
          "type": "string"
        }
      ],
      "stateMutability": "nonpayable",
      "type": "constructor"
    },
    {
      "anonymous": false,
      "inputs": [
        {
          "indexed": true,
          "internalType": "address",
          "name": "owner",
          "type": "address"
        },
        {
          "indexed": true,
          "internalType": "address",
          "name": "approved",
          "type": "address"
        },
        {
          "indexed": true,
          "internalType": "uint256",
          "name": "tokenId",
          "type": "uint256"
        }
      ],
      "name": "Approval",
      "type": "event"
    },
    {
      "anonymous": false,
      "inputs": [
        {
          "indexed": true,
          "internalType": "address",
          "name": "owner",
          "type": "address"
        },
        {
          "indexed": true,
          "internalType": "address",
          "name": "operator",
          "type": "address"
        },
        {
          "indexed": false,
          "internalType": "bool",
          "name": "approved",
          "type": "bool"
        }
      ],
      "name": "ApprovalForAll",
      "type": "event"
    },
    {
      "anonymous": false,
      "inputs": [
        {
          "indexed": true,
          "internalType": "bool",
          "name": "active",
          "type": "bool"
        }
      ],
      "name": "ContractActive",
      "type": "event"
    },
    {
      "anonymous": false,
      "inputs": [
        {
          "indexed": true,
          "internalType": "string",
          "name": "contractURI",
          "type": "string"
        }
      ],
      "name": "ContractURIUpdated",
      "type": "event"
    },
    {
      "anonymous": false,
      "inputs": [
        {
          "indexed": true,
          "internalType": "address",
          "name": "previousOwner",
          "type": "address"
        },
        {
          "indexed": true,
          "internalType": "address",
          "name": "newOwner",
          "type": "address"
        }
      ],
      "name": "OwnershipTransferred",
      "type": "event"
    },
    {
      "anonymous": false,
      "inputs": [],
      "name": "SneakerListUpdated",
      "type": "event"
    },
    {
      "anonymous": false,
      "inputs": [
        {
          "indexed": true,
          "internalType": "address",
          "name": "owner",
          "type": "address"
        },
        {
          "indexed": true,
          "internalType": "uint256",
          "name": "tokenID",
          "type": "uint256"
        }
      ],
      "name": "TokenMinted",
      "type": "event"
    },
    {
      "anonymous": false,
      "inputs": [
        {
          "indexed": true,
          "internalType": "string",
          "name": "tokenURI",
          "type": "string"
        }
      ],
      "name": "TokenURIUpdated",
      "type": "event"
    },
    {
      "anonymous": false,
      "inputs": [
        {
          "indexed": true,
          "internalType": "address",
          "name": "from",
          "type": "address"
        },
        {
          "indexed": true,
          "internalType": "address",
          "name": "to",
          "type": "address"
        },
        {
          "indexed": true,
          "internalType": "uint256",
          "name": "tokenId",
          "type": "uint256"
        }
      ],
      "name": "Transfer",
      "type": "event"
    },
    {
      "inputs": [
        {
          "internalType": "address",
          "name": "to",
          "type": "address"
        },
        {
          "internalType": "uint256",
          "name": "tokenId",
          "type": "uint256"
        }
      ],
      "name": "approve",
      "outputs": [],
      "stateMutability": "nonpayable",
      "type": "function"
    },
    {
      "inputs": [
        {
          "internalType": "address",
          "name": "owner",
          "type": "address"
        }
      ],
      "name": "balanceOf",
      "outputs": [
        {
          "internalType": "uint256",
          "name": "",
          "type": "uint256"
        }
      ],
      "stateMutability": "view",
      "type": "function"
    },
    {
      "inputs": [
        {
          "internalType": "uint256",
          "name": "tokenId",
          "type": "uint256"
        }
      ],
      "name": "getApproved",
      "outputs": [
        {
          "internalType": "address",
          "name": "",
          "type": "address"
        }
      ],
      "stateMutability": "view",
      "type": "function"
    },
    {
      "inputs": [],
      "name": "isActive",
      "outputs": [
        {
          "internalType": "bool",
          "name": "",
          "type": "bool"
        }
      ],
      "stateMutability": "view",
      "type": "function"
    },
    {
      "inputs": [
        {
          "internalType": "address",
          "name": "owner",
          "type": "address"
        },
        {
          "internalType": "address",
          "name": "operator",
          "type": "address"
        }
      ],
      "name": "isApprovedForAll",
      "outputs": [
        {
          "internalType": "bool",
          "name": "",
          "type": "bool"
        }
      ],
      "stateMutability": "view",
      "type": "function"
    },
    {
      "inputs": [],
      "name": "name",
      "outputs": [
        {
          "internalType": "string",
          "name": "",
          "type": "string"
        }
      ],
      "stateMutability": "view",
      "type": "function"
    },
    {
      "inputs": [],
      "name": "owner",
      "outputs": [
        {
          "internalType": "address",
          "name": "",
          "type": "address"
        }
      ],
      "stateMutability": "view",
      "type": "function"
    },
    {
      "inputs": [
        {
          "internalType": "uint256",
          "name": "tokenId",
          "type": "uint256"
        }
      ],
      "name": "ownerOf",
      "outputs": [
        {
          "internalType": "address",
          "name": "",
          "type": "address"
        }
      ],
      "stateMutability": "view",
      "type": "function"
    },
    {
      "inputs": [],
      "name": "renounceOwnership",
      "outputs": [],
      "stateMutability": "nonpayable",
      "type": "function"
    },
    {
      "inputs": [
        {
          "internalType": "address",
          "name": "from",
          "type": "address"
        },
        {
          "internalType": "address",
          "name": "to",
          "type": "address"
        },
        {
          "internalType": "uint256",
          "name": "tokenId",
          "type": "uint256"
        }
      ],
      "name": "safeTransferFrom",
      "outputs": [],
      "stateMutability": "nonpayable",
      "type": "function"
    },
    {
      "inputs": [
        {
          "internalType": "address",
          "name": "from",
          "type": "address"
        },
        {
          "internalType": "address",
          "name": "to",
          "type": "address"
        },
        {
          "internalType": "uint256",
          "name": "tokenId",
          "type": "uint256"
        },
        {
          "internalType": "bytes",
          "name": "_data",
          "type": "bytes"
        }
      ],
      "name": "safeTransferFrom",
      "outputs": [],
      "stateMutability": "nonpayable",
      "type": "function"
    },
    {
      "inputs": [
        {
          "internalType": "address",
          "name": "operator",
          "type": "address"
        },
        {
          "internalType": "bool",
          "name": "approved",
          "type": "bool"
        }
      ],
      "name": "setApprovalForAll",
      "outputs": [],
      "stateMutability": "nonpayable",
      "type": "function"
    },
    {
      "inputs": [
        {
          "internalType": "bytes4",
          "name": "interfaceId",
          "type": "bytes4"
        }
      ],
      "name": "supportsInterface",
      "outputs": [
        {
          "internalType": "bool",
          "name": "",
          "type": "bool"
        }
      ],
      "stateMutability": "view",
      "type": "function"
    },
    {
      "inputs": [],
      "name": "symbol",
      "outputs": [
        {
          "internalType": "string",
          "name": "",
          "type": "string"
        }
      ],
      "stateMutability": "view",
      "type": "function"
    },
    {
      "inputs": [
        {
          "internalType": "uint256",
          "name": "index",
          "type": "uint256"
        }
      ],
      "name": "tokenByIndex",
      "outputs": [
        {
          "internalType": "uint256",
          "name": "",
          "type": "uint256"
        }
      ],
      "stateMutability": "view",
      "type": "function"
    },
    {
      "inputs": [],
      "name": "tokenCount",
      "outputs": [
        {
          "internalType": "uint256",
          "name": "",
          "type": "uint256"
        }
      ],
      "stateMutability": "view",
      "type": "function"
    },
    {
      "inputs": [
        {
          "internalType": "address",
          "name": "owner",
          "type": "address"
        },
        {
          "internalType": "uint256",
          "name": "index",
          "type": "uint256"
        }
      ],
      "name": "tokenOfOwnerByIndex",
      "outputs": [
        {
          "internalType": "uint256",
          "name": "",
          "type": "uint256"
        }
      ],
      "stateMutability": "view",
      "type": "function"
    },
    {
      "inputs": [],
      "name": "totalSupply",
      "outputs": [
        {
          "internalType": "uint256",
          "name": "",
          "type": "uint256"
        }
      ],
      "stateMutability": "view",
      "type": "function"
    },
    {
      "inputs": [
        {
          "internalType": "address",
          "name": "from",
          "type": "address"
        },
        {
          "internalType": "address",
          "name": "to",
          "type": "address"
        },
        {
          "internalType": "uint256",
          "name": "tokenId",
          "type": "uint256"
        }
      ],
      "name": "transferFrom",
      "outputs": [],
      "stateMutability": "nonpayable",
      "type": "function"
    },
    {
      "inputs": [
        {
          "internalType": "address",
          "name": "newOwner",
          "type": "address"
        }
      ],
      "name": "transferOwnership",
      "outputs": [],
      "stateMutability": "nonpayable",
      "type": "function"
    },
    {
      "inputs": [
        {
          "internalType": "string[]",
          "name": "confList",
          "type": "string[]"
        }
      ],
      "name": "addToConfList",
      "outputs": [],
      "stateMutability": "nonpayable",
      "type": "function"
    },
    {
      "inputs": [
        {
          "internalType": "string",
          "name": "confCode",
          "type": "string"
        }
      ],
      "name": "mint",
      "outputs": [],
      "stateMutability": "nonpayable",
      "type": "function"
    },
    {
      "inputs": [
        {
          "internalType": "bool",
          "name": "_isActive",
          "type": "bool"
        }
      ],
      "name": "setIsActive",
      "outputs": [],
      "stateMutability": "nonpayable",
      "type": "function"
    },
    {
      "inputs": [
        {
          "internalType": "string",
          "name": "URI",
          "type": "string"
        }
      ],
      "name": "setContractURI",
      "outputs": [],
      "stateMutability": "nonpayable",
      "type": "function"
    },
    {
      "inputs": [
        {
          "internalType": "string",
          "name": "URI",
          "type": "string"
        }
      ],
      "name": "setTokenURI",
      "outputs": [],
      "stateMutability": "nonpayable",
      "type": "function"
    },
    {
      "inputs": [],
      "name": "contractURI",
      "outputs": [
        {
          "internalType": "string",
          "name": "",
          "type": "string"
        }
      ],
      "stateMutability": "view",
      "type": "function"
    },
    {
      "inputs": [
        {
          "internalType": "uint256",
          "name": "tokenId",
          "type": "uint256"
        }
      ],
      "name": "tokenURI",
      "outputs": [
        {
          "internalType": "string",
          "name": "",
          "type": "string"
        }
      ],
      "stateMutability": "view",
      "type": "function"
    }
  ],
  "bytecode": "0x608060405260405180602001604052806000815250600e90805190602001906200002b929190620001e8565b5060405180602001604052806000815250600f908051906020019062000053929190620001e8565b503480156200006157600080fd5b50604051620045c3380380620045c3833981810160405281019062000087919062000316565b81818160009080519060200190620000a1929190620001e8565b508060019080519060200190620000ba929190620001e8565b505050620000ef620000da6200011a640100000000026401000000009004565b62000122640100000000026401000000009004565b6000600b819055506000600c60006101000a81548160ff02191690831515021790555050506200051f565b600033905090565b6000600a60009054906101000a900473ffffffffffffffffffffffffffffffffffffffff16905081600a60006101000a81548173ffffffffffffffffffffffffffffffffffffffff021916908373ffffffffffffffffffffffffffffffffffffffff1602179055508173ffffffffffffffffffffffffffffffffffffffff168173ffffffffffffffffffffffffffffffffffffffff167f8be0079c531659141344cd1fd0a4f28419497f9722a3daafe3b4186f6b6457e060405160405180910390a35050565b828054620001f69062000430565b90600052602060002090601f0160209004810192826200021a576000855562000266565b82601f106200023557805160ff191683800117855562000266565b8280016001018555821562000266579182015b828111156200026557825182559160200191906001019062000248565b5b50905062000275919062000279565b5090565b5b80821115620002945760008160009055506001016200027a565b5090565b6000620002af620002a984620003c4565b6200039b565b905082815260208101848484011115620002ce57620002cd620004ff565b5b620002db848285620003fa565b509392505050565b600082601f830112620002fb57620002fa620004fa565b5b81516200030d84826020860162000298565b91505092915050565b6000806040838503121562000330576200032f62000509565b5b600083015167ffffffffffffffff81111562000351576200035062000504565b5b6200035f85828601620002e3565b925050602083015167ffffffffffffffff81111562000383576200038262000504565b5b6200039185828601620002e3565b9150509250929050565b6000620003a7620003ba565b9050620003b5828262000466565b919050565b6000604051905090565b600067ffffffffffffffff821115620003e257620003e1620004cb565b5b620003ed826200050e565b9050602081019050919050565b60005b838110156200041a578082015181840152602081019050620003fd565b838111156200042a576000848401525b50505050565b600060028204905060018216806200044957607f821691505b6020821081141562000460576200045f6200049c565b5b50919050565b62000471826200050e565b810181811067ffffffffffffffff82111715620004935762000492620004cb565b5b80604052505050565b7f4e487b7100000000000000000000000000000000000000000000000000000000600052602260045260246000fd5b7f4e487b7100000000000000000000000000000000000000000000000000000000600052604160045260246000fd5b600080fd5b600080fd5b600080fd5b600080fd5b6000601f19601f8301169050919050565b614094806200052f6000396000f3fe608060405234801561001057600080fd5b50600436106101c6576000357c01000000000000000000000000000000000000000000000000000000009004806370a0823111610116578063b88d4fde116100b4578063e0df5b6f1161008e578063e0df5b6f146104d5578063e8a3d485146104f1578063e985e9c51461050f578063f2fde38b1461053f576101c6565b8063b88d4fde1461046d578063c87b56dd14610489578063d85d3d27146104b9576101c6565b8063938e3d7b116100f0578063938e3d7b146103f957806395d89b41146104155780639f181b5e14610433578063a22cb46514610451576101c6565b806370a08231146103a1578063715018a6146103d15780638da5cb5b146103db576101c6565b806322f3e2d4116101835780632f745c591161015d5780632f745c59146102f557806342842e0e146103255780634f6ccce7146103415780636352211e14610371576101c6565b806322f3e2d41461029f57806323b872dd146102bd5780632750fc78146102d9576101c6565b806301ffc9a7146101cb57806306fdde03146101fb578063081812fc14610219578063095ea7b3146102495780630d0341bf1461026557806318160ddd14610281575b600080fd5b6101e560048036038101906101e09190612d18565b61055b565b6040516101f29190613320565b60405180910390f35b6102036105d5565b604051610210919061333b565b60405180910390f35b610233600480360381019061022e9190612e08565b610667565b60405161024091906132b9565b60405180910390f35b610263600480360381019061025e9190612c5e565b6106ec565b005b61027f600480360381019061027a9190612c9e565b610804565b005b6102896109f0565b60405161029691906135dd565b60405180910390f35b6102a76109fd565b6040516102b49190613320565b60405180910390f35b6102d760048036038101906102d29190612b48565b610a10565b005b6102f360048036038101906102ee9190612ceb565b610a70565b005b61030f600480360381019061030a9190612c5e565b610b47565b60405161031c91906135dd565b60405180910390f35b61033f600480360381019061033a9190612b48565b610bec565b005b61035b60048036038101906103569190612e08565b610c0c565b60405161036891906135dd565b60405180910390f35b61038b60048036038101906103869190612e08565b610c7d565b60405161039891906132b9565b60405180910390f35b6103bb60048036038101906103b69190612adb565b610d2f565b6040516103c891906135dd565b60405180910390f35b6103d9610de7565b005b6103e3610e6f565b6040516103f091906132b9565b60405180910390f35b610413600480360381019061040e9190612d72565b610e99565b005b61041d610f6f565b60405161042a919061333b565b60405180910390f35b61043b611001565b60405161044891906135dd565b60405180910390f35b61046b60048036038101906104669190612c1e565b611007565b005b61048760048036038101906104829190612b9b565b611188565b005b6104a3600480360381019061049e9190612e08565b6111ea565b6040516104b0919061333b565b60405180910390f35b6104d360048036038101906104ce9190612dbf565b611266565b005b6104ef60048036038101906104ea9190612d72565b61142c565b005b6104f9611502565b604051610506919061333b565b60405180910390f35b61052960048036038101906105249190612b08565b611594565b6040516105369190613320565b60405180910390f35b61055960048036038101906105549190612adb565b611628565b005b60007f780e9d63000000000000000000000000000000000000000000000000000000007bffffffffffffffffffffffffffffffffffffffffffffffffffffffff1916827bffffffffffffffffffffffffffffffffffffffffffffffffffffffff191614806105ce57506105cd82611720565b5b9050919050565b6060600080546105e4906138ab565b80601f0160208091040260200160405190810160405280929190818152602001828054610610906138ab565b801561065d5780601f106106325761010080835404028352916020019161065d565b820191906000526020600020905b81548152906001019060200180831161064057829003601f168201915b5050505050905090565b600061067282611802565b6106b1576040517f08c379a00000000000000000000000000000000000000000000000000000000081526004016106a8906134fd565b60405180910390fd5b6004600083815260200190815260200160002060009054906101000a900473ffffffffffffffffffffffffffffffffffffffff169050919050565b60006106f782610c7d565b90508073ffffffffffffffffffffffffffffffffffffffff168373ffffffffffffffffffffffffffffffffffffffff161415610768576040517f08c379a000000000000000000000000000000000000000000000000000000000815260040161075f9061355d565b60405180910390fd5b8073ffffffffffffffffffffffffffffffffffffffff1661078761186e565b73ffffffffffffffffffffffffffffffffffffffff1614806107b657506107b5816107b061186e565b611594565b5b6107f5576040517f08c379a00000000000000000000000000000000000000000000000000000000081526004016107ec9061347d565b60405180910390fd5b6107ff8383611876565b505050565b61080c61186e565b73ffffffffffffffffffffffffffffffffffffffff1661082a610e6f565b73ffffffffffffffffffffffffffffffffffffffff1614610880576040517f08c379a00000000000000000000000000000000000000000000000000000000081526004016108779061351d565b60405180910390fd5b60005b828290508110156109bf5760405180606001604052808484848181106108ac576108ab613a44565b5b90506020028101906108be91906135f8565b8080601f016020809104026020016040519081016040528093929190818152602001838380828437600081840152601f19601f820116905080830192505050505050508152602001600183610913919061373a565b815260200160011515815250600d84848481811061093457610933613a44565b5b905060200281019061094691906135f8565b604051610954929190613265565b9081526020016040518091039020600082015181600001908051906020019061097e9291906127bd565b506020820151816001015560408201518160020160006101000a81548160ff02191690831515021790555090505080806109b79061390e565b915050610883565b507fe28f796197026955b9c28cbe8b2fb9d8251cf2e5df7ee76651f41340e0d48cd960405160405180910390a15050565b6000600880549050905090565b600c60009054906101000a900460ff1681565b610a21610a1b61186e565b8261192f565b610a60576040517f08c379a0000000000000000000000000000000000000000000000000000000008152600401610a579061357d565b60405180910390fd5b610a6b838383611a0d565b505050565b610a7861186e565b73ffffffffffffffffffffffffffffffffffffffff16610a96610e6f565b73ffffffffffffffffffffffffffffffffffffffff1614610aec576040517f08c379a0000000000000000000000000000000000000000000000000000000008152600401610ae39061351d565b60405180910390fd5b80600c60006101000a81548160ff021916908315150217905550600c60009054906101000a900460ff1615157f71f032377a1043229aa0bf6a58140e5d13427d1866611d8326d523c408fa778660405160405180910390a250565b6000610b5283610d2f565b8210610b93576040517f08c379a0000000000000000000000000000000000000000000000000000000008152600401610b8a9061335d565b60405180910390fd5b600660008473ffffffffffffffffffffffffffffffffffffffff1673ffffffffffffffffffffffffffffffffffffffff168152602001908152602001600020600083815260200190815260200160002054905092915050565b610c0783838360405180602001604052806000815250611188565b505050565b6000610c166109f0565b8210610c57576040517f08c379a0000000000000000000000000000000000000000000000000000000008152600401610c4e9061359d565b60405180910390fd5b60088281548110610c6b57610c6a613a44565b5b90600052602060002001549050919050565b6000806002600084815260200190815260200160002060009054906101000a900473ffffffffffffffffffffffffffffffffffffffff169050600073ffffffffffffffffffffffffffffffffffffffff168173ffffffffffffffffffffffffffffffffffffffff161415610d26576040517f08c379a0000000000000000000000000000000000000000000000000000000008152600401610d1d906134bd565b60405180910390fd5b80915050919050565b60008073ffffffffffffffffffffffffffffffffffffffff168273ffffffffffffffffffffffffffffffffffffffff161415610da0576040517f08c379a0000000000000000000000000000000000000000000000000000000008152600401610d979061349d565b60405180910390fd5b600360008373ffffffffffffffffffffffffffffffffffffffff1673ffffffffffffffffffffffffffffffffffffffff168152602001908152602001600020549050919050565b610def61186e565b73ffffffffffffffffffffffffffffffffffffffff16610e0d610e6f565b73ffffffffffffffffffffffffffffffffffffffff1614610e63576040517f08c379a0000000000000000000000000000000000000000000000000000000008152600401610e5a9061351d565b60405180910390fd5b610e6d6000611c69565b565b6000600a60009054906101000a900473ffffffffffffffffffffffffffffffffffffffff16905090565b610ea161186e565b73ffffffffffffffffffffffffffffffffffffffff16610ebf610e6f565b73ffffffffffffffffffffffffffffffffffffffff1614610f15576040517f08c379a0000000000000000000000000000000000000000000000000000000008152600401610f0c9061351d565b60405180910390fd5b8181600e9190610f26929190612843565b508181604051610f37929190613265565b60405180910390207f905d981207a7d0b6c62cc46ab0be2a076d0298e4a86d0ab79882dbd01ac3737860405160405180910390a25050565b606060018054610f7e906138ab565b80601f0160208091040260200160405190810160405280929190818152602001828054610faa906138ab565b8015610ff75780601f10610fcc57610100808354040283529160200191610ff7565b820191906000526020600020905b815481529060010190602001808311610fda57829003601f168201915b5050505050905090565b600b5481565b61100f61186e565b73ffffffffffffffffffffffffffffffffffffffff168273ffffffffffffffffffffffffffffffffffffffff16141561107d576040517f08c379a0000000000000000000000000000000000000000000000000000000008152600401611074906133fd565b60405180910390fd5b806005600061108a61186e565b73ffffffffffffffffffffffffffffffffffffffff1673ffffffffffffffffffffffffffffffffffffffff16815260200190815260200160002060008473ffffffffffffffffffffffffffffffffffffffff1673ffffffffffffffffffffffffffffffffffffffff16815260200190815260200160002060006101000a81548160ff0219169083151502179055508173ffffffffffffffffffffffffffffffffffffffff1661113761186e565b73ffffffffffffffffffffffffffffffffffffffff167f17307eab39ab6107e8899845ad3d59bd9653f200f220920489ca2b5937696c318360405161117c9190613320565b60405180910390a35050565b61119961119361186e565b8361192f565b6111d8576040517f08c379a00000000000000000000000000000000000000000000000000000000081526004016111cf9061357d565b60405180910390fd5b6111e484848484611d2f565b50505050565b60606111f582611802565b611234576040517f08c379a000000000000000000000000000000000000000000000000000000000815260040161122b9061341d565b60405180910390fd5b600f61123f83611d8b565b604051602001611250929190613295565b6040516020818303038152906040529050919050565b60011515600c60009054906101000a900460ff161515146112bc576040517f08c379a00000000000000000000000000000000000000000000000000000000081526004016112b3906135bd565b60405180910390fd5b8060011515600d826040516112d1919061327e565b908152602001604051809103902060020160009054906101000a900460ff16151514611332576040517f08c379a00000000000000000000000000000000000000000000000000000000081526004016113299061345d565b60405180910390fd5b6000600d83604051611344919061327e565b908152602001604051809103902060020160006101000a81548160ff02191690831515021790555061139733600d84604051611380919061327e565b908152602001604051809103902060010154611f0b565b600d826040516113a7919061327e565b9081526020016040518091039020600101543373ffffffffffffffffffffffffffffffffffffffff167fb9144c96c86541f6fa89c9f2f02495cccf4b08cd6643e26d34ee00aa586558a860405160405180910390a37fe28f796197026955b9c28cbe8b2fb9d8251cf2e5df7ee76651f41340e0d48cd960405160405180910390a15050565b61143461186e565b73ffffffffffffffffffffffffffffffffffffffff16611452610e6f565b73ffffffffffffffffffffffffffffffffffffffff16146114a8576040517f08c379a000000000000000000000000000000000000000000000000000000000815260040161149f9061351d565b60405180910390fd5b8181600f91906114b9929190612843565b5081816040516114ca929190613265565b60405180910390207f3d25540fafb277423a5c9552c25096f7c0c69178c044fd61c947046f08fb09ca60405160405180910390a25050565b6060600e8054611511906138ab565b80601f016020809104026020016040519081016040528092919081815260200182805461153d906138ab565b801561158a5780601f1061155f5761010080835404028352916020019161158a565b820191906000526020600020905b81548152906001019060200180831161156d57829003601f168201915b5050505050905090565b6000600560008473ffffffffffffffffffffffffffffffffffffffff1673ffffffffffffffffffffffffffffffffffffffff16815260200190815260200160002060008373ffffffffffffffffffffffffffffffffffffffff1673ffffffffffffffffffffffffffffffffffffffff16815260200190815260200160002060009054906101000a900460ff16905092915050565b61163061186e565b73ffffffffffffffffffffffffffffffffffffffff1661164e610e6f565b73ffffffffffffffffffffffffffffffffffffffff16146116a4576040517f08c379a000000000000000000000000000000000000000000000000000000000815260040161169b9061351d565b60405180910390fd5b600073ffffffffffffffffffffffffffffffffffffffff168173ffffffffffffffffffffffffffffffffffffffff161415611714576040517f08c379a000000000000000000000000000000000000000000000000000000000815260040161170b9061339d565b60405180910390fd5b61171d81611c69565b50565b60007f80ac58cd000000000000000000000000000000000000000000000000000000007bffffffffffffffffffffffffffffffffffffffffffffffffffffffff1916827bffffffffffffffffffffffffffffffffffffffffffffffffffffffff191614806117eb57507f5b5e139f000000000000000000000000000000000000000000000000000000007bffffffffffffffffffffffffffffffffffffffffffffffffffffffff1916827bffffffffffffffffffffffffffffffffffffffffffffffffffffffff1916145b806117fb57506117fa82611f29565b5b9050919050565b60008073ffffffffffffffffffffffffffffffffffffffff166002600084815260200190815260200160002060009054906101000a900473ffffffffffffffffffffffffffffffffffffffff1673ffffffffffffffffffffffffffffffffffffffff1614159050919050565b600033905090565b816004600083815260200190815260200160002060006101000a81548173ffffffffffffffffffffffffffffffffffffffff021916908373ffffffffffffffffffffffffffffffffffffffff160217905550808273ffffffffffffffffffffffffffffffffffffffff166118e983610c7d565b73ffffffffffffffffffffffffffffffffffffffff167f8c5be1e5ebec7d5bd14f71427d1e84f3dd0314c0f7b2291e5b200ac8c7c3b92560405160405180910390a45050565b600061193a82611802565b611979576040517f08c379a00000000000000000000000000000000000000000000000000000000081526004016119709061343d565b60405180910390fd5b600061198483610c7d565b90508073ffffffffffffffffffffffffffffffffffffffff168473ffffffffffffffffffffffffffffffffffffffff1614806119f357508373ffffffffffffffffffffffffffffffffffffffff166119db84610667565b73ffffffffffffffffffffffffffffffffffffffff16145b80611a045750611a038185611594565b5b91505092915050565b8273ffffffffffffffffffffffffffffffffffffffff16611a2d82610c7d565b73ffffffffffffffffffffffffffffffffffffffff1614611a83576040517f08c379a0000000000000000000000000000000000000000000000000000000008152600401611a7a9061353d565b60405180910390fd5b600073ffffffffffffffffffffffffffffffffffffffff168273ffffffffffffffffffffffffffffffffffffffff161415611af3576040517f08c379a0000000000000000000000000000000000000000000000000000000008152600401611aea906133dd565b60405180910390fd5b611afe838383611f93565b611b09600082611876565b6001600360008573ffffffffffffffffffffffffffffffffffffffff1673ffffffffffffffffffffffffffffffffffffffff1681526020019081526020016000206000828254611b5991906137c1565b925050819055506001600360008473ffffffffffffffffffffffffffffffffffffffff1673ffffffffffffffffffffffffffffffffffffffff1681526020019081526020016000206000828254611bb0919061373a565b92505081905550816002600083815260200190815260200160002060006101000a81548173ffffffffffffffffffffffffffffffffffffffff021916908373ffffffffffffffffffffffffffffffffffffffff160217905550808273ffffffffffffffffffffffffffffffffffffffff168473ffffffffffffffffffffffffffffffffffffffff167fddf252ad1be2c89b69c2b068fc378daa952ba7f163c4a11628f55a4df523b3ef60405160405180910390a4505050565b6000600a60009054906101000a900473ffffffffffffffffffffffffffffffffffffffff16905081600a60006101000a81548173ffffffffffffffffffffffffffffffffffffffff021916908373ffffffffffffffffffffffffffffffffffffffff1602179055508173ffffffffffffffffffffffffffffffffffffffff168173ffffffffffffffffffffffffffffffffffffffff167f8be0079c531659141344cd1fd0a4f28419497f9722a3daafe3b4186f6b6457e060405160405180910390a35050565b611d3a848484611a0d565b611d46848484846120a7565b611d85576040517f08c379a0000000000000000000000000000000000000000000000000000000008152600401611d7c9061337d565b60405180910390fd5b50505050565b60606000821415611dd3576040518060400160405280600181526020017f30000000000000000000000000000000000000000000000000000000000000008152509050611f06565b600082905060005b60008214611e05578080611dee9061390e565b915050600a82611dfe9190613790565b9150611ddb565b60008167ffffffffffffffff811115611e2157611e20613a73565b5b6040519080825280601f01601f191660200182016040528015611e535781602001600182028036833780820191505090505b5090505b60008514611eff57600182611e6c91906137c1565b9150600a85611e7b9190613957565b6030611e87919061373a565b7f010000000000000000000000000000000000000000000000000000000000000002818381518110611ebc57611ebb613a44565b5b60200101907effffffffffffffffffffffffffffffffffffffffffffffffffffffffffffff1916908160001a905350600a85611ef89190613790565b9450611e57565b8093505050505b919050565b611f25828260405180602001604052806000815250612276565b5050565b60007f01ffc9a7000000000000000000000000000000000000000000000000000000007bffffffffffffffffffffffffffffffffffffffffffffffffffffffff1916827bffffffffffffffffffffffffffffffffffffffffffffffffffffffff1916149050919050565b611f9e8383836122d1565b600073ffffffffffffffffffffffffffffffffffffffff168373ffffffffffffffffffffffffffffffffffffffff161415611fe157611fdc816122d6565b612020565b8173ffffffffffffffffffffffffffffffffffffffff168373ffffffffffffffffffffffffffffffffffffffff161461201f5761201e838261231f565b5b5b600073ffffffffffffffffffffffffffffffffffffffff168273ffffffffffffffffffffffffffffffffffffffff1614156120635761205e8161248c565b6120a2565b8273ffffffffffffffffffffffffffffffffffffffff168273ffffffffffffffffffffffffffffffffffffffff16146120a1576120a0828261255d565b5b5b505050565b60006120c88473ffffffffffffffffffffffffffffffffffffffff166125dc565b15612269578373ffffffffffffffffffffffffffffffffffffffff1663150b7a026120f161186e565b8786866040518563ffffffff167c010000000000000000000000000000000000000000000000000000000002815260040161212f94939291906132d4565b602060405180830381600087803b15801561214957600080fd5b505af192505050801561217a57506040513d601f19601f820116820180604052508101906121779190612d45565b60015b6121fd573d80600081146121aa576040519150601f19603f3d011682016040523d82523d6000602084013e6121af565b606091505b506000815114156121f5576040517f08c379a00000000000000000000000000000000000000000000000000000000081526004016121ec9061337d565b60405180910390fd5b805181602001fd5b63150b7a027c0100000000000000000000000000000000000000000000000000000000027bffffffffffffffffffffffffffffffffffffffffffffffffffffffff1916817bffffffffffffffffffffffffffffffffffffffffffffffffffffffff19161491505061226e565b600190505b949350505050565b61228083836125ef565b61228d60008484846120a7565b6122cc576040517f08c379a00000000000000000000000000000000000000000000000000000000081526004016122c39061337d565b60405180910390fd5b505050565b505050565b6008805490506009600083815260200190815260200160002081905550600881908060018154018082558091505060019003906000526020600020016000909190919091505550565b6000600161232c84610d2f565b61233691906137c1565b905060006007600084815260200190815260200160002054905081811461241b576000600660008673ffffffffffffffffffffffffffffffffffffffff1673ffffffffffffffffffffffffffffffffffffffff168152602001908152602001600020600084815260200190815260200160002054905080600660008773ffffffffffffffffffffffffffffffffffffffff1673ffffffffffffffffffffffffffffffffffffffff168152602001908152602001600020600084815260200190815260200160002081905550816007600083815260200190815260200160002081905550505b6007600084815260200190815260200160002060009055600660008573ffffffffffffffffffffffffffffffffffffffff1673ffffffffffffffffffffffffffffffffffffffff16815260200190815260200160002060008381526020019081526020016000206000905550505050565b600060016008805490506124a091906137c1565b90506000600960008481526020019081526020016000205490506000600883815481106124d0576124cf613a44565b5b9060005260206000200154905080600883815481106124f2576124f1613a44565b5b90600052602060002001819055508160096000838152602001908152602001600020819055506009600085815260200190815260200160002060009055600880548061254157612540613a15565b5b6001900381819060005260206000200160009055905550505050565b600061256883610d2f565b905081600660008573ffffffffffffffffffffffffffffffffffffffff1673ffffffffffffffffffffffffffffffffffffffff168152602001908152602001600020600083815260200190815260200160002081905550806007600084815260200190815260200160002081905550505050565b600080823b905060008111915050919050565b600073ffffffffffffffffffffffffffffffffffffffff168273ffffffffffffffffffffffffffffffffffffffff16141561265f576040517f08c379a0000000000000000000000000000000000000000000000000000000008152600401612656906134dd565b60405180910390fd5b61266881611802565b156126a8576040517f08c379a000000000000000000000000000000000000000000000000000000000815260040161269f906133bd565b60405180910390fd5b6126b460008383611f93565b6001600360008473ffffffffffffffffffffffffffffffffffffffff1673ffffffffffffffffffffffffffffffffffffffff1681526020019081526020016000206000828254612704919061373a565b92505081905550816002600083815260200190815260200160002060006101000a81548173ffffffffffffffffffffffffffffffffffffffff021916908373ffffffffffffffffffffffffffffffffffffffff160217905550808273ffffffffffffffffffffffffffffffffffffffff16600073ffffffffffffffffffffffffffffffffffffffff167fddf252ad1be2c89b69c2b068fc378daa952ba7f163c4a11628f55a4df523b3ef60405160405180910390a45050565b8280546127c9906138ab565b90600052602060002090601f0160209004810192826127eb5760008555612832565b82601f1061280457805160ff1916838001178555612832565b82800160010185558215612832579182015b82811115612831578251825591602001919060010190612816565b5b50905061283f91906128c9565b5090565b82805461284f906138ab565b90600052602060002090601f01602090048101928261287157600085556128b8565b82601f1061288a57803560ff19168380011785556128b8565b828001600101855582156128b8579182015b828111156128b757823582559160200191906001019061289c565b5b5090506128c591906128c9565b5090565b5b808211156128e25760008160009055506001016128ca565b5090565b60006128f96128f484613680565b61365b565b90508281526020810184848401111561291557612914613ac0565b5b612920848285613869565b509392505050565b600061293b612936846136b1565b61365b565b90508281526020810184848401111561295757612956613ac0565b5b612962848285613869565b509392505050565b60008135905061297981614002565b92915050565b60008083601f84011261299557612994613aa7565b5b8235905067ffffffffffffffff8111156129b2576129b1613aa2565b5b6020830191508360208202830111156129ce576129cd613ab6565b5b9250929050565b6000813590506129e481614019565b92915050565b6000813590506129f981614030565b92915050565b600081519050612a0e81614030565b92915050565b600082601f830112612a2957612a28613aa7565b5b8135612a398482602086016128e6565b91505092915050565b60008083601f840112612a5857612a57613aa7565b5b8235905067ffffffffffffffff811115612a7557612a74613aa2565b5b602083019150836001820283011115612a9157612a90613ab6565b5b9250929050565b600082601f830112612aad57612aac613aa7565b5b8135612abd848260208601612928565b91505092915050565b600081359050612ad581614047565b92915050565b600060208284031215612af157612af0613aca565b5b6000612aff8482850161296a565b91505092915050565b60008060408385031215612b1f57612b1e613aca565b5b6000612b2d8582860161296a565b9250506020612b3e8582860161296a565b9150509250929050565b600080600060608486031215612b6157612b60613aca565b5b6000612b6f8682870161296a565b9350506020612b808682870161296a565b9250506040612b9186828701612ac6565b9150509250925092565b60008060008060808587031215612bb557612bb4613aca565b5b6000612bc38782880161296a565b9450506020612bd48782880161296a565b9350506040612be587828801612ac6565b925050606085013567ffffffffffffffff811115612c0657612c05613ac5565b5b612c1287828801612a14565b91505092959194509250565b60008060408385031215612c3557612c34613aca565b5b6000612c438582860161296a565b9250506020612c54858286016129d5565b9150509250929050565b60008060408385031215612c7557612c74613aca565b5b6000612c838582860161296a565b9250506020612c9485828601612ac6565b9150509250929050565b60008060208385031215612cb557612cb4613aca565b5b600083013567ffffffffffffffff811115612cd357612cd2613ac5565b5b612cdf8582860161297f565b92509250509250929050565b600060208284031215612d0157612d00613aca565b5b6000612d0f848285016129d5565b91505092915050565b600060208284031215612d2e57612d2d613aca565b5b6000612d3c848285016129ea565b91505092915050565b600060208284031215612d5b57612d5a613aca565b5b6000612d69848285016129ff565b91505092915050565b60008060208385031215612d8957612d88613aca565b5b600083013567ffffffffffffffff811115612da757612da6613ac5565b5b612db385828601612a42565b92509250509250929050565b600060208284031215612dd557612dd4613aca565b5b600082013567ffffffffffffffff811115612df357612df2613ac5565b5b612dff84828501612a98565b91505092915050565b600060208284031215612e1e57612e1d613aca565b5b6000612e2c84828501612ac6565b91505092915050565b612e3e816137f5565b82525050565b612e4d81613807565b82525050565b6000612e5e826136f7565b612e68818561370d565b9350612e78818560208601613878565b612e8181613acf565b840191505092915050565b6000612e98838561372f565b9350612ea5838584613869565b82840190509392505050565b6000612ebc82613702565b612ec6818561371e565b9350612ed6818560208601613878565b612edf81613acf565b840191505092915050565b6000612ef582613702565b612eff818561372f565b9350612f0f818560208601613878565b80840191505092915050565b60008154612f28816138ab565b612f32818661372f565b94506001821660008114612f4d5760018114612f5e57612f91565b60ff19831686528186019350612f91565b612f67856136e2565b60005b83811015612f8957815481890152600182019150602081019050612f6a565b838801955050505b50505092915050565b6000612fa7602b8361371e565b9150612fb282613ae0565b604082019050919050565b6000612fca60328361371e565b9150612fd582613b2f565b604082019050919050565b6000612fed60268361371e565b9150612ff882613b7e565b604082019050919050565b6000613010601c8361371e565b915061301b82613bcd565b602082019050919050565b600061303360248361371e565b915061303e82613bf6565b604082019050919050565b600061305660198361371e565b915061306182613c45565b602082019050919050565b600061307960148361371e565b915061308482613c6e565b602082019050919050565b600061309c602c8361371e565b91506130a782613c97565b604082019050919050565b60006130bf60128361371e565b91506130ca82613ce6565b602082019050919050565b60006130e260388361371e565b91506130ed82613d0f565b604082019050919050565b6000613105602a8361371e565b915061311082613d5e565b604082019050919050565b600061312860298361371e565b915061313382613dad565b604082019050919050565b600061314b60208361371e565b915061315682613dfc565b602082019050919050565b600061316e602c8361371e565b915061317982613e25565b604082019050919050565b600061319160208361371e565b915061319c82613e74565b602082019050919050565b60006131b460298361371e565b91506131bf82613e9d565b604082019050919050565b60006131d760218361371e565b91506131e282613eec565b604082019050919050565b60006131fa60318361371e565b915061320582613f3b565b604082019050919050565b600061321d602c8361371e565b915061322882613f8a565b604082019050919050565b600061324060168361371e565b915061324b82613fd9565b602082019050919050565b61325f8161385f565b82525050565b6000613272828486612e8c565b91508190509392505050565b600061328a8284612eea565b915081905092915050565b60006132a18285612f1b565b91506132ad8284612eea565b91508190509392505050565b60006020820190506132ce6000830184612e35565b92915050565b60006080820190506132e96000830187612e35565b6132f66020830186612e35565b6133036040830185613256565b81810360608301526133158184612e53565b905095945050505050565b60006020820190506133356000830184612e44565b92915050565b600060208201905081810360008301526133558184612eb1565b905092915050565b6000602082019050818103600083015261337681612f9a565b9050919050565b6000602082019050818103600083015261339681612fbd565b9050919050565b600060208201905081810360008301526133b681612fe0565b9050919050565b600060208201905081810360008301526133d681613003565b9050919050565b600060208201905081810360008301526133f681613026565b9050919050565b6000602082019050818103600083015261341681613049565b9050919050565b600060208201905081810360008301526134368161306c565b9050919050565b600060208201905081810360008301526134568161308f565b9050919050565b60006020820190508181036000830152613476816130b2565b9050919050565b60006020820190508181036000830152613496816130d5565b9050919050565b600060208201905081810360008301526134b6816130f8565b9050919050565b600060208201905081810360008301526134d68161311b565b9050919050565b600060208201905081810360008301526134f68161313e565b9050919050565b6000602082019050818103600083015261351681613161565b9050919050565b6000602082019050818103600083015261353681613184565b9050919050565b60006020820190508181036000830152613556816131a7565b9050919050565b60006020820190508181036000830152613576816131ca565b9050919050565b60006020820190508181036000830152613596816131ed565b9050919050565b600060208201905081810360008301526135b681613210565b9050919050565b600060208201905081810360008301526135d681613233565b9050919050565b60006020820190506135f26000830184613256565b92915050565b6000808335600160200384360303811261361557613614613ab1565b5b80840192508235915067ffffffffffffffff82111561363757613636613aac565b5b60208301925060018202360383131561365357613652613abb565b5b509250929050565b6000613665613676565b905061367182826138dd565b919050565b6000604051905090565b600067ffffffffffffffff82111561369b5761369a613a73565b5b6136a482613acf565b9050602081019050919050565b600067ffffffffffffffff8211156136cc576136cb613a73565b5b6136d582613acf565b9050602081019050919050565b60008190508160005260206000209050919050565b600081519050919050565b600081519050919050565b600082825260208201905092915050565b600082825260208201905092915050565b600081905092915050565b60006137458261385f565b91506137508361385f565b9250827fffffffffffffffffffffffffffffffffffffffffffffffffffffffffffffffff0382111561378557613784613988565b5b828201905092915050565b600061379b8261385f565b91506137a68361385f565b9250826137b6576137b56139b7565b5b828204905092915050565b60006137cc8261385f565b91506137d78361385f565b9250828210156137ea576137e9613988565b5b828203905092915050565b60006138008261383f565b9050919050565b60008115159050919050565b60007fffffffff0000000000000000000000000000000000000000000000000000000082169050919050565b600073ffffffffffffffffffffffffffffffffffffffff82169050919050565b6000819050919050565b82818337600083830152505050565b60005b8381101561389657808201518184015260208101905061387b565b838111156138a5576000848401525b50505050565b600060028204905060018216806138c357607f821691505b602082108114156138d7576138d66139e6565b5b50919050565b6138e682613acf565b810181811067ffffffffffffffff8211171561390557613904613a73565b5b80604052505050565b60006139198261385f565b91507fffffffffffffffffffffffffffffffffffffffffffffffffffffffffffffffff82141561394c5761394b613988565b5b600182019050919050565b60006139628261385f565b915061396d8361385f565b92508261397d5761397c6139b7565b5b828206905092915050565b7f4e487b7100000000000000000000000000000000000000000000000000000000600052601160045260246000fd5b7f4e487b7100000000000000000000000000000000000000000000000000000000600052601260045260246000fd5b7f4e487b7100000000000000000000000000000000000000000000000000000000600052602260045260246000fd5b7f4e487b7100000000000000000000000000000000000000000000000000000000600052603160045260246000fd5b7f4e487b7100000000000000000000000000000000000000000000000000000000600052603260045260246000fd5b7f4e487b7100000000000000000000000000000000000000000000000000000000600052604160045260246000fd5b600080fd5b600080fd5b600080fd5b600080fd5b600080fd5b600080fd5b600080fd5b600080fd5b600080fd5b6000601f19601f8301169050919050565b7f455243373231456e756d657261626c653a206f776e657220696e646578206f7560008201527f74206f6620626f756e6473000000000000000000000000000000000000000000602082015250565b7f4552433732313a207472616e7366657220746f206e6f6e20455243373231526560008201527f63656976657220696d706c656d656e7465720000000000000000000000000000602082015250565b7f4f776e61626c653a206e6577206f776e657220697320746865207a65726f206160008201527f6464726573730000000000000000000000000000000000000000000000000000602082015250565b7f4552433732313a20746f6b656e20616c7265616479206d696e74656400000000600082015250565b7f4552433732313a207472616e7366657220746f20746865207a65726f2061646460008201527f7265737300000000000000000000000000000000000000000000000000000000602082015250565b7f4552433732313a20617070726f766520746f2063616c6c657200000000000000600082015250565b7f546f6b656e20646f6573206e6f74206578697374000000000000000000000000600082015250565b7f4552433732313a206f70657261746f7220717565727920666f72206e6f6e657860008201527f697374656e7420746f6b656e0000000000000000000000000000000000000000602082015250565b7f436f6465204973204e6f74204163746976650000000000000000000000000000600082015250565b7f4552433732313a20617070726f76652063616c6c6572206973206e6f74206f7760008201527f6e6572206e6f7220617070726f76656420666f7220616c6c0000000000000000602082015250565b7f4552433732313a2062616c616e636520717565727920666f7220746865207a6560008201527f726f206164647265737300000000000000000000000000000000000000000000602082015250565b7f4552433732313a206f776e657220717565727920666f72206e6f6e657869737460008201527f656e7420746f6b656e0000000000000000000000000000000000000000000000602082015250565b7f4552433732313a206d696e7420746f20746865207a65726f2061646472657373600082015250565b7f4552433732313a20617070726f76656420717565727920666f72206e6f6e657860008201527f697374656e7420746f6b656e0000000000000000000000000000000000000000602082015250565b7f4f776e61626c653a2063616c6c6572206973206e6f7420746865206f776e6572600082015250565b7f4552433732313a207472616e73666572206f6620746f6b656e2074686174206960008201527f73206e6f74206f776e0000000000000000000000000000000000000000000000602082015250565b7f4552433732313a20617070726f76616c20746f2063757272656e74206f776e6560008201527f7200000000000000000000000000000000000000000000000000000000000000602082015250565b7f4552433732313a207472616e736665722063616c6c6572206973206e6f74206f60008201527f776e6572206e6f7220617070726f766564000000000000000000000000000000602082015250565b7f455243373231456e756d657261626c653a20676c6f62616c20696e646578206f60008201527f7574206f6620626f756e64730000000000000000000000000000000000000000602082015250565b7f436f6e7472616374204973204e6f742041637469766500000000000000000000600082015250565b61400b816137f5565b811461401657600080fd5b50565b61402281613807565b811461402d57600080fd5b50565b61403981613813565b811461404457600080fd5b50565b6140508161385f565b811461405b57600080fd5b5056fea2646970667358221220cb6c72a06cd4504afb4a2f67957ca1b2e24f4c6cdc1a25dbf0967f156c5bbea264736f6c63430008070033",
  "immutableReferences": {},
  "source": "// SPDX-License-Identifier: MIT\npragma solidity >=0.7.0 <0.9.0;\n\nimport \"@openzeppelin/contracts/token/ERC721/extensions/ERC721Enumerable.sol\";\nimport \"@openzeppelin/contracts/access/Ownable.sol\";\nimport \"@openzeppelin/contracts/utils/Strings.sol\";\n\ncontract SneakerNFT is ERC721Enumerable, Ownable {\n    using Strings for uint256;\n\n    struct Sneaker {\n        string number;\n        uint256 tokenId;\n        bool active;\n    }\n\n    uint256 public tokenCount;\n\n    /// @dev State variable to control when minting is allowed.\n    bool public isActive;\n\n    mapping(string => Sneaker) private _sneakerList;\n\n    string private _contractURI = '';\n    string private _tokenURI = '';\n\n    event SneakerListUpdated();\n    event TokenMinted(address indexed owner, uint256 indexed tokenID);\n    event ContractActive(bool indexed active);\n    event ContractURIUpdated(string indexed contractURI);\n    event TokenURIUpdated(string indexed tokenURI);\n\n    /// @dev Function modifier to require an active contract status.\n    modifier activeContract() {\n        require(isActive == true, 'Contract Is Not Active');\n        _;\n    }\n\n    /// @dev Function modifier to require an active confirmation code.\n    modifier activeCode(string memory _confCode){\n        require(_sneakerList[_confCode].active == true, 'Code Is Not Active');\n        _;\n    }\n\n    /*\n     * Functions\n     */\n    \n    /// @dev Contract constructor sets name and symbol for the sneaker NFT.\n    /// @param name is the name of the sneaker NFT\n    /// @param symbol is the symbol of the sneaker NFT\n    constructor(string memory name, string memory symbol)\n        ERC721(name, symbol)\n    {\n        tokenCount = 0;\n        isActive = false;\n    }\n\n    /// @dev Allows the owner to add confirmation codes to the list.\n    /// @param confList List of confirmation codes.\n    function addToConfList(string[] calldata confList) external onlyOwner {\n        for(uint i = 0; i < confList.length; i++) {\n            _sneakerList[confList[i]] = Sneaker({\n                number: confList[i],\n                tokenId: i + 1,\n                active: true\n            });\n        }\n        emit SneakerListUpdated();\n    }\n\n    /// @dev Allows anyone with a valid confirmation code to mint a token.\n    /// @param confCode Confirmation code.\n    function mint(string memory confCode) public activeContract activeCode(confCode) {\n        _sneakerList[confCode].active = false;\n        _safeMint(msg.sender, _sneakerList[confCode].tokenId);\n        emit TokenMinted(msg.sender, _sneakerList[confCode].tokenId);\n        emit SneakerListUpdated();\n    }\n\n    /// @dev Allows the owner to set the isActive variable.\n    /// @param _isActive Active state of the contract.\n    function setIsActive(bool _isActive) external onlyOwner {\n        isActive = _isActive;\n        emit ContractActive(isActive);\n    }\n\n    /// @dev Allows the owner to set the Contract URI.\n    /// @param URI Contract URI.\n    function setContractURI(string calldata URI) external onlyOwner {\n        _contractURI = URI;\n        emit ContractURIUpdated(URI);\n    }\n\n    /// @dev Allows the owner to set the Token URI.\n    /// @param URI Token URI.\n    function setTokenURI(string calldata URI) external onlyOwner {\n        _tokenURI = URI;\n        emit TokenURIUpdated(URI);\n    }\n\n    /// @dev Allows anyone to get the Contract URI.\n    /// @return Contract URI.\n    function contractURI() public view returns (string memory) {\n        return _contractURI;\n    }\n    \n    /// @dev Allows anyone to get the Token URI of the corresponding tokenId.\n    /// @param tokenId Token ID.\n    /// @return Token URI.\n    function tokenURI(uint256 tokenId) public view override(ERC721) returns (string memory) {\n        require(_exists(tokenId), 'Token does not exist');\n        return string(abi.encodePacked(_tokenURI, tokenId.toString()));\n    }\n}\n\ncontract SneakerFactory is Ownable {\n\n    string public ownerName;\n    mapping(address => SneakerNFT) private sneakerList;\n    \n    // Alternative way to store sneaker contracts. Need to test.\n    //mapping(string => mapping(address => SneakerNFT)) private sneakers;\n    \n\n    event newSneakerContract(address contractAddress);\n\n    /// @dev Contract constructor sets name for the sneaker brand/company.\n    /// @param name The name of the sneaker brand/company.\n    constructor(string memory name) {\n        ownerName = name;\n    }\n    \n    /// @dev Allows owner to create a new SneakerNFT contract.\n    /// @param sneakerName The name of the token.\n    /// @param symbol The symbol of the token.\n    function newSneaker(string memory sneakerName, string memory symbol)\n        public onlyOwner\n    {\n        SneakerNFT sneaker = new SneakerNFT(sneakerName, symbol);\n        sneakerList[address(sneaker)] = sneaker;\n        emit newSneakerContract(address(sneaker));\n    }\n    \n    /// @dev Allows owner to add confirmation codes to a specified contract.\n    /// @param _sneaker The address of the sneaker contract.\n    /// @param _confList The confirmation codes list.\n    function addConfListToSneaker(address _sneaker, string[] calldata _confList) external onlyOwner {\n        SneakerNFT sneaker = sneakerList[_sneaker];\n        require(address(sneaker) != address(0));\n        sneaker.addToConfList(_confList);\n    }\n    \n    /// @dev Allows owner to set sneaker contract active.\n    /// @param _sneaker The address of the sneaker contract.\n    /// @param active Active state of the sneaker contract.\n    function setSneakerActive(address _sneaker, bool active) external onlyOwner {\n        SneakerNFT sneaker = sneakerList[_sneaker];\n        require(address(sneaker) != address(0));\n        sneaker.setIsActive(active);\n    }\n    \n    \n}",
  "sourcePath": "/home/aktutia/blockchain-developer-bootcamp-final-project/src/contracts/SneakerFactory.sol",
  "compiler": {
    "name": "solc",
    "version": "0.8.7+commit.e28d00a7.Emscripten.clang"
  },
  "schemaVersion": "3.4.3",
  "updatedAt": "2021-10-06T09:36:34.595Z",
  "devdoc": {
    "kind": "dev",
    "methods": {
      "addToConfList(string[])": {
        "details": "Allows the owner to add confirmation codes to the list.",
        "params": {
          "confList": "List of confirmation codes."
        }
      },
      "approve(address,uint256)": {
        "details": "See {IERC721-approve}."
      },
      "balanceOf(address)": {
        "details": "See {IERC721-balanceOf}."
      },
      "constructor": {
        "details": "Contract constructor sets name and symbol for the sneaker NFT.",
        "params": {
          "name": "is the name of the sneaker NFT",
          "symbol": "is the symbol of the sneaker NFT"
        }
      },
      "contractURI()": {
        "details": "Allows anyone to get the Contract URI.",
        "returns": {
          "_0": "Contract URI."
        }
      },
      "getApproved(uint256)": {
        "details": "See {IERC721-getApproved}."
      },
      "isApprovedForAll(address,address)": {
        "details": "See {IERC721-isApprovedForAll}."
      },
      "mint(string)": {
        "details": "Allows anyone with a valid confirmation code to mint a token.",
        "params": {
          "confCode": "Confirmation code."
        }
      },
      "name()": {
        "details": "See {IERC721Metadata-name}."
      },
      "owner()": {
        "details": "Returns the address of the current owner."
      },
      "ownerOf(uint256)": {
        "details": "See {IERC721-ownerOf}."
      },
      "renounceOwnership()": {
        "details": "Leaves the contract without owner. It will not be possible to call `onlyOwner` functions anymore. Can only be called by the current owner. NOTE: Renouncing ownership will leave the contract without an owner, thereby removing any functionality that is only available to the owner."
      },
      "safeTransferFrom(address,address,uint256)": {
        "details": "See {IERC721-safeTransferFrom}."
      },
      "safeTransferFrom(address,address,uint256,bytes)": {
        "details": "See {IERC721-safeTransferFrom}."
      },
      "setApprovalForAll(address,bool)": {
        "details": "See {IERC721-setApprovalForAll}."
      },
      "setContractURI(string)": {
        "details": "Allows the owner to set the Contract URI.",
        "params": {
          "URI": "Contract URI."
        }
      },
      "setIsActive(bool)": {
        "details": "Allows the owner to set the isActive variable.",
        "params": {
          "_isActive": "Active state of the contract."
        }
      },
      "setTokenURI(string)": {
        "details": "Allows the owner to set the Token URI.",
        "params": {
          "URI": "Token URI."
        }
      },
      "supportsInterface(bytes4)": {
        "details": "See {IERC165-supportsInterface}."
      },
      "symbol()": {
        "details": "See {IERC721Metadata-symbol}."
      },
      "tokenByIndex(uint256)": {
        "details": "See {IERC721Enumerable-tokenByIndex}."
      },
      "tokenOfOwnerByIndex(address,uint256)": {
        "details": "See {IERC721Enumerable-tokenOfOwnerByIndex}."
      },
      "tokenURI(uint256)": {
        "details": "Allows anyone to get the Token URI of the corresponding tokenId.",
        "params": {
          "tokenId": "Token ID."
        },
        "returns": {
          "_0": "Token URI."
        }
      },
      "totalSupply()": {
        "details": "See {IERC721Enumerable-totalSupply}."
      },
      "transferFrom(address,address,uint256)": {
        "details": "See {IERC721-transferFrom}."
      },
      "transferOwnership(address)": {
        "details": "Transfers ownership of the contract to a new account (`newOwner`). Can only be called by the current owner."
      }
    },
    "stateVariables": {
      "isActive": {
        "details": "State variable to control when minting is allowed."
      }
    },
    "version": 1
  },
  "userdoc": {
    "kind": "user",
    "methods": {},
    "version": 1
  }
}