{
  "contractName": "SneakerTest",
  "abi": [
    {
      "inputs": [
        {
          "internalType": "string",
          "name": "name",
          "type": "string"
        },
        {
          "internalType": "string",
          "name": "symbol",
          "type": "string"
        }
      ],
      "stateMutability": "nonpayable",
      "type": "constructor"
    },
    {
      "anonymous": false,
      "inputs": [
        {
          "indexed": true,
          "internalType": "address",
          "name": "owner",
          "type": "address"
        },
        {
          "indexed": true,
          "internalType": "address",
          "name": "approved",
          "type": "address"
        },
        {
          "indexed": true,
          "internalType": "uint256",
          "name": "tokenId",
          "type": "uint256"
        }
      ],
      "name": "Approval",
      "type": "event"
    },
    {
      "anonymous": false,
      "inputs": [
        {
          "indexed": true,
          "internalType": "address",
          "name": "owner",
          "type": "address"
        },
        {
          "indexed": true,
          "internalType": "address",
          "name": "operator",
          "type": "address"
        },
        {
          "indexed": false,
          "internalType": "bool",
          "name": "approved",
          "type": "bool"
        }
      ],
      "name": "ApprovalForAll",
      "type": "event"
    },
    {
      "anonymous": false,
      "inputs": [
        {
          "indexed": true,
          "internalType": "address",
          "name": "previousOwner",
          "type": "address"
        },
        {
          "indexed": true,
          "internalType": "address",
          "name": "newOwner",
          "type": "address"
        }
      ],
      "name": "OwnershipTransferred",
      "type": "event"
    },
    {
      "anonymous": false,
      "inputs": [
        {
          "indexed": true,
          "internalType": "address",
          "name": "from",
          "type": "address"
        },
        {
          "indexed": true,
          "internalType": "address",
          "name": "to",
          "type": "address"
        },
        {
          "indexed": true,
          "internalType": "uint256",
          "name": "tokenId",
          "type": "uint256"
        }
      ],
      "name": "Transfer",
      "type": "event"
    },
    {
      "inputs": [
        {
          "internalType": "address",
          "name": "to",
          "type": "address"
        },
        {
          "internalType": "uint256",
          "name": "tokenId",
          "type": "uint256"
        }
      ],
      "name": "approve",
      "outputs": [],
      "stateMutability": "nonpayable",
      "type": "function"
    },
    {
      "inputs": [
        {
          "internalType": "address",
          "name": "owner",
          "type": "address"
        }
      ],
      "name": "balanceOf",
      "outputs": [
        {
          "internalType": "uint256",
          "name": "",
          "type": "uint256"
        }
      ],
      "stateMutability": "view",
      "type": "function"
    },
    {
      "inputs": [
        {
          "internalType": "uint256",
          "name": "tokenId",
          "type": "uint256"
        }
      ],
      "name": "getApproved",
      "outputs": [
        {
          "internalType": "address",
          "name": "",
          "type": "address"
        }
      ],
      "stateMutability": "view",
      "type": "function"
    },
    {
      "inputs": [],
      "name": "isActive",
      "outputs": [
        {
          "internalType": "bool",
          "name": "",
          "type": "bool"
        }
      ],
      "stateMutability": "view",
      "type": "function"
    },
    {
      "inputs": [
        {
          "internalType": "address",
          "name": "owner",
          "type": "address"
        },
        {
          "internalType": "address",
          "name": "operator",
          "type": "address"
        }
      ],
      "name": "isApprovedForAll",
      "outputs": [
        {
          "internalType": "bool",
          "name": "",
          "type": "bool"
        }
      ],
      "stateMutability": "view",
      "type": "function"
    },
    {
      "inputs": [],
      "name": "name",
      "outputs": [
        {
          "internalType": "string",
          "name": "",
          "type": "string"
        }
      ],
      "stateMutability": "view",
      "type": "function"
    },
    {
      "inputs": [],
      "name": "owner",
      "outputs": [
        {
          "internalType": "address",
          "name": "",
          "type": "address"
        }
      ],
      "stateMutability": "view",
      "type": "function"
    },
    {
      "inputs": [
        {
          "internalType": "uint256",
          "name": "tokenId",
          "type": "uint256"
        }
      ],
      "name": "ownerOf",
      "outputs": [
        {
          "internalType": "address",
          "name": "",
          "type": "address"
        }
      ],
      "stateMutability": "view",
      "type": "function"
    },
    {
      "inputs": [],
      "name": "renounceOwnership",
      "outputs": [],
      "stateMutability": "nonpayable",
      "type": "function"
    },
    {
      "inputs": [
        {
          "internalType": "address",
          "name": "from",
          "type": "address"
        },
        {
          "internalType": "address",
          "name": "to",
          "type": "address"
        },
        {
          "internalType": "uint256",
          "name": "tokenId",
          "type": "uint256"
        }
      ],
      "name": "safeTransferFrom",
      "outputs": [],
      "stateMutability": "nonpayable",
      "type": "function"
    },
    {
      "inputs": [
        {
          "internalType": "address",
          "name": "from",
          "type": "address"
        },
        {
          "internalType": "address",
          "name": "to",
          "type": "address"
        },
        {
          "internalType": "uint256",
          "name": "tokenId",
          "type": "uint256"
        },
        {
          "internalType": "bytes",
          "name": "_data",
          "type": "bytes"
        }
      ],
      "name": "safeTransferFrom",
      "outputs": [],
      "stateMutability": "nonpayable",
      "type": "function"
    },
    {
      "inputs": [
        {
          "internalType": "address",
          "name": "operator",
          "type": "address"
        },
        {
          "internalType": "bool",
          "name": "approved",
          "type": "bool"
        }
      ],
      "name": "setApprovalForAll",
      "outputs": [],
      "stateMutability": "nonpayable",
      "type": "function"
    },
    {
      "inputs": [
        {
          "internalType": "bytes4",
          "name": "interfaceId",
          "type": "bytes4"
        }
      ],
      "name": "supportsInterface",
      "outputs": [
        {
          "internalType": "bool",
          "name": "",
          "type": "bool"
        }
      ],
      "stateMutability": "view",
      "type": "function"
    },
    {
      "inputs": [],
      "name": "symbol",
      "outputs": [
        {
          "internalType": "string",
          "name": "",
          "type": "string"
        }
      ],
      "stateMutability": "view",
      "type": "function"
    },
    {
      "inputs": [
        {
          "internalType": "uint256",
          "name": "index",
          "type": "uint256"
        }
      ],
      "name": "tokenByIndex",
      "outputs": [
        {
          "internalType": "uint256",
          "name": "",
          "type": "uint256"
        }
      ],
      "stateMutability": "view",
      "type": "function"
    },
    {
      "inputs": [
        {
          "internalType": "address",
          "name": "owner",
          "type": "address"
        },
        {
          "internalType": "uint256",
          "name": "index",
          "type": "uint256"
        }
      ],
      "name": "tokenOfOwnerByIndex",
      "outputs": [
        {
          "internalType": "uint256",
          "name": "",
          "type": "uint256"
        }
      ],
      "stateMutability": "view",
      "type": "function"
    },
    {
      "inputs": [],
      "name": "totalSupply",
      "outputs": [
        {
          "internalType": "uint256",
          "name": "",
          "type": "uint256"
        }
      ],
      "stateMutability": "view",
      "type": "function"
    },
    {
      "inputs": [
        {
          "internalType": "address",
          "name": "from",
          "type": "address"
        },
        {
          "internalType": "address",
          "name": "to",
          "type": "address"
        },
        {
          "internalType": "uint256",
          "name": "tokenId",
          "type": "uint256"
        }
      ],
      "name": "transferFrom",
      "outputs": [],
      "stateMutability": "nonpayable",
      "type": "function"
    },
    {
      "inputs": [
        {
          "internalType": "address",
          "name": "newOwner",
          "type": "address"
        }
      ],
      "name": "transferOwnership",
      "outputs": [],
      "stateMutability": "nonpayable",
      "type": "function"
    },
    {
      "inputs": [
        {
          "internalType": "string[]",
          "name": "confList",
          "type": "string[]"
        }
      ],
      "name": "addToConfList",
      "outputs": [],
      "stateMutability": "nonpayable",
      "type": "function"
    },
    {
      "inputs": [
        {
          "internalType": "string",
          "name": "confNumber",
          "type": "string"
        }
      ],
      "name": "mint",
      "outputs": [],
      "stateMutability": "nonpayable",
      "type": "function"
    },
    {
      "inputs": [
        {
          "internalType": "string",
          "name": "confNumber",
          "type": "string"
        }
      ],
      "name": "isNumberActive",
      "outputs": [
        {
          "internalType": "bool",
          "name": "",
          "type": "bool"
        }
      ],
      "stateMutability": "view",
      "type": "function"
    },
    {
      "inputs": [
        {
          "internalType": "string",
          "name": "confNumber",
          "type": "string"
        }
      ],
      "name": "isNumberListed",
      "outputs": [
        {
          "internalType": "bool",
          "name": "",
          "type": "bool"
        }
      ],
      "stateMutability": "view",
      "type": "function"
    },
    {
      "inputs": [
        {
          "internalType": "bool",
          "name": "_isActive",
          "type": "bool"
        }
      ],
      "name": "setIsActive",
      "outputs": [],
      "stateMutability": "nonpayable",
      "type": "function"
    },
    {
      "inputs": [
        {
          "internalType": "string",
          "name": "URI",
          "type": "string"
        }
      ],
      "name": "setContractURI",
      "outputs": [],
      "stateMutability": "nonpayable",
      "type": "function"
    },
    {
      "inputs": [
        {
          "internalType": "string",
          "name": "URI",
          "type": "string"
        }
      ],
      "name": "setBaseURI",
      "outputs": [],
      "stateMutability": "nonpayable",
      "type": "function"
    },
    {
      "inputs": [
        {
          "internalType": "string",
          "name": "revealedBaseURI",
          "type": "string"
        }
      ],
      "name": "setRevealedBaseURI",
      "outputs": [],
      "stateMutability": "nonpayable",
      "type": "function"
    },
    {
      "inputs": [],
      "name": "contractURI",
      "outputs": [
        {
          "internalType": "string",
          "name": "",
          "type": "string"
        }
      ],
      "stateMutability": "view",
      "type": "function"
    },
    {
      "inputs": [
        {
          "internalType": "uint256",
          "name": "tokenId",
          "type": "uint256"
        }
      ],
      "name": "tokenURI",
      "outputs": [
        {
          "internalType": "string",
          "name": "",
          "type": "string"
        }
      ],
      "stateMutability": "view",
      "type": "function"
    }
  ],
  "bytecode": "0x60806040526000600a60146101000a81548160ff02191690831515021790555060405180602001604052806000815250600c90805190602001906200004692919062000208565b5060405180602001604052806000815250600d90805190602001906200006e92919062000208565b5060405180602001604052806000815250600e90805190602001906200009692919062000208565b50348015620000a457600080fd5b5060405162004813380380620048138339818101604052810190620000ca919062000336565b81818160009080519060200190620000e492919062000208565b508060019080519060200190620000fd92919062000208565b505050620001326200011d6200013a640100000000026401000000009004565b62000142640100000000026401000000009004565b50506200053f565b600033905090565b6000600a60009054906101000a900473ffffffffffffffffffffffffffffffffffffffff16905081600a60006101000a81548173ffffffffffffffffffffffffffffffffffffffff021916908373ffffffffffffffffffffffffffffffffffffffff1602179055508173ffffffffffffffffffffffffffffffffffffffff168173ffffffffffffffffffffffffffffffffffffffff167f8be0079c531659141344cd1fd0a4f28419497f9722a3daafe3b4186f6b6457e060405160405180910390a35050565b828054620002169062000450565b90600052602060002090601f0160209004810192826200023a576000855562000286565b82601f106200025557805160ff191683800117855562000286565b8280016001018555821562000286579182015b828111156200028557825182559160200191906001019062000268565b5b50905062000295919062000299565b5090565b5b80821115620002b45760008160009055506001016200029a565b5090565b6000620002cf620002c984620003e4565b620003bb565b905082815260208101848484011115620002ee57620002ed6200051f565b5b620002fb8482856200041a565b509392505050565b600082601f8301126200031b576200031a6200051a565b5b81516200032d848260208601620002b8565b91505092915050565b6000806040838503121562000350576200034f62000529565b5b600083015167ffffffffffffffff81111562000371576200037062000524565b5b6200037f8582860162000303565b925050602083015167ffffffffffffffff811115620003a357620003a262000524565b5b620003b18582860162000303565b9150509250929050565b6000620003c7620003da565b9050620003d5828262000486565b919050565b6000604051905090565b600067ffffffffffffffff821115620004025762000401620004eb565b5b6200040d826200052e565b9050602081019050919050565b60005b838110156200043a5780820151818401526020810190506200041d565b838111156200044a576000848401525b50505050565b600060028204905060018216806200046957607f821691505b6020821081141562000480576200047f620004bc565b5b50919050565b62000491826200052e565b810181811067ffffffffffffffff82111715620004b357620004b2620004eb565b5b80604052505050565b7f4e487b7100000000000000000000000000000000000000000000000000000000600052602260045260246000fd5b7f4e487b7100000000000000000000000000000000000000000000000000000000600052604160045260246000fd5b600080fd5b600080fd5b600080fd5b600080fd5b6000601f19601f8301169050919050565b6142c4806200054f6000396000f3fe608060405234801561001057600080fd5b50600436106101ec576000357c0100000000000000000000000000000000000000000000000000000000900480636352211e11610121578063a22cb465116100bf578063e8a3d4851161008e578063e8a3d48514610545578063e985e9c514610563578063f2fde38b14610593578063fa5e2cdf146105af576101ec565b8063a22cb465146104c1578063b88d4fde146104dd578063c87b56dd146104f9578063d85d3d2714610529576101ec565b8063715018a6116100fb578063715018a61461045f5780638da5cb5b14610469578063938e3d7b1461048757806395d89b41146104a3576101ec565b80636352211e146103e35780636e83843a1461041357806370a082311461042f576101ec565b806322f3e2d41161018e5780632f745c59116101685780632f745c591461034b57806342842e0e1461037b5780634f6ccce71461039757806355f804b3146103c7576101ec565b806322f3e2d4146102f557806323b872dd146103135780632750fc781461032f576101ec565b8063095ea7b3116101ca578063095ea7b31461026f5780630d0341bf1461028b578063124a1a38146102a757806318160ddd146102d7576101ec565b806301ffc9a7146101f157806306fdde0314610221578063081812fc1461023f575b600080fd5b61020b60048036038101906102069190613020565b6105df565b6040516102189190613541565b60405180910390f35b610229610659565b604051610236919061355c565b60405180910390f35b610259600480360381019061025491906130c3565b6106eb565b60405161026691906134da565b60405180910390f35b61028960048036038101906102849190612f6a565b610770565b005b6102a560048036038101906102a09190612faa565b610888565b005b6102c160048036038101906102bc919061307a565b610a31565b6040516102ce9190613541565b60405180910390f35b6102df610bc6565b6040516102ec919061381e565b60405180910390f35b6102fd610bd3565b60405161030a9190613541565b60405180910390f35b61032d60048036038101906103289190612e54565b610be6565b005b61034960048036038101906103449190612ff3565b610c46565b005b61036560048036038101906103609190612f6a565b610cdf565b604051610372919061381e565b60405180910390f35b61039560048036038101906103909190612e54565b610d84565b005b6103b160048036038101906103ac91906130c3565b610da4565b6040516103be919061381e565b60405180910390f35b6103e160048036038101906103dc919061307a565b610e15565b005b6103fd60048036038101906103f891906130c3565b610eab565b60405161040a91906134da565b60405180910390f35b61042d6004803603810190610428919061307a565b610f5d565b005b61044960048036038101906104449190612de7565b610ff3565b604051610456919061381e565b60405180910390f35b6104676110ab565b005b610471611133565b60405161047e91906134da565b60405180910390f35b6104a1600480360381019061049c919061307a565b61115d565b005b6104ab6111f3565b6040516104b8919061355c565b60405180910390f35b6104db60048036038101906104d69190612f2a565b611285565b005b6104f760048036038101906104f29190612ea7565b611406565b005b610513600480360381019061050e91906130c3565b611468565b604051610520919061355c565b60405180910390f35b610543600480360381019061053e919061307a565b61160d565b005b61054d611754565b60405161055a919061355c565b60405180910390f35b61057d60048036038101906105789190612e14565b611862565b60405161058a9190613541565b60405180910390f35b6105ad60048036038101906105a89190612de7565b6118f6565b005b6105c960048036038101906105c4919061307a565b6119ee565b6040516105d69190613541565b60405180910390f35b60007f780e9d63000000000000000000000000000000000000000000000000000000007bffffffffffffffffffffffffffffffffffffffffffffffffffffffff1916827bffffffffffffffffffffffffffffffffffffffffffffffffffffffff19161480610652575061065182611aa2565b5b9050919050565b60606000805461066890613aa0565b80601f016020809104026020016040519081016040528092919081815260200182805461069490613aa0565b80156106e15780601f106106b6576101008083540402835291602001916106e1565b820191906000526020600020905b8154815290600101906020018083116106c457829003601f168201915b5050505050905090565b60006106f682611b84565b610735576040517f08c379a000000000000000000000000000000000000000000000000000000000815260040161072c9061375e565b60405180910390fd5b6004600083815260200190815260200160002060009054906101000a900473ffffffffffffffffffffffffffffffffffffffff169050919050565b600061077b82610eab565b90508073ffffffffffffffffffffffffffffffffffffffff168373ffffffffffffffffffffffffffffffffffffffff1614156107ec576040517f08c379a00000000000000000000000000000000000000000000000000000000081526004016107e3906137be565b60405180910390fd5b8073ffffffffffffffffffffffffffffffffffffffff1661080b611bf0565b73ffffffffffffffffffffffffffffffffffffffff16148061083a575061083981610834611bf0565b611862565b5b610879576040517f08c379a00000000000000000000000000000000000000000000000000000000081526004016108709061369e565b60405180910390fd5b6108838383611bf8565b505050565b610890611bf0565b73ffffffffffffffffffffffffffffffffffffffff166108ae611133565b73ffffffffffffffffffffffffffffffffffffffff1614610904576040517f08c379a00000000000000000000000000000000000000000000000000000000081526004016108fb9061377e565b60405180910390fd5b60005b8151811015610a2d5781818151811061092357610922613c39565b5b6020026020010151600b8383815181106109405761093f613c39565b5b6020026020010151604051610955919061349f565b90815260200160405180910390206000019080519060200190610979929190612b3f565b50600181610987919061392f565b600b83838151811061099c5761099b613c39565b5b60200260200101516040516109b1919061349f565b9081526020016040518091039020600101819055506001600b8383815181106109dd576109dc613c39565b5b60200260200101516040516109f2919061349f565b908152602001604051809103902060020160006101000a81548160ff0219169083151502179055508080610a2590613b03565b915050610907565b5050565b6000610a3b611bf0565b73ffffffffffffffffffffffffffffffffffffffff16610a59611133565b73ffffffffffffffffffffffffffffffffffffffff1614610aaf576040517f08c379a0000000000000000000000000000000000000000000000000000000008152600401610aa69061377e565b60405180910390fd5b6000600b83604051610ac1919061349f565b90815260200160405180910390206000018054610add90613aa0565b80601f0160208091040260200160405190810160405280929190818152602001828054610b0990613aa0565b8015610b565780601f10610b2b57610100808354040283529160200191610b56565b820191906000526020600020905b815481529060010190602001808311610b3957829003601f168201915b5050505050905082604051602001610b6e919061349f565b6040516020818303038152906040528051906020012081604051602001610b95919061349f565b604051602081830303815290604052805190602001201415610bbb576001915050610bc1565b60009150505b919050565b6000600880549050905090565b600a60149054906101000a900460ff1681565b610bf7610bf1611bf0565b82611cb1565b610c36576040517f08c379a0000000000000000000000000000000000000000000000000000000008152600401610c2d906137de565b60405180910390fd5b610c41838383611d8f565b505050565b610c4e611bf0565b73ffffffffffffffffffffffffffffffffffffffff16610c6c611133565b73ffffffffffffffffffffffffffffffffffffffff1614610cc2576040517f08c379a0000000000000000000000000000000000000000000000000000000008152600401610cb99061377e565b60405180910390fd5b80600a60146101000a81548160ff02191690831515021790555050565b6000610cea83610ff3565b8210610d2b576040517f08c379a0000000000000000000000000000000000000000000000000000000008152600401610d229061359e565b60405180910390fd5b600660008473ffffffffffffffffffffffffffffffffffffffff1673ffffffffffffffffffffffffffffffffffffffff168152602001908152602001600020600083815260200190815260200160002054905092915050565b610d9f83838360405180602001604052806000815250611406565b505050565b6000610dae610bc6565b8210610def576040517f08c379a0000000000000000000000000000000000000000000000000000000008152600401610de6906137fe565b60405180910390fd5b60088281548110610e0357610e02613c39565b5b90600052602060002001549050919050565b610e1d611bf0565b73ffffffffffffffffffffffffffffffffffffffff16610e3b611133565b73ffffffffffffffffffffffffffffffffffffffff1614610e91576040517f08c379a0000000000000000000000000000000000000000000000000000000008152600401610e889061377e565b60405180910390fd5b80600d9080519060200190610ea7929190612b3f565b5050565b6000806002600084815260200190815260200160002060009054906101000a900473ffffffffffffffffffffffffffffffffffffffff169050600073ffffffffffffffffffffffffffffffffffffffff168173ffffffffffffffffffffffffffffffffffffffff161415610f54576040517f08c379a0000000000000000000000000000000000000000000000000000000008152600401610f4b906136de565b60405180910390fd5b80915050919050565b610f65611bf0565b73ffffffffffffffffffffffffffffffffffffffff16610f83611133565b73ffffffffffffffffffffffffffffffffffffffff1614610fd9576040517f08c379a0000000000000000000000000000000000000000000000000000000008152600401610fd09061377e565b60405180910390fd5b80600e9080519060200190610fef929190612b3f565b5050565b60008073ffffffffffffffffffffffffffffffffffffffff168273ffffffffffffffffffffffffffffffffffffffff161415611064576040517f08c379a000000000000000000000000000000000000000000000000000000000815260040161105b906136be565b60405180910390fd5b600360008373ffffffffffffffffffffffffffffffffffffffff1673ffffffffffffffffffffffffffffffffffffffff168152602001908152602001600020549050919050565b6110b3611bf0565b73ffffffffffffffffffffffffffffffffffffffff166110d1611133565b73ffffffffffffffffffffffffffffffffffffffff1614611127576040517f08c379a000000000000000000000000000000000000000000000000000000000815260040161111e9061377e565b60405180910390fd5b6111316000611feb565b565b6000600a60009054906101000a900473ffffffffffffffffffffffffffffffffffffffff16905090565b611165611bf0565b73ffffffffffffffffffffffffffffffffffffffff16611183611133565b73ffffffffffffffffffffffffffffffffffffffff16146111d9576040517f08c379a00000000000000000000000000000000000000000000000000000000081526004016111d09061377e565b60405180910390fd5b80600c90805190602001906111ef929190612b3f565b5050565b60606001805461120290613aa0565b80601f016020809104026020016040519081016040528092919081815260200182805461122e90613aa0565b801561127b5780601f106112505761010080835404028352916020019161127b565b820191906000526020600020905b81548152906001019060200180831161125e57829003601f168201915b5050505050905090565b61128d611bf0565b73ffffffffffffffffffffffffffffffffffffffff168273ffffffffffffffffffffffffffffffffffffffff1614156112fb576040517f08c379a00000000000000000000000000000000000000000000000000000000081526004016112f29061363e565b60405180910390fd5b8060056000611308611bf0565b73ffffffffffffffffffffffffffffffffffffffff1673ffffffffffffffffffffffffffffffffffffffff16815260200190815260200160002060008473ffffffffffffffffffffffffffffffffffffffff1673ffffffffffffffffffffffffffffffffffffffff16815260200190815260200160002060006101000a81548160ff0219169083151502179055508173ffffffffffffffffffffffffffffffffffffffff166113b5611bf0565b73ffffffffffffffffffffffffffffffffffffffff167f17307eab39ab6107e8899845ad3d59bd9653f200f220920489ca2b5937696c31836040516113fa9190613541565b60405180910390a35050565b611417611411611bf0565b83611cb1565b611456576040517f08c379a000000000000000000000000000000000000000000000000000000000815260040161144d906137de565b60405180910390fd5b611462848484846120b1565b50505050565b606061147382611b84565b6114b2576040517f08c379a00000000000000000000000000000000000000000000000000000000081526004016114a99061365e565b60405180910390fd5b6000600e80546114c190613aa0565b80601f01602080910402602001604051908101604052809291908181526020018280546114ed90613aa0565b801561153a5780601f1061150f5761010080835404028352916020019161153a565b820191906000526020600020905b81548152906001019060200180831161151d57829003601f168201915b5050505050905060008151116115da57600d805461155790613aa0565b80601f016020809104026020016040519081016040528092919081815260200182805461158390613aa0565b80156115d05780601f106115a5576101008083540402835291602001916115d0565b820191906000526020600020905b8154815290600101906020018083116115b357829003601f168201915b5050505050611605565b806115e48461210d565b6040516020016115f59291906134b6565b6040516020818303038152906040525b915050919050565b600a60149054906101000a900460ff1661165c576040517f08c379a0000000000000000000000000000000000000000000000000000000008152600401611653906136fe565b60405180910390fd5b61166581610a31565b6116a4576040517f08c379a000000000000000000000000000000000000000000000000000000000815260040161169b9061373e565b60405180910390fd5b6116ad816119ee565b6116ec576040517f08c379a00000000000000000000000000000000000000000000000000000000081526004016116e39061357e565b60405180910390fd5b61171733600b83604051611700919061349f565b90815260200160405180910390206001015461228d565b6000600b82604051611729919061349f565b908152602001604051809103902060020160006101000a81548160ff02191690831515021790555050565b606061175e611bf0565b73ffffffffffffffffffffffffffffffffffffffff1661177c611133565b73ffffffffffffffffffffffffffffffffffffffff16146117d2576040517f08c379a00000000000000000000000000000000000000000000000000000000081526004016117c99061377e565b60405180910390fd5b600c80546117df90613aa0565b80601f016020809104026020016040519081016040528092919081815260200182805461180b90613aa0565b80156118585780601f1061182d57610100808354040283529160200191611858565b820191906000526020600020905b81548152906001019060200180831161183b57829003601f168201915b5050505050905090565b6000600560008473ffffffffffffffffffffffffffffffffffffffff1673ffffffffffffffffffffffffffffffffffffffff16815260200190815260200160002060008373ffffffffffffffffffffffffffffffffffffffff1673ffffffffffffffffffffffffffffffffffffffff16815260200190815260200160002060009054906101000a900460ff16905092915050565b6118fe611bf0565b73ffffffffffffffffffffffffffffffffffffffff1661191c611133565b73ffffffffffffffffffffffffffffffffffffffff1614611972576040517f08c379a00000000000000000000000000000000000000000000000000000000081526004016119699061377e565b60405180910390fd5b600073ffffffffffffffffffffffffffffffffffffffff168173ffffffffffffffffffffffffffffffffffffffff1614156119e2576040517f08c379a00000000000000000000000000000000000000000000000000000000081526004016119d9906135de565b60405180910390fd5b6119eb81611feb565b50565b60006119f8611bf0565b73ffffffffffffffffffffffffffffffffffffffff16611a16611133565b73ffffffffffffffffffffffffffffffffffffffff1614611a6c576040517f08c379a0000000000000000000000000000000000000000000000000000000008152600401611a639061377e565b60405180910390fd5b600b82604051611a7c919061349f565b908152602001604051809103902060020160009054906101000a900460ff169050919050565b60007f80ac58cd000000000000000000000000000000000000000000000000000000007bffffffffffffffffffffffffffffffffffffffffffffffffffffffff1916827bffffffffffffffffffffffffffffffffffffffffffffffffffffffff19161480611b6d57507f5b5e139f000000000000000000000000000000000000000000000000000000007bffffffffffffffffffffffffffffffffffffffffffffffffffffffff1916827bffffffffffffffffffffffffffffffffffffffffffffffffffffffff1916145b80611b7d5750611b7c826122ab565b5b9050919050565b60008073ffffffffffffffffffffffffffffffffffffffff166002600084815260200190815260200160002060009054906101000a900473ffffffffffffffffffffffffffffffffffffffff1673ffffffffffffffffffffffffffffffffffffffff1614159050919050565b600033905090565b816004600083815260200190815260200160002060006101000a81548173ffffffffffffffffffffffffffffffffffffffff021916908373ffffffffffffffffffffffffffffffffffffffff160217905550808273ffffffffffffffffffffffffffffffffffffffff16611c6b83610eab565b73ffffffffffffffffffffffffffffffffffffffff167f8c5be1e5ebec7d5bd14f71427d1e84f3dd0314c0f7b2291e5b200ac8c7c3b92560405160405180910390a45050565b6000611cbc82611b84565b611cfb576040517f08c379a0000000000000000000000000000000000000000000000000000000008152600401611cf29061367e565b60405180910390fd5b6000611d0683610eab565b90508073ffffffffffffffffffffffffffffffffffffffff168473ffffffffffffffffffffffffffffffffffffffff161480611d7557508373ffffffffffffffffffffffffffffffffffffffff16611d5d846106eb565b73ffffffffffffffffffffffffffffffffffffffff16145b80611d865750611d858185611862565b5b91505092915050565b8273ffffffffffffffffffffffffffffffffffffffff16611daf82610eab565b73ffffffffffffffffffffffffffffffffffffffff1614611e05576040517f08c379a0000000000000000000000000000000000000000000000000000000008152600401611dfc9061379e565b60405180910390fd5b600073ffffffffffffffffffffffffffffffffffffffff168273ffffffffffffffffffffffffffffffffffffffff161415611e75576040517f08c379a0000000000000000000000000000000000000000000000000000000008152600401611e6c9061361e565b60405180910390fd5b611e80838383612315565b611e8b600082611bf8565b6001600360008573ffffffffffffffffffffffffffffffffffffffff1673ffffffffffffffffffffffffffffffffffffffff1681526020019081526020016000206000828254611edb91906139b6565b925050819055506001600360008473ffffffffffffffffffffffffffffffffffffffff1673ffffffffffffffffffffffffffffffffffffffff1681526020019081526020016000206000828254611f32919061392f565b92505081905550816002600083815260200190815260200160002060006101000a81548173ffffffffffffffffffffffffffffffffffffffff021916908373ffffffffffffffffffffffffffffffffffffffff160217905550808273ffffffffffffffffffffffffffffffffffffffff168473ffffffffffffffffffffffffffffffffffffffff167fddf252ad1be2c89b69c2b068fc378daa952ba7f163c4a11628f55a4df523b3ef60405160405180910390a4505050565b6000600a60009054906101000a900473ffffffffffffffffffffffffffffffffffffffff16905081600a60006101000a81548173ffffffffffffffffffffffffffffffffffffffff021916908373ffffffffffffffffffffffffffffffffffffffff1602179055508173ffffffffffffffffffffffffffffffffffffffff168173ffffffffffffffffffffffffffffffffffffffff167f8be0079c531659141344cd1fd0a4f28419497f9722a3daafe3b4186f6b6457e060405160405180910390a35050565b6120bc848484611d8f565b6120c884848484612429565b612107576040517f08c379a00000000000000000000000000000000000000000000000000000000081526004016120fe906135be565b60405180910390fd5b50505050565b60606000821415612155576040518060400160405280600181526020017f30000000000000000000000000000000000000000000000000000000000000008152509050612288565b600082905060005b6000821461218757808061217090613b03565b915050600a826121809190613985565b915061215d565b60008167ffffffffffffffff8111156121a3576121a2613c68565b5b6040519080825280601f01601f1916602001820160405280156121d55781602001600182028036833780820191505090505b5090505b60008514612281576001826121ee91906139b6565b9150600a856121fd9190613b4c565b6030612209919061392f565b7f01000000000000000000000000000000000000000000000000000000000000000281838151811061223e5761223d613c39565b5b60200101907effffffffffffffffffffffffffffffffffffffffffffffffffffffffffffff1916908160001a905350600a8561227a9190613985565b94506121d9565b8093505050505b919050565b6122a78282604051806020016040528060008152506125f8565b5050565b60007f01ffc9a7000000000000000000000000000000000000000000000000000000007bffffffffffffffffffffffffffffffffffffffffffffffffffffffff1916827bffffffffffffffffffffffffffffffffffffffffffffffffffffffff1916149050919050565b612320838383612653565b600073ffffffffffffffffffffffffffffffffffffffff168373ffffffffffffffffffffffffffffffffffffffff1614156123635761235e81612658565b6123a2565b8173ffffffffffffffffffffffffffffffffffffffff168373ffffffffffffffffffffffffffffffffffffffff16146123a1576123a083826126a1565b5b5b600073ffffffffffffffffffffffffffffffffffffffff168273ffffffffffffffffffffffffffffffffffffffff1614156123e5576123e08161280e565b612424565b8273ffffffffffffffffffffffffffffffffffffffff168273ffffffffffffffffffffffffffffffffffffffff16146124235761242282826128df565b5b5b505050565b600061244a8473ffffffffffffffffffffffffffffffffffffffff1661295e565b156125eb578373ffffffffffffffffffffffffffffffffffffffff1663150b7a02612473611bf0565b8786866040518563ffffffff167c01000000000000000000000000000000000000000000000000000000000281526004016124b194939291906134f5565b602060405180830381600087803b1580156124cb57600080fd5b505af19250505080156124fc57506040513d601f19601f820116820180604052508101906124f9919061304d565b60015b61257f573d806000811461252c576040519150601f19603f3d011682016040523d82523d6000602084013e612531565b606091505b50600081511415612577576040517f08c379a000000000000000000000000000000000000000000000000000000000815260040161256e906135be565b60405180910390fd5b805181602001fd5b63150b7a027c0100000000000000000000000000000000000000000000000000000000027bffffffffffffffffffffffffffffffffffffffffffffffffffffffff1916817bffffffffffffffffffffffffffffffffffffffffffffffffffffffff1916149150506125f0565b600190505b949350505050565b6126028383612971565b61260f6000848484612429565b61264e576040517f08c379a0000000000000000000000000000000000000000000000000000000008152600401612645906135be565b60405180910390fd5b505050565b505050565b6008805490506009600083815260200190815260200160002081905550600881908060018154018082558091505060019003906000526020600020016000909190919091505550565b600060016126ae84610ff3565b6126b891906139b6565b905060006007600084815260200190815260200160002054905081811461279d576000600660008673ffffffffffffffffffffffffffffffffffffffff1673ffffffffffffffffffffffffffffffffffffffff168152602001908152602001600020600084815260200190815260200160002054905080600660008773ffffffffffffffffffffffffffffffffffffffff1673ffffffffffffffffffffffffffffffffffffffff168152602001908152602001600020600084815260200190815260200160002081905550816007600083815260200190815260200160002081905550505b6007600084815260200190815260200160002060009055600660008573ffffffffffffffffffffffffffffffffffffffff1673ffffffffffffffffffffffffffffffffffffffff16815260200190815260200160002060008381526020019081526020016000206000905550505050565b6000600160088054905061282291906139b6565b905060006009600084815260200190815260200160002054905060006008838154811061285257612851613c39565b5b90600052602060002001549050806008838154811061287457612873613c39565b5b9060005260206000200181905550816009600083815260200190815260200160002081905550600960008581526020019081526020016000206000905560088054806128c3576128c2613c0a565b5b6001900381819060005260206000200160009055905550505050565b60006128ea83610ff3565b905081600660008573ffffffffffffffffffffffffffffffffffffffff1673ffffffffffffffffffffffffffffffffffffffff168152602001908152602001600020600083815260200190815260200160002081905550806007600084815260200190815260200160002081905550505050565b600080823b905060008111915050919050565b600073ffffffffffffffffffffffffffffffffffffffff168273ffffffffffffffffffffffffffffffffffffffff1614156129e1576040517f08c379a00000000000000000000000000000000000000000000000000000000081526004016129d89061371e565b60405180910390fd5b6129ea81611b84565b15612a2a576040517f08c379a0000000000000000000000000000000000000000000000000000000008152600401612a21906135fe565b60405180910390fd5b612a3660008383612315565b6001600360008473ffffffffffffffffffffffffffffffffffffffff1673ffffffffffffffffffffffffffffffffffffffff1681526020019081526020016000206000828254612a86919061392f565b92505081905550816002600083815260200190815260200160002060006101000a81548173ffffffffffffffffffffffffffffffffffffffff021916908373ffffffffffffffffffffffffffffffffffffffff160217905550808273ffffffffffffffffffffffffffffffffffffffff16600073ffffffffffffffffffffffffffffffffffffffff167fddf252ad1be2c89b69c2b068fc378daa952ba7f163c4a11628f55a4df523b3ef60405160405180910390a45050565b828054612b4b90613aa0565b90600052602060002090601f016020900481019282612b6d5760008555612bb4565b82601f10612b8657805160ff1916838001178555612bb4565b82800160010185558215612bb4579182015b82811115612bb3578251825591602001919060010190612b98565b5b509050612bc19190612bc5565b5090565b5b80821115612bde576000816000905550600101612bc6565b5090565b6000612bf5612bf08461385e565b613839565b90508083825260208201905082856020860282011115612c1857612c17613c9c565b5b60005b85811015612c6657813567ffffffffffffffff811115612c3e57612c3d613c97565b5b808601612c4b8982612da4565b85526020850194506020840193505050600181019050612c1b565b5050509392505050565b6000612c83612c7e8461388a565b613839565b905082815260208101848484011115612c9f57612c9e613ca1565b5b612caa848285613a5e565b509392505050565b6000612cc5612cc0846138bb565b613839565b905082815260208101848484011115612ce157612ce0613ca1565b5b612cec848285613a5e565b509392505050565b600081359050612d0381614232565b92915050565b600082601f830112612d1e57612d1d613c97565b5b8135612d2e848260208601612be2565b91505092915050565b600081359050612d4681614249565b92915050565b600081359050612d5b81614260565b92915050565b600081519050612d7081614260565b92915050565b600082601f830112612d8b57612d8a613c97565b5b8135612d9b848260208601612c70565b91505092915050565b600082601f830112612db957612db8613c97565b5b8135612dc9848260208601612cb2565b91505092915050565b600081359050612de181614277565b92915050565b600060208284031215612dfd57612dfc613cab565b5b6000612e0b84828501612cf4565b91505092915050565b60008060408385031215612e2b57612e2a613cab565b5b6000612e3985828601612cf4565b9250506020612e4a85828601612cf4565b9150509250929050565b600080600060608486031215612e6d57612e6c613cab565b5b6000612e7b86828701612cf4565b9350506020612e8c86828701612cf4565b9250506040612e9d86828701612dd2565b9150509250925092565b60008060008060808587031215612ec157612ec0613cab565b5b6000612ecf87828801612cf4565b9450506020612ee087828801612cf4565b9350506040612ef187828801612dd2565b925050606085013567ffffffffffffffff811115612f1257612f11613ca6565b5b612f1e87828801612d76565b91505092959194509250565b60008060408385031215612f4157612f40613cab565b5b6000612f4f85828601612cf4565b9250506020612f6085828601612d37565b9150509250929050565b60008060408385031215612f8157612f80613cab565b5b6000612f8f85828601612cf4565b9250506020612fa085828601612dd2565b9150509250929050565b600060208284031215612fc057612fbf613cab565b5b600082013567ffffffffffffffff811115612fde57612fdd613ca6565b5b612fea84828501612d09565b91505092915050565b60006020828403121561300957613008613cab565b5b600061301784828501612d37565b91505092915050565b60006020828403121561303657613035613cab565b5b600061304484828501612d4c565b91505092915050565b60006020828403121561306357613062613cab565b5b600061307184828501612d61565b91505092915050565b6000602082840312156130905761308f613cab565b5b600082013567ffffffffffffffff8111156130ae576130ad613ca6565b5b6130ba84828501612da4565b91505092915050565b6000602082840312156130d9576130d8613cab565b5b60006130e784828501612dd2565b91505092915050565b6130f9816139ea565b82525050565b613108816139fc565b82525050565b6000613119826138ec565b6131238185613902565b9350613133818560208601613a6d565b61313c81613cb0565b840191505092915050565b6000613152826138f7565b61315c8185613913565b935061316c818560208601613a6d565b61317581613cb0565b840191505092915050565b600061318b826138f7565b6131958185613924565b93506131a5818560208601613a6d565b80840191505092915050565b60006131be602983613913565b91506131c982613cc1565b604082019050919050565b60006131e1602b83613913565b91506131ec82613d10565b604082019050919050565b6000613204603283613913565b915061320f82613d5f565b604082019050919050565b6000613227602683613913565b915061323282613dae565b604082019050919050565b600061324a601c83613913565b915061325582613dfd565b602082019050919050565b600061326d602483613913565b915061327882613e26565b604082019050919050565b6000613290601983613913565b915061329b82613e75565b602082019050919050565b60006132b3601483613913565b91506132be82613e9e565b602082019050919050565b60006132d6602c83613913565b91506132e182613ec7565b604082019050919050565b60006132f9603883613913565b915061330482613f16565b604082019050919050565b600061331c602a83613913565b915061332782613f65565b604082019050919050565b600061333f602983613913565b915061334a82613fb4565b604082019050919050565b6000613362601783613913565b915061336d82614003565b602082019050919050565b6000613385602083613913565b91506133908261402c565b602082019050919050565b60006133a8602083613913565b91506133b382614055565b602082019050919050565b60006133cb602c83613913565b91506133d68261407e565b604082019050919050565b60006133ee602083613913565b91506133f9826140cd565b602082019050919050565b6000613411602983613913565b915061341c826140f6565b604082019050919050565b6000613434602183613913565b915061343f82614145565b604082019050919050565b6000613457603183613913565b915061346282614194565b604082019050919050565b600061347a602c83613913565b9150613485826141e3565b604082019050919050565b61349981613a54565b82525050565b60006134ab8284613180565b915081905092915050565b60006134c28285613180565b91506134ce8284613180565b91508190509392505050565b60006020820190506134ef60008301846130f0565b92915050565b600060808201905061350a60008301876130f0565b61351760208301866130f0565b6135246040830185613490565b8181036060830152613536818461310e565b905095945050505050565b600060208201905061355660008301846130ff565b92915050565b600060208201905081810360008301526135768184613147565b905092915050565b60006020820190508181036000830152613597816131b1565b9050919050565b600060208201905081810360008301526135b7816131d4565b9050919050565b600060208201905081810360008301526135d7816131f7565b9050919050565b600060208201905081810360008301526135f78161321a565b9050919050565b600060208201905081810360008301526136178161323d565b9050919050565b6000602082019050818103600083015261363781613260565b9050919050565b6000602082019050818103600083015261365781613283565b9050919050565b60006020820190508181036000830152613677816132a6565b9050919050565b60006020820190508181036000830152613697816132c9565b9050919050565b600060208201905081810360008301526136b7816132ec565b9050919050565b600060208201905081810360008301526136d78161330f565b9050919050565b600060208201905081810360008301526136f781613332565b9050919050565b6000602082019050818103600083015261371781613355565b9050919050565b6000602082019050818103600083015261373781613378565b9050919050565b600060208201905081810360008301526137578161339b565b9050919050565b60006020820190508181036000830152613777816133be565b9050919050565b60006020820190508181036000830152613797816133e1565b9050919050565b600060208201905081810360008301526137b781613404565b9050919050565b600060208201905081810360008301526137d781613427565b9050919050565b600060208201905081810360008301526137f78161344a565b9050919050565b600060208201905081810360008301526138178161346d565b9050919050565b60006020820190506138336000830184613490565b92915050565b6000613843613854565b905061384f8282613ad2565b919050565b6000604051905090565b600067ffffffffffffffff82111561387957613878613c68565b5b602082029050602081019050919050565b600067ffffffffffffffff8211156138a5576138a4613c68565b5b6138ae82613cb0565b9050602081019050919050565b600067ffffffffffffffff8211156138d6576138d5613c68565b5b6138df82613cb0565b9050602081019050919050565b600081519050919050565b600081519050919050565b600082825260208201905092915050565b600082825260208201905092915050565b600081905092915050565b600061393a82613a54565b915061394583613a54565b9250827fffffffffffffffffffffffffffffffffffffffffffffffffffffffffffffffff0382111561397a57613979613b7d565b5b828201905092915050565b600061399082613a54565b915061399b83613a54565b9250826139ab576139aa613bac565b5b828204905092915050565b60006139c182613a54565b91506139cc83613a54565b9250828210156139df576139de613b7d565b5b828203905092915050565b60006139f582613a34565b9050919050565b60008115159050919050565b60007fffffffff0000000000000000000000000000000000000000000000000000000082169050919050565b600073ffffffffffffffffffffffffffffffffffffffff82169050919050565b6000819050919050565b82818337600083830152505050565b60005b83811015613a8b578082015181840152602081019050613a70565b83811115613a9a576000848401525b50505050565b60006002820490506001821680613ab857607f821691505b60208210811415613acc57613acb613bdb565b5b50919050565b613adb82613cb0565b810181811067ffffffffffffffff82111715613afa57613af9613c68565b5b80604052505050565b6000613b0e82613a54565b91507fffffffffffffffffffffffffffffffffffffffffffffffffffffffffffffffff821415613b4157613b40613b7d565b5b600182019050919050565b6000613b5782613a54565b9150613b6283613a54565b925082613b7257613b71613bac565b5b828206905092915050565b7f4e487b7100000000000000000000000000000000000000000000000000000000600052601160045260246000fd5b7f4e487b7100000000000000000000000000000000000000000000000000000000600052601260045260246000fd5b7f4e487b7100000000000000000000000000000000000000000000000000000000600052602260045260246000fd5b7f4e487b7100000000000000000000000000000000000000000000000000000000600052603160045260246000fd5b7f4e487b7100000000000000000000000000000000000000000000000000000000600052603260045260246000fd5b7f4e487b7100000000000000000000000000000000000000000000000000000000600052604160045260246000fd5b600080fd5b600080fd5b600080fd5b600080fd5b600080fd5b6000601f19601f8301169050919050565b7f436f6e6669726d6174696f6e204e756d6265722048617320416c72656164792060008201527f4265656e20557365640000000000000000000000000000000000000000000000602082015250565b7f455243373231456e756d657261626c653a206f776e657220696e646578206f7560008201527f74206f6620626f756e6473000000000000000000000000000000000000000000602082015250565b7f4552433732313a207472616e7366657220746f206e6f6e20455243373231526560008201527f63656976657220696d706c656d656e7465720000000000000000000000000000602082015250565b7f4f776e61626c653a206e6577206f776e657220697320746865207a65726f206160008201527f6464726573730000000000000000000000000000000000000000000000000000602082015250565b7f4552433732313a20746f6b656e20616c7265616479206d696e74656400000000600082015250565b7f4552433732313a207472616e7366657220746f20746865207a65726f2061646460008201527f7265737300000000000000000000000000000000000000000000000000000000602082015250565b7f4552433732313a20617070726f766520746f2063616c6c657200000000000000600082015250565b7f546f6b656e20646f6573206e6f74206578697374000000000000000000000000600082015250565b7f4552433732313a206f70657261746f7220717565727920666f72206e6f6e657860008201527f697374656e7420746f6b656e0000000000000000000000000000000000000000602082015250565b7f4552433732313a20617070726f76652063616c6c6572206973206e6f74206f7760008201527f6e6572206e6f7220617070726f76656420666f7220616c6c0000000000000000602082015250565b7f4552433732313a2062616c616e636520717565727920666f7220746865207a6560008201527f726f206164647265737300000000000000000000000000000000000000000000602082015250565b7f4552433732313a206f776e657220717565727920666f72206e6f6e657869737460008201527f656e7420746f6b656e0000000000000000000000000000000000000000000000602082015250565b7f436f6e7472616374204973204e6f74204163746976652e000000000000000000600082015250565b7f4552433732313a206d696e7420746f20746865207a65726f2061646472657373600082015250565b7f436f6e6669726d6174696f6e204e756d626572206973204e6f742056616c6964600082015250565b7f4552433732313a20617070726f76656420717565727920666f72206e6f6e657860008201527f697374656e7420746f6b656e0000000000000000000000000000000000000000602082015250565b7f4f776e61626c653a2063616c6c6572206973206e6f7420746865206f776e6572600082015250565b7f4552433732313a207472616e73666572206f6620746f6b656e2074686174206960008201527f73206e6f74206f776e0000000000000000000000000000000000000000000000602082015250565b7f4552433732313a20617070726f76616c20746f2063757272656e74206f776e6560008201527f7200000000000000000000000000000000000000000000000000000000000000602082015250565b7f4552433732313a207472616e736665722063616c6c6572206973206e6f74206f60008201527f776e6572206e6f7220617070726f766564000000000000000000000000000000602082015250565b7f455243373231456e756d657261626c653a20676c6f62616c20696e646578206f60008201527f7574206f6620626f756e64730000000000000000000000000000000000000000602082015250565b61423b816139ea565b811461424657600080fd5b50565b614252816139fc565b811461425d57600080fd5b50565b61426981613a08565b811461427457600080fd5b50565b61428081613a54565b811461428b57600080fd5b5056fea264697066735822122052ca45bb4db99c52d9bdd32770cff4384f57d55e380149caabb831d004483e0664736f6c63430008070033",
  "immutableReferences": {},
  "source": "// SPDX-License-Identifier: MIT\npragma solidity >=0.7.0 <0.9.0;\n\nimport \"@openzeppelin/contracts/token/ERC721/extensions/ERC721Enumerable.sol\";\nimport \"@openzeppelin/contracts/access/Ownable.sol\";\nimport \"@openzeppelin/contracts/utils/Strings.sol\";\n\ncontract SneakerTest is ERC721Enumerable, Ownable {\n    using Strings for uint256;\n\n    struct Sneaker {\n        string number;\n        uint256 tokenId;\n        bool active;\n    }\n\n    bool public isActive = false;\n\n    mapping(string => Sneaker) private _sneakerList;\n\n    string private _contractURI = '';\n    string private _tokenBaseURI = '';\n    string private _tokenRevealedBaseURI = '';\n\n    constructor(string memory name, string memory symbol)\n        ERC721(name, symbol)\n    {}\n\n    function addToConfList(string[] memory confList) public onlyOwner {\n        for(uint i = 0; i < confList.length; i++){\n            _sneakerList[confList[i]].number = confList[i];\n            _sneakerList[confList[i]].tokenId = i + 1;\n            _sneakerList[confList[i]].active = true;\n        }\n    }\n\n    function mint(string memory confNumber) public {\n        require(isActive, 'Contract Is Not Active.');\n        require(isNumberListed(confNumber), 'Confirmation Number is Not Valid');\n        require(isNumberActive(confNumber), 'Confirmation Number Has Already Been Used');\n        _safeMint(msg.sender, _sneakerList[confNumber].tokenId);\n        _sneakerList[confNumber].active = false;\n    }\n\n    function isNumberActive(string memory confNumber) public view onlyOwner returns (bool){\n        return _sneakerList[confNumber].active;\n    }\n\n    function isNumberListed(string memory confNumber) public view onlyOwner returns (bool) {\n        string memory number = _sneakerList[confNumber].number;\n        if(keccak256(abi.encodePacked(number)) == keccak256(abi.encodePacked(confNumber))) {\n            return true;\n        } else {\n            return false;\n        }\n    }\n\n    function setIsActive(bool _isActive) public onlyOwner {\n        isActive = _isActive;\n    }\n\n    function setContractURI(string memory URI) public onlyOwner {\n        _contractURI = URI;\n    }\n\n    function setBaseURI(string memory URI) public onlyOwner {\n        _tokenBaseURI = URI;\n    }\n    \n    function setRevealedBaseURI(string memory revealedBaseURI) public onlyOwner {\n        _tokenRevealedBaseURI = revealedBaseURI;\n    }\n\n    function contractURI() public view onlyOwner returns (string memory) {\n        return _contractURI;\n    }\n    \n    function tokenURI(uint256 tokenId) public view override(ERC721) returns (string memory) {\n        require(_exists(tokenId), 'Token does not exist');\n\n        /// Convert string to bytes so we can check if it's empty or not.\n        string memory revealedBaseURI = _tokenRevealedBaseURI;\n        return bytes(revealedBaseURI).length > 0 ?\n            string(abi.encodePacked(revealedBaseURI, tokenId.toString())) :\n            _tokenBaseURI;\n    }\n}",
  "sourcePath": "/home/aktutia/blockchain-developer-bootcamp-final-project/src/contracts/SneakerTest.sol",
  "compiler": {
    "name": "solc",
    "version": "0.8.7+commit.e28d00a7.Emscripten.clang"
  },
  "schemaVersion": "3.4.3",
  "updatedAt": "2021-10-01T07:24:51.172Z",
  "devdoc": {
    "kind": "dev",
    "methods": {
      "approve(address,uint256)": {
        "details": "See {IERC721-approve}."
      },
      "balanceOf(address)": {
        "details": "See {IERC721-balanceOf}."
      },
      "getApproved(uint256)": {
        "details": "See {IERC721-getApproved}."
      },
      "isApprovedForAll(address,address)": {
        "details": "See {IERC721-isApprovedForAll}."
      },
      "name()": {
        "details": "See {IERC721Metadata-name}."
      },
      "owner()": {
        "details": "Returns the address of the current owner."
      },
      "ownerOf(uint256)": {
        "details": "See {IERC721-ownerOf}."
      },
      "renounceOwnership()": {
        "details": "Leaves the contract without owner. It will not be possible to call `onlyOwner` functions anymore. Can only be called by the current owner. NOTE: Renouncing ownership will leave the contract without an owner, thereby removing any functionality that is only available to the owner."
      },
      "safeTransferFrom(address,address,uint256)": {
        "details": "See {IERC721-safeTransferFrom}."
      },
      "safeTransferFrom(address,address,uint256,bytes)": {
        "details": "See {IERC721-safeTransferFrom}."
      },
      "setApprovalForAll(address,bool)": {
        "details": "See {IERC721-setApprovalForAll}."
      },
      "supportsInterface(bytes4)": {
        "details": "See {IERC165-supportsInterface}."
      },
      "symbol()": {
        "details": "See {IERC721Metadata-symbol}."
      },
      "tokenByIndex(uint256)": {
        "details": "See {IERC721Enumerable-tokenByIndex}."
      },
      "tokenOfOwnerByIndex(address,uint256)": {
        "details": "See {IERC721Enumerable-tokenOfOwnerByIndex}."
      },
      "tokenURI(uint256)": {
        "details": "See {IERC721Metadata-tokenURI}."
      },
      "totalSupply()": {
        "details": "See {IERC721Enumerable-totalSupply}."
      },
      "transferFrom(address,address,uint256)": {
        "details": "See {IERC721-transferFrom}."
      },
      "transferOwnership(address)": {
        "details": "Transfers ownership of the contract to a new account (`newOwner`). Can only be called by the current owner."
      }
    },
    "version": 1
  },
  "userdoc": {
    "kind": "user",
    "methods": {},
    "version": 1
  }
}